{
	"contracts/TrustVault.sol": {
		"TrustVault": {
			"abi": [
				{
					"inputs": [
						{
							"internalType": "address",
							"name": "_rewardToken",
							"type": "address"
						},
						{
							"internalType": "address",
							"name": "initialOwner",
							"type": "address"
						}
					],
					"stateMutability": "nonpayable",
					"type": "constructor"
				},
				{
					"inputs": [
						{
							"internalType": "address",
							"name": "owner",
							"type": "address"
						}
					],
					"name": "OwnableInvalidOwner",
					"type": "error"
				},
				{
					"inputs": [
						{
							"internalType": "address",
							"name": "account",
							"type": "address"
						}
					],
					"name": "OwnableUnauthorizedAccount",
					"type": "error"
				},
				{
					"inputs": [
						{
							"internalType": "address",
							"name": "token",
							"type": "address"
						}
					],
					"name": "SafeERC20FailedOperation",
					"type": "error"
				},
				{
					"anonymous": false,
					"inputs": [
						{
							"indexed": true,
							"internalType": "address",
							"name": "user",
							"type": "address"
						},
						{
							"indexed": true,
							"internalType": "address",
							"name": "token",
							"type": "address"
						},
						{
							"indexed": false,
							"internalType": "uint256",
							"name": "amount",
							"type": "uint256"
						}
					],
					"name": "Deposit",
					"type": "event"
				},
				{
					"anonymous": false,
					"inputs": [
						{
							"indexed": true,
							"internalType": "address",
							"name": "user",
							"type": "address"
						},
						{
							"indexed": false,
							"internalType": "uint256",
							"name": "amount",
							"type": "uint256"
						}
					],
					"name": "EmergencyWithdrawal",
					"type": "event"
				},
				{
					"anonymous": false,
					"inputs": [
						{
							"indexed": true,
							"internalType": "address",
							"name": "user",
							"type": "address"
						},
						{
							"indexed": false,
							"internalType": "uint256",
							"name": "lockUntilTimestamp",
							"type": "uint256"
						}
					],
					"name": "LockUntilSet",
					"type": "event"
				},
				{
					"anonymous": false,
					"inputs": [
						{
							"indexed": true,
							"internalType": "address",
							"name": "user",
							"type": "address"
						},
						{
							"indexed": false,
							"internalType": "uint256",
							"name": "monthlyAmount",
							"type": "uint256"
						}
					],
					"name": "MonthlyReleaseSet",
					"type": "event"
				},
				{
					"anonymous": false,
					"inputs": [
						{
							"indexed": true,
							"internalType": "address",
							"name": "previousOwner",
							"type": "address"
						},
						{
							"indexed": true,
							"internalType": "address",
							"name": "newOwner",
							"type": "address"
						}
					],
					"name": "OwnershipTransferred",
					"type": "event"
				},
				{
					"anonymous": false,
					"inputs": [
						{
							"indexed": true,
							"internalType": "address",
							"name": "user",
							"type": "address"
						},
						{
							"indexed": false,
							"internalType": "uint256",
							"name": "amount",
							"type": "uint256"
						}
					],
					"name": "Withdrawal",
					"type": "event"
				},
				{
					"inputs": [
						{
							"internalType": "uint256",
							"name": "amount",
							"type": "uint256"
						}
					],
					"name": "depositReward",
					"outputs": [],
					"stateMutability": "nonpayable",
					"type": "function"
				},
				{
					"inputs": [],
					"name": "emergencyWithdraw",
					"outputs": [],
					"stateMutability": "nonpayable",
					"type": "function"
				},
				{
					"inputs": [],
					"name": "enableEmergencyWithdrawal",
					"outputs": [],
					"stateMutability": "nonpayable",
					"type": "function"
				},
				{
					"inputs": [],
					"name": "getTokenBalance",
					"outputs": [
						{
							"internalType": "uint256",
							"name": "",
							"type": "uint256"
						}
					],
					"stateMutability": "view",
					"type": "function"
				},
				{
					"inputs": [
						{
							"internalType": "address",
							"name": "user",
							"type": "address"
						}
					],
					"name": "getVault",
					"outputs": [
						{
							"internalType": "uint256",
							"name": "totalDeposited",
							"type": "uint256"
						},
						{
							"internalType": "uint256",
							"name": "lockUntil",
							"type": "uint256"
						},
						{
							"internalType": "uint256",
							"name": "monthlyRelease",
							"type": "uint256"
						},
						{
							"internalType": "uint256",
							"name": "lastWithdrawalTime",
							"type": "uint256"
						},
						{
							"internalType": "bool",
							"name": "emergencyEnabled",
							"type": "bool"
						}
					],
					"stateMutability": "view",
					"type": "function"
				},
				{
					"inputs": [],
					"name": "owner",
					"outputs": [
						{
							"internalType": "address",
							"name": "",
							"type": "address"
						}
					],
					"stateMutability": "view",
					"type": "function"
				},
				{
					"inputs": [],
					"name": "renounceOwnership",
					"outputs": [],
					"stateMutability": "nonpayable",
					"type": "function"
				},
				{
					"inputs": [],
					"name": "rewardToken",
					"outputs": [
						{
							"internalType": "address",
							"name": "",
							"type": "address"
						}
					],
					"stateMutability": "view",
					"type": "function"
				},
				{
					"inputs": [
						{
							"internalType": "uint256",
							"name": "timestamp",
							"type": "uint256"
						}
					],
					"name": "setLockUntil",
					"outputs": [],
					"stateMutability": "nonpayable",
					"type": "function"
				},
				{
					"inputs": [
						{
							"internalType": "uint256",
							"name": "amount",
							"type": "uint256"
						}
					],
					"name": "setMonthlyRelease",
					"outputs": [],
					"stateMutability": "nonpayable",
					"type": "function"
				},
				{
					"inputs": [
						{
							"internalType": "address",
							"name": "newOwner",
							"type": "address"
						}
					],
					"name": "transferOwnership",
					"outputs": [],
					"stateMutability": "nonpayable",
					"type": "function"
				},
				{
					"inputs": [
						{
							"internalType": "address",
							"name": "",
							"type": "address"
						}
					],
					"name": "userVaults",
					"outputs": [
						{
							"internalType": "uint256",
							"name": "totalDeposited",
							"type": "uint256"
						},
						{
							"internalType": "uint256",
							"name": "lockUntil",
							"type": "uint256"
						},
						{
							"internalType": "uint256",
							"name": "monthlyRelease",
							"type": "uint256"
						},
						{
							"internalType": "uint256",
							"name": "lastWithdrawalTime",
							"type": "uint256"
						},
						{
							"internalType": "bool",
							"name": "emergencyEnabled",
							"type": "bool"
						}
					],
					"stateMutability": "view",
					"type": "function"
				},
				{
					"inputs": [
						{
							"internalType": "uint256",
							"name": "amount",
							"type": "uint256"
						}
					],
					"name": "withdraw",
					"outputs": [],
					"stateMutability": "nonpayable",
					"type": "function"
				}
			],
			"devdoc": {
				"details": "A non-custodial savings vault for RewardTrust Pay.      Users deposit stablecoins triggered by real-world behaviors (e.g., tuition payment).      Funds are released according to time-based or goal-based rules.",
				"errors": {
					"OwnableInvalidOwner(address)": [
						{
							"details": "The owner is not a valid owner account. (eg. `address(0)`)"
						}
					],
					"OwnableUnauthorizedAccount(address)": [
						{
							"details": "The caller account is not authorized to perform an operation."
						}
					],
					"SafeERC20FailedOperation(address)": [
						{
							"details": "An operation with an ERC-20 token failed."
						}
					]
				},
				"kind": "dev",
				"methods": {
					"depositReward(uint256)": {
						"details": "Only the contract owner (RewardTrust Pay system) can trigger deposits"
					},
					"owner()": {
						"details": "Returns the address of the current owner."
					},
					"renounceOwnership()": {
						"details": "Leaves the contract without owner. It will not be possible to call `onlyOwner` functions. Can only be called by the current owner. NOTE: Renouncing ownership will leave the contract without an owner, thereby disabling any functionality that is only available to the owner."
					},
					"transferOwnership(address)": {
						"details": "Transfers ownership of the contract to a new account (`newOwner`). Can only be called by the current owner."
					}
				},
				"title": "TrustVault",
				"version": 1
			},
			"evm": {
				"assembly": "    /* \"contracts/TrustVault.sol\":565:5657  contract TrustVault is Ownable, ReentrancyGuard {... */\n  mstore(0x40, 0xa0)\n    /* \"contracts/TrustVault.sol\":1879:2128  constructor(address _rewardToken, address initialOwner) Ownable(initialOwner) {... */\n  callvalue\n  dup1\n  iszero\n  tag_1\n  jumpi\n  0x00\n  dup1\n  revert\ntag_1:\n  pop\n  mload(0x40)\n  sub(codesize, bytecodeSize)\n  dup1\n  bytecodeSize\n  dup4\n  codecopy\n  dup2\n  dup2\n  add\n  0x40\n  mstore\n  dup2\n  add\n  swap1\n  tag_2\n  swap2\n  swap1\n  tag_3\n  jump\t// in\ntag_2:\n    /* \"contracts/TrustVault.sol\":1943:1955  initialOwner */\n  dup1\n    /* \"@openzeppelin/contracts/access/Ownable.sol\":1297:1298  0 */\n  0x00\n    /* \"@openzeppelin/contracts/access/Ownable.sol\":1273:1299  initialOwner == address(0) */\n  0xffffffffffffffffffffffffffffffffffffffff\n  and\n    /* \"@openzeppelin/contracts/access/Ownable.sol\":1273:1285  initialOwner */\n  dup2\n    /* \"@openzeppelin/contracts/access/Ownable.sol\":1273:1299  initialOwner == address(0) */\n  0xffffffffffffffffffffffffffffffffffffffff\n  and\n  sub\n    /* \"@openzeppelin/contracts/access/Ownable.sol\":1269:1364  if (initialOwner == address(0)) {... */\n  tag_8\n  jumpi\n    /* \"@openzeppelin/contracts/access/Ownable.sol\":1350:1351  0 */\n  0x00\n    /* \"@openzeppelin/contracts/access/Ownable.sol\":1322:1353  OwnableInvalidOwner(address(0)) */\n  mload(0x40)\n  0x1e4fbdf700000000000000000000000000000000000000000000000000000000\n  dup2\n  mstore\n  0x04\n  add\n  tag_9\n  swap2\n  swap1\n  tag_10\n  jump\t// in\ntag_9:\n  mload(0x40)\n  dup1\n  swap2\n  sub\n  swap1\n  revert\n    /* \"@openzeppelin/contracts/access/Ownable.sol\":1269:1364  if (initialOwner == address(0)) {... */\ntag_8:\n    /* \"@openzeppelin/contracts/access/Ownable.sol\":1373:1405  _transferOwnership(initialOwner) */\n  tag_11\n    /* \"@openzeppelin/contracts/access/Ownable.sol\":1392:1404  initialOwner */\n  dup2\n    /* \"@openzeppelin/contracts/access/Ownable.sol\":1373:1391  _transferOwnership */\n  shl(0x20, tag_12)\n    /* \"@openzeppelin/contracts/access/Ownable.sol\":1373:1405  _transferOwnership(initialOwner) */\n  0x20\n  shr\n  jump\t// in\ntag_11:\n    /* \"@openzeppelin/contracts/access/Ownable.sol\":1225:1412  constructor(address initialOwner) {... */\n  pop\n    /* \"@openzeppelin/contracts/security/ReentrancyGuard.sol\":1716:1717  1 */\n  0x01\n    /* \"@openzeppelin/contracts/security/ReentrancyGuard.sol\":1821:1828  _status */\n  dup1\n    /* \"@openzeppelin/contracts/security/ReentrancyGuard.sol\":1821:1843  _status = _NOT_ENTERED */\n  dup2\n  swap1\n  sstore\n  pop\n    /* \"contracts/TrustVault.sol\":2000:2001  0 */\n  0x00\n    /* \"contracts/TrustVault.sol\":1976:2002  _rewardToken != address(0) */\n  0xffffffffffffffffffffffffffffffffffffffff\n  and\n    /* \"contracts/TrustVault.sol\":1976:1988  _rewardToken */\n  dup3\n    /* \"contracts/TrustVault.sol\":1976:2002  _rewardToken != address(0) */\n  0xffffffffffffffffffffffffffffffffffffffff\n  and\n  sub\n    /* \"contracts/TrustVault.sol\":1968:2020  require(_rewardToken != address(0), \"Invalid token\") */\n  tag_15\n  jumpi\n  mload(0x40)\n  0x08c379a000000000000000000000000000000000000000000000000000000000\n  dup2\n  mstore\n  0x04\n  add\n  tag_16\n  swap1\n  tag_17\n  jump\t// in\ntag_16:\n  mload(0x40)\n  dup1\n  swap2\n  sub\n  swap1\n  revert\ntag_15:\n    /* \"contracts/TrustVault.sol\":2063:2064  0 */\n  0x00\n    /* \"contracts/TrustVault.sol\":2039:2065  initialOwner != address(0) */\n  0xffffffffffffffffffffffffffffffffffffffff\n  and\n    /* \"contracts/TrustVault.sol\":2039:2051  initialOwner */\n  dup2\n    /* \"contracts/TrustVault.sol\":2039:2065  initialOwner != address(0) */\n  0xffffffffffffffffffffffffffffffffffffffff\n  and\n  sub\n    /* \"contracts/TrustVault.sol\":2031:2083  require(initialOwner != address(0), \"Invalid owner\") */\n  tag_18\n  jumpi\n  mload(0x40)\n  0x08c379a000000000000000000000000000000000000000000000000000000000\n  dup2\n  mstore\n  0x04\n  add\n  tag_19\n  swap1\n  tag_20\n  jump\t// in\ntag_19:\n  mload(0x40)\n  dup1\n  swap2\n  sub\n  swap1\n  revert\ntag_18:\n    /* \"contracts/TrustVault.sol\":2108:2120  _rewardToken */\n  dup2\n    /* \"contracts/TrustVault.sol\":2094:2120  rewardToken = _rewardToken */\n  0xffffffffffffffffffffffffffffffffffffffff\n  and\n  0x80\n  dup2\n  0xffffffffffffffffffffffffffffffffffffffff\n  and\n  dup2\n  mstore\n  pop\n  pop\n    /* \"contracts/TrustVault.sol\":1879:2128  constructor(address _rewardToken, address initialOwner) Ownable(initialOwner) {... */\n  pop\n  pop\n    /* \"contracts/TrustVault.sol\":565:5657  contract TrustVault is Ownable, ReentrancyGuard {... */\n  jump(tag_21)\n    /* \"@openzeppelin/contracts/access/Ownable.sol\":2912:3099  function _transferOwnership(address newOwner) internal virtual {... */\ntag_12:\n    /* \"@openzeppelin/contracts/access/Ownable.sol\":2985:3001  address oldOwner */\n  0x00\n    /* \"@openzeppelin/contracts/access/Ownable.sol\":3004:3010  _owner */\n  dup1\n  0x00\n  swap1\n  sload\n  swap1\n  0x0100\n  exp\n  swap1\n  div\n  0xffffffffffffffffffffffffffffffffffffffff\n  and\n    /* \"@openzeppelin/contracts/access/Ownable.sol\":2985:3010  address oldOwner = _owner */\n  swap1\n  pop\n    /* \"@openzeppelin/contracts/access/Ownable.sol\":3029:3037  newOwner */\n  dup2\n    /* \"@openzeppelin/contracts/access/Ownable.sol\":3020:3026  _owner */\n  0x00\n  dup1\n    /* \"@openzeppelin/contracts/access/Ownable.sol\":3020:3037  _owner = newOwner */\n  0x0100\n  exp\n  dup2\n  sload\n  dup2\n  0xffffffffffffffffffffffffffffffffffffffff\n  mul\n  not\n  and\n  swap1\n  dup4\n  0xffffffffffffffffffffffffffffffffffffffff\n  and\n  mul\n  or\n  swap1\n  sstore\n  pop\n    /* \"@openzeppelin/contracts/access/Ownable.sol\":3083:3091  newOwner */\n  dup2\n    /* \"@openzeppelin/contracts/access/Ownable.sol\":3052:3092  OwnershipTransferred(oldOwner, newOwner) */\n  0xffffffffffffffffffffffffffffffffffffffff\n  and\n    /* \"@openzeppelin/contracts/access/Ownable.sol\":3073:3081  oldOwner */\n  dup2\n    /* \"@openzeppelin/contracts/access/Ownable.sol\":3052:3092  OwnershipTransferred(oldOwner, newOwner) */\n  0xffffffffffffffffffffffffffffffffffffffff\n  and\n  0x8be0079c531659141344cd1fd0a4f28419497f9722a3daafe3b4186f6b6457e0\n  mload(0x40)\n  mload(0x40)\n  dup1\n  swap2\n  sub\n  swap1\n  log3\n    /* \"@openzeppelin/contracts/access/Ownable.sol\":2975:3099  {... */\n  pop\n    /* \"@openzeppelin/contracts/access/Ownable.sol\":2912:3099  function _transferOwnership(address newOwner) internal virtual {... */\n  pop\n  jump\t// out\n    /* \"#utility.yul\":88:205   */\ntag_24:\n    /* \"#utility.yul\":197:198   */\n  0x00\n    /* \"#utility.yul\":194:195   */\n  dup1\n    /* \"#utility.yul\":187:199   */\n  revert\n    /* \"#utility.yul\":334:460   */\ntag_26:\n    /* \"#utility.yul\":371:378   */\n  0x00\n    /* \"#utility.yul\":411:453   */\n  0xffffffffffffffffffffffffffffffffffffffff\n    /* \"#utility.yul\":404:409   */\n  dup3\n    /* \"#utility.yul\":400:454   */\n  and\n    /* \"#utility.yul\":389:454   */\n  swap1\n  pop\n    /* \"#utility.yul\":334:460   */\n  swap2\n  swap1\n  pop\n  jump\t// out\n    /* \"#utility.yul\":466:562   */\ntag_27:\n    /* \"#utility.yul\":503:510   */\n  0x00\n    /* \"#utility.yul\":532:556   */\n  tag_42\n    /* \"#utility.yul\":550:555   */\n  dup3\n    /* \"#utility.yul\":532:556   */\n  tag_26\n  jump\t// in\ntag_42:\n    /* \"#utility.yul\":521:556   */\n  swap1\n  pop\n    /* \"#utility.yul\":466:562   */\n  swap2\n  swap1\n  pop\n  jump\t// out\n    /* \"#utility.yul\":568:690   */\ntag_28:\n    /* \"#utility.yul\":641:665   */\n  tag_44\n    /* \"#utility.yul\":659:664   */\n  dup2\n    /* \"#utility.yul\":641:665   */\n  tag_27\n  jump\t// in\ntag_44:\n    /* \"#utility.yul\":634:639   */\n  dup2\n    /* \"#utility.yul\":631:666   */\n  eq\n    /* \"#utility.yul\":621:684   */\n  tag_45\n  jumpi\n    /* \"#utility.yul\":680:681   */\n  0x00\n    /* \"#utility.yul\":677:678   */\n  dup1\n    /* \"#utility.yul\":670:682   */\n  revert\n    /* \"#utility.yul\":621:684   */\ntag_45:\n    /* \"#utility.yul\":568:690   */\n  pop\n  jump\t// out\n    /* \"#utility.yul\":696:839   */\ntag_29:\n    /* \"#utility.yul\":753:758   */\n  0x00\n    /* \"#utility.yul\":784:790   */\n  dup2\n    /* \"#utility.yul\":778:791   */\n  mload\n    /* \"#utility.yul\":769:791   */\n  swap1\n  pop\n    /* \"#utility.yul\":800:833   */\n  tag_47\n    /* \"#utility.yul\":827:832   */\n  dup2\n    /* \"#utility.yul\":800:833   */\n  tag_28\n  jump\t// in\ntag_47:\n    /* \"#utility.yul\":696:839   */\n  swap3\n  swap2\n  pop\n  pop\n  jump\t// out\n    /* \"#utility.yul\":845:1352   */\ntag_3:\n    /* \"#utility.yul\":924:930   */\n  0x00\n    /* \"#utility.yul\":932:938   */\n  dup1\n    /* \"#utility.yul\":981:983   */\n  0x40\n    /* \"#utility.yul\":969:978   */\n  dup4\n    /* \"#utility.yul\":960:967   */\n  dup6\n    /* \"#utility.yul\":956:979   */\n  sub\n    /* \"#utility.yul\":952:984   */\n  slt\n    /* \"#utility.yul\":949:1068   */\n  iszero\n  tag_49\n  jumpi\n    /* \"#utility.yul\":987:1066   */\n  tag_50\n  tag_24\n  jump\t// in\ntag_50:\n    /* \"#utility.yul\":949:1068   */\ntag_49:\n    /* \"#utility.yul\":1107:1108   */\n  0x00\n    /* \"#utility.yul\":1132:1196   */\n  tag_51\n    /* \"#utility.yul\":1188:1195   */\n  dup6\n    /* \"#utility.yul\":1179:1185   */\n  dup3\n    /* \"#utility.yul\":1168:1177   */\n  dup7\n    /* \"#utility.yul\":1164:1186   */\n  add\n    /* \"#utility.yul\":1132:1196   */\n  tag_29\n  jump\t// in\ntag_51:\n    /* \"#utility.yul\":1122:1196   */\n  swap3\n  pop\n    /* \"#utility.yul\":1078:1206   */\n  pop\n    /* \"#utility.yul\":1245:1247   */\n  0x20\n    /* \"#utility.yul\":1271:1335   */\n  tag_52\n    /* \"#utility.yul\":1327:1334   */\n  dup6\n    /* \"#utility.yul\":1318:1324   */\n  dup3\n    /* \"#utility.yul\":1307:1316   */\n  dup7\n    /* \"#utility.yul\":1303:1325   */\n  add\n    /* \"#utility.yul\":1271:1335   */\n  tag_29\n  jump\t// in\ntag_52:\n    /* \"#utility.yul\":1261:1335   */\n  swap2\n  pop\n    /* \"#utility.yul\":1216:1345   */\n  pop\n    /* \"#utility.yul\":845:1352   */\n  swap3\n  pop\n  swap3\n  swap1\n  pop\n  jump\t// out\n    /* \"#utility.yul\":1358:1476   */\ntag_30:\n    /* \"#utility.yul\":1445:1469   */\n  tag_54\n    /* \"#utility.yul\":1463:1468   */\n  dup2\n    /* \"#utility.yul\":1445:1469   */\n  tag_27\n  jump\t// in\ntag_54:\n    /* \"#utility.yul\":1440:1443   */\n  dup3\n    /* \"#utility.yul\":1433:1470   */\n  mstore\n    /* \"#utility.yul\":1358:1476   */\n  pop\n  pop\n  jump\t// out\n    /* \"#utility.yul\":1482:1704   */\ntag_10:\n    /* \"#utility.yul\":1575:1579   */\n  0x00\n    /* \"#utility.yul\":1613:1615   */\n  0x20\n    /* \"#utility.yul\":1602:1611   */\n  dup3\n    /* \"#utility.yul\":1598:1616   */\n  add\n    /* \"#utility.yul\":1590:1616   */\n  swap1\n  pop\n    /* \"#utility.yul\":1626:1697   */\n  tag_56\n    /* \"#utility.yul\":1694:1695   */\n  0x00\n    /* \"#utility.yul\":1683:1692   */\n  dup4\n    /* \"#utility.yul\":1679:1696   */\n  add\n    /* \"#utility.yul\":1670:1676   */\n  dup5\n    /* \"#utility.yul\":1626:1697   */\n  tag_30\n  jump\t// in\ntag_56:\n    /* \"#utility.yul\":1482:1704   */\n  swap3\n  swap2\n  pop\n  pop\n  jump\t// out\n    /* \"#utility.yul\":1710:1879   */\ntag_31:\n    /* \"#utility.yul\":1794:1805   */\n  0x00\n    /* \"#utility.yul\":1828:1834   */\n  dup3\n    /* \"#utility.yul\":1823:1826   */\n  dup3\n    /* \"#utility.yul\":1816:1835   */\n  mstore\n    /* \"#utility.yul\":1868:1872   */\n  0x20\n    /* \"#utility.yul\":1863:1866   */\n  dup3\n    /* \"#utility.yul\":1859:1873   */\n  add\n    /* \"#utility.yul\":1844:1873   */\n  swap1\n  pop\n    /* \"#utility.yul\":1710:1879   */\n  swap3\n  swap2\n  pop\n  pop\n  jump\t// out\n    /* \"#utility.yul\":1885:2048   */\ntag_32:\n    /* \"#utility.yul\":2025:2040   */\n  0x496e76616c696420746f6b656e00000000000000000000000000000000000000\n    /* \"#utility.yul\":2021:2022   */\n  0x00\n    /* \"#utility.yul\":2013:2019   */\n  dup3\n    /* \"#utility.yul\":2009:2023   */\n  add\n    /* \"#utility.yul\":2002:2041   */\n  mstore\n    /* \"#utility.yul\":1885:2048   */\n  pop\n  jump\t// out\n    /* \"#utility.yul\":2054:2420   */\ntag_33:\n    /* \"#utility.yul\":2196:2199   */\n  0x00\n    /* \"#utility.yul\":2217:2284   */\n  tag_60\n    /* \"#utility.yul\":2281:2283   */\n  0x0d\n    /* \"#utility.yul\":2276:2279   */\n  dup4\n    /* \"#utility.yul\":2217:2284   */\n  tag_31\n  jump\t// in\ntag_60:\n    /* \"#utility.yul\":2210:2284   */\n  swap2\n  pop\n    /* \"#utility.yul\":2293:2386   */\n  tag_61\n    /* \"#utility.yul\":2382:2385   */\n  dup3\n    /* \"#utility.yul\":2293:2386   */\n  tag_32\n  jump\t// in\ntag_61:\n    /* \"#utility.yul\":2411:2413   */\n  0x20\n    /* \"#utility.yul\":2406:2409   */\n  dup3\n    /* \"#utility.yul\":2402:2414   */\n  add\n    /* \"#utility.yul\":2395:2414   */\n  swap1\n  pop\n    /* \"#utility.yul\":2054:2420   */\n  swap2\n  swap1\n  pop\n  jump\t// out\n    /* \"#utility.yul\":2426:2845   */\ntag_17:\n    /* \"#utility.yul\":2592:2596   */\n  0x00\n    /* \"#utility.yul\":2630:2632   */\n  0x20\n    /* \"#utility.yul\":2619:2628   */\n  dup3\n    /* \"#utility.yul\":2615:2633   */\n  add\n    /* \"#utility.yul\":2607:2633   */\n  swap1\n  pop\n    /* \"#utility.yul\":2679:2688   */\n  dup2\n    /* \"#utility.yul\":2673:2677   */\n  dup2\n    /* \"#utility.yul\":2669:2689   */\n  sub\n    /* \"#utility.yul\":2665:2666   */\n  0x00\n    /* \"#utility.yul\":2654:2663   */\n  dup4\n    /* \"#utility.yul\":2650:2667   */\n  add\n    /* \"#utility.yul\":2643:2690   */\n  mstore\n    /* \"#utility.yul\":2707:2838   */\n  tag_63\n    /* \"#utility.yul\":2833:2837   */\n  dup2\n    /* \"#utility.yul\":2707:2838   */\n  tag_33\n  jump\t// in\ntag_63:\n    /* \"#utility.yul\":2699:2838   */\n  swap1\n  pop\n    /* \"#utility.yul\":2426:2845   */\n  swap2\n  swap1\n  pop\n  jump\t// out\n    /* \"#utility.yul\":2851:3014   */\ntag_34:\n    /* \"#utility.yul\":2991:3006   */\n  0x496e76616c6964206f776e657200000000000000000000000000000000000000\n    /* \"#utility.yul\":2987:2988   */\n  0x00\n    /* \"#utility.yul\":2979:2985   */\n  dup3\n    /* \"#utility.yul\":2975:2989   */\n  add\n    /* \"#utility.yul\":2968:3007   */\n  mstore\n    /* \"#utility.yul\":2851:3014   */\n  pop\n  jump\t// out\n    /* \"#utility.yul\":3020:3386   */\ntag_35:\n    /* \"#utility.yul\":3162:3165   */\n  0x00\n    /* \"#utility.yul\":3183:3250   */\n  tag_66\n    /* \"#utility.yul\":3247:3249   */\n  0x0d\n    /* \"#utility.yul\":3242:3245   */\n  dup4\n    /* \"#utility.yul\":3183:3250   */\n  tag_31\n  jump\t// in\ntag_66:\n    /* \"#utility.yul\":3176:3250   */\n  swap2\n  pop\n    /* \"#utility.yul\":3259:3352   */\n  tag_67\n    /* \"#utility.yul\":3348:3351   */\n  dup3\n    /* \"#utility.yul\":3259:3352   */\n  tag_34\n  jump\t// in\ntag_67:\n    /* \"#utility.yul\":3377:3379   */\n  0x20\n    /* \"#utility.yul\":3372:3375   */\n  dup3\n    /* \"#utility.yul\":3368:3380   */\n  add\n    /* \"#utility.yul\":3361:3380   */\n  swap1\n  pop\n    /* \"#utility.yul\":3020:3386   */\n  swap2\n  swap1\n  pop\n  jump\t// out\n    /* \"#utility.yul\":3392:3811   */\ntag_20:\n    /* \"#utility.yul\":3558:3562   */\n  0x00\n    /* \"#utility.yul\":3596:3598   */\n  0x20\n    /* \"#utility.yul\":3585:3594   */\n  dup3\n    /* \"#utility.yul\":3581:3599   */\n  add\n    /* \"#utility.yul\":3573:3599   */\n  swap1\n  pop\n    /* \"#utility.yul\":3645:3654   */\n  dup2\n    /* \"#utility.yul\":3639:3643   */\n  dup2\n    /* \"#utility.yul\":3635:3655   */\n  sub\n    /* \"#utility.yul\":3631:3632   */\n  0x00\n    /* \"#utility.yul\":3620:3629   */\n  dup4\n    /* \"#utility.yul\":3616:3633   */\n  add\n    /* \"#utility.yul\":3609:3656   */\n  mstore\n    /* \"#utility.yul\":3673:3804   */\n  tag_69\n    /* \"#utility.yul\":3799:3803   */\n  dup2\n    /* \"#utility.yul\":3673:3804   */\n  tag_35\n  jump\t// in\ntag_69:\n    /* \"#utility.yul\":3665:3804   */\n  swap1\n  pop\n    /* \"#utility.yul\":3392:3811   */\n  swap2\n  swap1\n  pop\n  jump\t// out\n    /* \"contracts/TrustVault.sol\":565:5657  contract TrustVault is Ownable, ReentrancyGuard {... */\ntag_21:\n  mload(0x80)\n  codecopy(0x00, dataOffset(sub_0), dataSize(sub_0))\n  0x00\n  assignImmutable(\"0x523002c9adf4540d1913fbcc02308745afe7fe46bf4736ab566dafa3acaa32ea\")\n  return(0x00, dataSize(sub_0))\nstop\n\nsub_0: assembly {\n        /* \"contracts/TrustVault.sol\":565:5657  contract TrustVault is Ownable, ReentrancyGuard {... */\n      mstore(0x40, 0x80)\n      callvalue\n      dup1\n      iszero\n      tag_1\n      jumpi\n      0x00\n      dup1\n      revert\n    tag_1:\n      pop\n      jumpi(tag_2, lt(calldatasize, 0x04))\n      shr(0xe0, calldataload(0x00))\n      dup1\n      0x715018a6\n      gt\n      tag_16\n      jumpi\n      dup1\n      0x8da5cb5b\n      gt\n      tag_17\n      jumpi\n      dup1\n      0x8da5cb5b\n      eq\n      tag_12\n      jumpi\n      dup1\n      0xdb2e21bc\n      eq\n      tag_13\n      jumpi\n      dup1\n      0xf2fde38b\n      eq\n      tag_14\n      jumpi\n      dup1\n      0xf7c618c1\n      eq\n      tag_15\n      jumpi\n      jump(tag_2)\n    tag_17:\n      dup1\n      0x715018a6\n      eq\n      tag_9\n      jumpi\n      dup1\n      0x74e5407d\n      eq\n      tag_10\n      jumpi\n      dup1\n      0x82b2e257\n      eq\n      tag_11\n      jumpi\n      jump(tag_2)\n    tag_16:\n      dup1\n      0x0eb9af38\n      eq\n      tag_3\n      jumpi\n      dup1\n      0x1e2720ff\n      eq\n      tag_4\n      jumpi\n      dup1\n      0x2494d8b5\n      eq\n      tag_5\n      jumpi\n      dup1\n      0x25bf67a0\n      eq\n      tag_6\n      jumpi\n      dup1\n      0x2958d031\n      eq\n      tag_7\n      jumpi\n      dup1\n      0x2e1a7d4d\n      eq\n      tag_8\n      jumpi\n    tag_2:\n      0x00\n      dup1\n      revert\n        /* \"contracts/TrustVault.sol\":5055:5517  function getVault(address user) external view returns (... */\n    tag_3:\n      tag_18\n      0x04\n      dup1\n      calldatasize\n      sub\n      dup2\n      add\n      swap1\n      tag_19\n      swap2\n      swap1\n      tag_20\n      jump\t// in\n    tag_19:\n      tag_21\n      jump\t// in\n    tag_18:\n      mload(0x40)\n      tag_22\n      swap6\n      swap5\n      swap4\n      swap3\n      swap2\n      swap1\n      tag_23\n      jump\t// in\n    tag_22:\n      mload(0x40)\n      dup1\n      swap2\n      sub\n      swap1\n      return\n        /* \"contracts/TrustVault.sol\":2385:2843  function depositReward(uint256 amount) external onlyOwner nonReentrant {... */\n    tag_4:\n      tag_24\n      0x04\n      dup1\n      calldatasize\n      sub\n      dup2\n      add\n      swap1\n      tag_25\n      swap2\n      swap1\n      tag_26\n      jump\t// in\n    tag_25:\n      tag_27\n      jump\t// in\n    tag_24:\n      stop\n        /* \"contracts/TrustVault.sol\":4519:4693  function setLockUntil(uint256 timestamp) external onlyOwner {... */\n    tag_5:\n      tag_28\n      0x04\n      dup1\n      calldatasize\n      sub\n      dup2\n      add\n      swap1\n      tag_29\n      swap2\n      swap1\n      tag_26\n      jump\t// in\n    tag_29:\n      tag_30\n      jump\t// in\n    tag_28:\n      stop\n        /* \"contracts/TrustVault.sol\":4701:4881  function setMonthlyRelease(uint256 amount) external onlyOwner {... */\n    tag_6:\n      tag_31\n      0x04\n      dup1\n      calldatasize\n      sub\n      dup2\n      add\n      swap1\n      tag_32\n      swap2\n      swap1\n      tag_26\n      jump\t// in\n    tag_32:\n      tag_33\n      jump\t// in\n    tag_31:\n      stop\n        /* \"contracts/TrustVault.sol\":1544:1587  mapping(address => Vault) public userVaults */\n    tag_7:\n      tag_34\n      0x04\n      dup1\n      calldatasize\n      sub\n      dup2\n      add\n      swap1\n      tag_35\n      swap2\n      swap1\n      tag_20\n      jump\t// in\n    tag_35:\n      tag_36\n      jump\t// in\n    tag_34:\n      mload(0x40)\n      tag_37\n      swap6\n      swap5\n      swap4\n      swap3\n      swap2\n      swap1\n      tag_23\n      jump\t// in\n    tag_37:\n      mload(0x40)\n      dup1\n      swap2\n      sub\n      swap1\n      return\n        /* \"contracts/TrustVault.sol\":2947:3895  function withdraw(uint256 amount) external nonReentrant {... */\n    tag_8:\n      tag_38\n      0x04\n      dup1\n      calldatasize\n      sub\n      dup2\n      add\n      swap1\n      tag_39\n      swap2\n      swap1\n      tag_26\n      jump\t// in\n    tag_39:\n      tag_40\n      jump\t// in\n    tag_38:\n      stop\n        /* \"@openzeppelin/contracts/access/Ownable.sol\":2293:2394  function renounceOwnership() public virtual onlyOwner {... */\n    tag_9:\n      tag_41\n      tag_42\n      jump\t// in\n    tag_41:\n      stop\n        /* \"contracts/TrustVault.sol\":4889:5010  function enableEmergencyWithdrawal() external onlyOwner {... */\n    tag_10:\n      tag_43\n      tag_44\n      jump\t// in\n    tag_43:\n      stop\n        /* \"contracts/TrustVault.sol\":5525:5654  function getTokenBalance() external view returns (uint256) {... */\n    tag_11:\n      tag_45\n      tag_46\n      jump\t// in\n    tag_45:\n      mload(0x40)\n      tag_47\n      swap2\n      swap1\n      tag_48\n      jump\t// in\n    tag_47:\n      mload(0x40)\n      dup1\n      swap2\n      sub\n      swap1\n      return\n        /* \"@openzeppelin/contracts/access/Ownable.sol\":1638:1723  function owner() public view virtual returns (address) {... */\n    tag_12:\n      tag_49\n      tag_50\n      jump\t// in\n    tag_49:\n      mload(0x40)\n      tag_51\n      swap2\n      swap1\n      tag_52\n      jump\t// in\n    tag_51:\n      mload(0x40)\n      dup1\n      swap2\n      sub\n      swap1\n      return\n        /* \"contracts/TrustVault.sol\":4011:4462  function emergencyWithdraw() external onlyIfEmergencyEnabled nonReentrant {... */\n    tag_13:\n      tag_53\n      tag_54\n      jump\t// in\n    tag_53:\n      stop\n        /* \"@openzeppelin/contracts/access/Ownable.sol\":2543:2758  function transferOwnership(address newOwner) public virtual onlyOwner {... */\n    tag_14:\n      tag_55\n      0x04\n      dup1\n      calldatasize\n      sub\n      dup2\n      add\n      swap1\n      tag_56\n      swap2\n      swap1\n      tag_20\n      jump\t// in\n    tag_56:\n      tag_57\n      jump\t// in\n    tag_55:\n      stop\n        /* \"contracts/TrustVault.sol\":1594:1630  address public immutable rewardToken */\n    tag_15:\n      tag_58\n      tag_59\n      jump\t// in\n    tag_58:\n      mload(0x40)\n      tag_60\n      swap2\n      swap1\n      tag_52\n      jump\t// in\n    tag_60:\n      mload(0x40)\n      dup1\n      swap2\n      sub\n      swap1\n      return\n        /* \"contracts/TrustVault.sol\":5055:5517  function getVault(address user) external view returns (... */\n    tag_21:\n        /* \"contracts/TrustVault.sol\":5120:5142  uint256 totalDeposited */\n      0x00\n        /* \"contracts/TrustVault.sol\":5153:5170  uint256 lockUntil */\n      dup1\n        /* \"contracts/TrustVault.sol\":5181:5203  uint256 monthlyRelease */\n      0x00\n        /* \"contracts/TrustVault.sol\":5214:5240  uint256 lastWithdrawalTime */\n      dup1\n        /* \"contracts/TrustVault.sol\":5251:5272  bool emergencyEnabled */\n      0x00\n        /* \"contracts/TrustVault.sol\":5291:5305  Vault memory v */\n      dup1\n        /* \"contracts/TrustVault.sol\":5308:5318  userVaults */\n      0x02\n        /* \"contracts/TrustVault.sol\":5308:5324  userVaults[user] */\n      0x00\n        /* \"contracts/TrustVault.sol\":5319:5323  user */\n      dup9\n        /* \"contracts/TrustVault.sol\":5308:5324  userVaults[user] */\n      0xffffffffffffffffffffffffffffffffffffffff\n      and\n      0xffffffffffffffffffffffffffffffffffffffff\n      and\n      dup2\n      mstore\n      0x20\n      add\n      swap1\n      dup2\n      mstore\n      0x20\n      add\n      0x00\n      keccak256\n        /* \"contracts/TrustVault.sol\":5291:5324  Vault memory v = userVaults[user] */\n      mload(0x40)\n      dup1\n      0xa0\n      add\n      0x40\n      mstore\n      swap1\n      dup2\n      0x00\n      dup3\n      add\n      sload\n      dup2\n      mstore\n      0x20\n      add\n      0x01\n      dup3\n      add\n      sload\n      dup2\n      mstore\n      0x20\n      add\n      0x02\n      dup3\n      add\n      sload\n      dup2\n      mstore\n      0x20\n      add\n      0x03\n      dup3\n      add\n      sload\n      dup2\n      mstore\n      0x20\n      add\n      0x04\n      dup3\n      add\n      0x00\n      swap1\n      sload\n      swap1\n      0x0100\n      exp\n      swap1\n      div\n      0xff\n      and\n      iszero\n      iszero\n      iszero\n      iszero\n      dup2\n      mstore\n      pop\n      pop\n      swap1\n      pop\n        /* \"contracts/TrustVault.sol\":5357:5358  v */\n      dup1\n        /* \"contracts/TrustVault.sol\":5357:5373  v.totalDeposited */\n      0x00\n      add\n      mload\n        /* \"contracts/TrustVault.sol\":5388:5389  v */\n      dup2\n        /* \"contracts/TrustVault.sol\":5388:5399  v.lockUntil */\n      0x20\n      add\n      mload\n        /* \"contracts/TrustVault.sol\":5414:5415  v */\n      dup3\n        /* \"contracts/TrustVault.sol\":5414:5430  v.monthlyRelease */\n      0x40\n      add\n      mload\n        /* \"contracts/TrustVault.sol\":5445:5446  v */\n      dup4\n        /* \"contracts/TrustVault.sol\":5445:5465  v.lastWithdrawalTime */\n      0x60\n      add\n      mload\n        /* \"contracts/TrustVault.sol\":5480:5481  v */\n      dup5\n        /* \"contracts/TrustVault.sol\":5480:5498  v.emergencyEnabled */\n      0x80\n      add\n      mload\n        /* \"contracts/TrustVault.sol\":5335:5509  return (... */\n      swap6\n      pop\n      swap6\n      pop\n      swap6\n      pop\n      swap6\n      pop\n      swap6\n      pop\n      pop\n        /* \"contracts/TrustVault.sol\":5055:5517  function getVault(address user) external view returns (... */\n      swap2\n      swap4\n      swap6\n      swap1\n      swap3\n      swap5\n      pop\n      jump\t// out\n        /* \"contracts/TrustVault.sol\":2385:2843  function depositReward(uint256 amount) external onlyOwner nonReentrant {... */\n    tag_27:\n        /* \"@openzeppelin/contracts/access/Ownable.sol\":1531:1544  _checkOwner() */\n      tag_63\n        /* \"@openzeppelin/contracts/access/Ownable.sol\":1531:1542  _checkOwner */\n      tag_64\n        /* \"@openzeppelin/contracts/access/Ownable.sol\":1531:1544  _checkOwner() */\n      jump\t// in\n    tag_63:\n        /* \"@openzeppelin/contracts/security/ReentrancyGuard.sol\":2261:2282  _nonReentrantBefore() */\n      tag_66\n        /* \"@openzeppelin/contracts/security/ReentrancyGuard.sol\":2261:2280  _nonReentrantBefore */\n      tag_67\n        /* \"@openzeppelin/contracts/security/ReentrancyGuard.sol\":2261:2282  _nonReentrantBefore() */\n      jump\t// in\n    tag_66:\n        /* \"contracts/TrustVault.sol\":2484:2485  0 */\n      0x00\n        /* \"contracts/TrustVault.sol\":2475:2481  amount */\n      dup2\n        /* \"contracts/TrustVault.sol\":2475:2485  amount > 0 */\n      gt\n        /* \"contracts/TrustVault.sol\":2467:2508  require(amount > 0, \"Amount must be > 0\") */\n      tag_69\n      jumpi\n      mload(0x40)\n      0x08c379a000000000000000000000000000000000000000000000000000000000\n      dup2\n      mstore\n      0x04\n      add\n      tag_70\n      swap1\n      tag_71\n      jump\t// in\n    tag_70:\n      mload(0x40)\n      dup1\n      swap2\n      sub\n      swap1\n      revert\n    tag_69:\n        /* \"contracts/TrustVault.sol\":2521:2540  Vault storage vault */\n      0x00\n        /* \"contracts/TrustVault.sol\":2543:2553  userVaults */\n      0x02\n        /* \"contracts/TrustVault.sol\":2543:2565  userVaults[msg.sender] */\n      0x00\n        /* \"contracts/TrustVault.sol\":2554:2564  msg.sender */\n      caller\n        /* \"contracts/TrustVault.sol\":2543:2565  userVaults[msg.sender] */\n      0xffffffffffffffffffffffffffffffffffffffff\n      and\n      0xffffffffffffffffffffffffffffffffffffffff\n      and\n      dup2\n      mstore\n      0x20\n      add\n      swap1\n      dup2\n      mstore\n      0x20\n      add\n      0x00\n      keccak256\n        /* \"contracts/TrustVault.sol\":2521:2565  Vault storage vault = userVaults[msg.sender] */\n      swap1\n      pop\n        /* \"contracts/TrustVault.sol\":2600:2606  amount */\n      dup2\n        /* \"contracts/TrustVault.sol\":2576:2581  vault */\n      dup2\n        /* \"contracts/TrustVault.sol\":2576:2596  vault.totalDeposited */\n      0x00\n      add\n      0x00\n        /* \"contracts/TrustVault.sol\":2576:2606  vault.totalDeposited += amount */\n      dup3\n      dup3\n      sload\n      tag_72\n      swap2\n      swap1\n      tag_73\n      jump\t// in\n    tag_72:\n      swap3\n      pop\n      pop\n      dup2\n      swap1\n      sstore\n      pop\n        /* \"contracts/TrustVault.sol\":2706:2777  IERC20(rewardToken).safeTransferFrom(msg.sender, address(this), amount) */\n      tag_74\n        /* \"contracts/TrustVault.sol\":2743:2753  msg.sender */\n      caller\n        /* \"contracts/TrustVault.sol\":2763:2767  this */\n      address\n        /* \"contracts/TrustVault.sol\":2770:2776  amount */\n      dup5\n        /* \"contracts/TrustVault.sol\":2713:2724  rewardToken */\n      immutable(\"0x523002c9adf4540d1913fbcc02308745afe7fe46bf4736ab566dafa3acaa32ea\")\n        /* \"contracts/TrustVault.sol\":2706:2742  IERC20(rewardToken).safeTransferFrom */\n      0xffffffffffffffffffffffffffffffffffffffff\n      and\n      tag_75\n      swap1\n        /* \"contracts/TrustVault.sol\":2706:2777  IERC20(rewardToken).safeTransferFrom(msg.sender, address(this), amount) */\n      swap4\n      swap3\n      swap2\n      swap1\n      0xffffffff\n      and\n      jump\t// in\n    tag_74:\n        /* \"contracts/TrustVault.sol\":2815:2826  rewardToken */\n      immutable(\"0x523002c9adf4540d1913fbcc02308745afe7fe46bf4736ab566dafa3acaa32ea\")\n        /* \"contracts/TrustVault.sol\":2795:2835  Deposit(msg.sender, rewardToken, amount) */\n      0xffffffffffffffffffffffffffffffffffffffff\n      and\n        /* \"contracts/TrustVault.sol\":2803:2813  msg.sender */\n      caller\n        /* \"contracts/TrustVault.sol\":2795:2835  Deposit(msg.sender, rewardToken, amount) */\n      0xffffffffffffffffffffffffffffffffffffffff\n      and\n      0x5548c837ab068cf56a2c2479df0882a4922fd203edb7517321831d95078c5f62\n        /* \"contracts/TrustVault.sol\":2828:2834  amount */\n      dup5\n        /* \"contracts/TrustVault.sol\":2795:2835  Deposit(msg.sender, rewardToken, amount) */\n      mload(0x40)\n      tag_76\n      swap2\n      swap1\n      tag_48\n      jump\t// in\n    tag_76:\n      mload(0x40)\n      dup1\n      swap2\n      sub\n      swap1\n      log3\n        /* \"contracts/TrustVault.sol\":2456:2843  {... */\n      pop\n        /* \"@openzeppelin/contracts/security/ReentrancyGuard.sol\":2303:2323  _nonReentrantAfter() */\n      tag_77\n        /* \"@openzeppelin/contracts/security/ReentrancyGuard.sol\":2303:2321  _nonReentrantAfter */\n      tag_78\n        /* \"@openzeppelin/contracts/security/ReentrancyGuard.sol\":2303:2323  _nonReentrantAfter() */\n      jump\t// in\n    tag_77:\n        /* \"contracts/TrustVault.sol\":2385:2843  function depositReward(uint256 amount) external onlyOwner nonReentrant {... */\n      pop\n      jump\t// out\n        /* \"contracts/TrustVault.sol\":4519:4693  function setLockUntil(uint256 timestamp) external onlyOwner {... */\n    tag_30:\n        /* \"@openzeppelin/contracts/access/Ownable.sol\":1531:1544  _checkOwner() */\n      tag_80\n        /* \"@openzeppelin/contracts/access/Ownable.sol\":1531:1542  _checkOwner */\n      tag_64\n        /* \"@openzeppelin/contracts/access/Ownable.sol\":1531:1544  _checkOwner() */\n      jump\t// in\n    tag_80:\n        /* \"contracts/TrustVault.sol\":4625:4634  timestamp */\n      dup1\n        /* \"contracts/TrustVault.sol\":4590:4600  userVaults */\n      0x02\n        /* \"contracts/TrustVault.sol\":4590:4612  userVaults[msg.sender] */\n      0x00\n        /* \"contracts/TrustVault.sol\":4601:4611  msg.sender */\n      caller\n        /* \"contracts/TrustVault.sol\":4590:4612  userVaults[msg.sender] */\n      0xffffffffffffffffffffffffffffffffffffffff\n      and\n      0xffffffffffffffffffffffffffffffffffffffff\n      and\n      dup2\n      mstore\n      0x20\n      add\n      swap1\n      dup2\n      mstore\n      0x20\n      add\n      0x00\n      keccak256\n        /* \"contracts/TrustVault.sol\":4590:4622  userVaults[msg.sender].lockUntil */\n      0x01\n      add\n        /* \"contracts/TrustVault.sol\":4590:4634  userVaults[msg.sender].lockUntil = timestamp */\n      dup2\n      swap1\n      sstore\n      pop\n        /* \"contracts/TrustVault.sol\":4663:4673  msg.sender */\n      caller\n        /* \"contracts/TrustVault.sol\":4650:4685  LockUntilSet(msg.sender, timestamp) */\n      0xffffffffffffffffffffffffffffffffffffffff\n      and\n      0x3e5fe77580a0a08bdd2fee5ab0afd5488f02bcabb60484a348313c3e8a96dd6e\n        /* \"contracts/TrustVault.sol\":4675:4684  timestamp */\n      dup3\n        /* \"contracts/TrustVault.sol\":4650:4685  LockUntilSet(msg.sender, timestamp) */\n      mload(0x40)\n      tag_82\n      swap2\n      swap1\n      tag_48\n      jump\t// in\n    tag_82:\n      mload(0x40)\n      dup1\n      swap2\n      sub\n      swap1\n      log2\n        /* \"contracts/TrustVault.sol\":4519:4693  function setLockUntil(uint256 timestamp) external onlyOwner {... */\n      pop\n      jump\t// out\n        /* \"contracts/TrustVault.sol\":4701:4881  function setMonthlyRelease(uint256 amount) external onlyOwner {... */\n    tag_33:\n        /* \"@openzeppelin/contracts/access/Ownable.sol\":1531:1544  _checkOwner() */\n      tag_84\n        /* \"@openzeppelin/contracts/access/Ownable.sol\":1531:1542  _checkOwner */\n      tag_64\n        /* \"@openzeppelin/contracts/access/Ownable.sol\":1531:1544  _checkOwner() */\n      jump\t// in\n    tag_84:\n        /* \"contracts/TrustVault.sol\":4814:4820  amount */\n      dup1\n        /* \"contracts/TrustVault.sol\":4774:4784  userVaults */\n      0x02\n        /* \"contracts/TrustVault.sol\":4774:4796  userVaults[msg.sender] */\n      0x00\n        /* \"contracts/TrustVault.sol\":4785:4795  msg.sender */\n      caller\n        /* \"contracts/TrustVault.sol\":4774:4796  userVaults[msg.sender] */\n      0xffffffffffffffffffffffffffffffffffffffff\n      and\n      0xffffffffffffffffffffffffffffffffffffffff\n      and\n      dup2\n      mstore\n      0x20\n      add\n      swap1\n      dup2\n      mstore\n      0x20\n      add\n      0x00\n      keccak256\n        /* \"contracts/TrustVault.sol\":4774:4811  userVaults[msg.sender].monthlyRelease */\n      0x02\n      add\n        /* \"contracts/TrustVault.sol\":4774:4820  userVaults[msg.sender].monthlyRelease = amount */\n      dup2\n      swap1\n      sstore\n      pop\n        /* \"contracts/TrustVault.sol\":4854:4864  msg.sender */\n      caller\n        /* \"contracts/TrustVault.sol\":4836:4873  MonthlyReleaseSet(msg.sender, amount) */\n      0xffffffffffffffffffffffffffffffffffffffff\n      and\n      0x83966b9130cd03be7ce0d6a0210f59b51ed9b5c473202a8e381a48b384804b71\n        /* \"contracts/TrustVault.sol\":4866:4872  amount */\n      dup3\n        /* \"contracts/TrustVault.sol\":4836:4873  MonthlyReleaseSet(msg.sender, amount) */\n      mload(0x40)\n      tag_86\n      swap2\n      swap1\n      tag_48\n      jump\t// in\n    tag_86:\n      mload(0x40)\n      dup1\n      swap2\n      sub\n      swap1\n      log2\n        /* \"contracts/TrustVault.sol\":4701:4881  function setMonthlyRelease(uint256 amount) external onlyOwner {... */\n      pop\n      jump\t// out\n        /* \"contracts/TrustVault.sol\":1544:1587  mapping(address => Vault) public userVaults */\n    tag_36:\n      mstore(0x20, 0x02)\n      dup1\n      0x00\n      mstore\n      keccak256(0x00, 0x40)\n      0x00\n      swap2\n      pop\n      swap1\n      pop\n      dup1\n      0x00\n      add\n      sload\n      swap1\n      dup1\n      0x01\n      add\n      sload\n      swap1\n      dup1\n      0x02\n      add\n      sload\n      swap1\n      dup1\n      0x03\n      add\n      sload\n      swap1\n      dup1\n      0x04\n      add\n      0x00\n      swap1\n      sload\n      swap1\n      0x0100\n      exp\n      swap1\n      div\n      0xff\n      and\n      swap1\n      pop\n      dup6\n      jump\t// out\n        /* \"contracts/TrustVault.sol\":2947:3895  function withdraw(uint256 amount) external nonReentrant {... */\n    tag_40:\n        /* \"@openzeppelin/contracts/security/ReentrancyGuard.sol\":2261:2282  _nonReentrantBefore() */\n      tag_88\n        /* \"@openzeppelin/contracts/security/ReentrancyGuard.sol\":2261:2280  _nonReentrantBefore */\n      tag_67\n        /* \"@openzeppelin/contracts/security/ReentrancyGuard.sol\":2261:2282  _nonReentrantBefore() */\n      jump\t// in\n    tag_88:\n        /* \"contracts/TrustVault.sol\":3014:3033  Vault storage vault */\n      0x00\n        /* \"contracts/TrustVault.sol\":3036:3046  userVaults */\n      0x02\n        /* \"contracts/TrustVault.sol\":3036:3058  userVaults[msg.sender] */\n      0x00\n        /* \"contracts/TrustVault.sol\":3047:3057  msg.sender */\n      caller\n        /* \"contracts/TrustVault.sol\":3036:3058  userVaults[msg.sender] */\n      0xffffffffffffffffffffffffffffffffffffffff\n      and\n      0xffffffffffffffffffffffffffffffffffffffff\n      and\n      dup2\n      mstore\n      0x20\n      add\n      swap1\n      dup2\n      mstore\n      0x20\n      add\n      0x00\n      keccak256\n        /* \"contracts/TrustVault.sol\":3014:3058  Vault storage vault = userVaults[msg.sender] */\n      swap1\n      pop\n        /* \"contracts/TrustVault.sol\":3101:3107  amount */\n      dup2\n        /* \"contracts/TrustVault.sol\":3077:3082  vault */\n      dup2\n        /* \"contracts/TrustVault.sol\":3077:3097  vault.totalDeposited */\n      0x00\n      add\n      sload\n        /* \"contracts/TrustVault.sol\":3077:3107  vault.totalDeposited >= amount */\n      lt\n      iszero\n        /* \"contracts/TrustVault.sol\":3069:3132  require(vault.totalDeposited >= amount, \"Insufficient balance\") */\n      tag_90\n      jumpi\n      mload(0x40)\n      0x08c379a000000000000000000000000000000000000000000000000000000000\n      dup2\n      mstore\n      0x04\n      add\n      tag_91\n      swap1\n      tag_92\n      jump\t// in\n    tag_91:\n      mload(0x40)\n      dup1\n      swap2\n      sub\n      swap1\n      revert\n    tag_90:\n        /* \"contracts/TrustVault.sol\":3197:3202  vault */\n      dup1\n        /* \"contracts/TrustVault.sol\":3197:3212  vault.lockUntil */\n      0x01\n      add\n      sload\n        /* \"contracts/TrustVault.sol\":3179:3194  block.timestamp */\n      timestamp\n        /* \"contracts/TrustVault.sol\":3179:3212  block.timestamp < vault.lockUntil */\n      lt\n        /* \"contracts/TrustVault.sol\":3175:3622  if (block.timestamp < vault.lockUntil) {... */\n      iszero\n      tag_93\n      jumpi\n        /* \"contracts/TrustVault.sol\":3306:3311  vault */\n      dup1\n        /* \"contracts/TrustVault.sol\":3306:3326  vault.monthlyRelease */\n      0x02\n      add\n      sload\n        /* \"contracts/TrustVault.sol\":3296:3302  amount */\n      dup3\n        /* \"contracts/TrustVault.sol\":3296:3326  amount <= vault.monthlyRelease */\n      gt\n      iszero\n        /* \"contracts/TrustVault.sol\":3288:3360  require(amount <= vault.monthlyRelease, \"Exceeds monthly release limit\") */\n      tag_94\n      jumpi\n      mload(0x40)\n      0x08c379a000000000000000000000000000000000000000000000000000000000\n      dup2\n      mstore\n      0x04\n      add\n      tag_95\n      swap1\n      tag_96\n      jump\t// in\n    tag_95:\n      mload(0x40)\n      dup1\n      swap2\n      sub\n      swap1\n      revert\n    tag_94:\n        /* \"contracts/TrustVault.sol\":3418:3441  uint256 monthsSinceLast */\n      0x00\n        /* \"contracts/TrustVault.sol\":3491:3498  30 days */\n      0x278d00\n        /* \"contracts/TrustVault.sol\":3463:3468  vault */\n      dup3\n        /* \"contracts/TrustVault.sol\":3463:3487  vault.lastWithdrawalTime */\n      0x03\n      add\n      sload\n        /* \"contracts/TrustVault.sol\":3445:3460  block.timestamp */\n      timestamp\n        /* \"contracts/TrustVault.sol\":3445:3487  block.timestamp - vault.lastWithdrawalTime */\n      tag_97\n      swap2\n      swap1\n      tag_98\n      jump\t// in\n    tag_97:\n        /* \"contracts/TrustVault.sol\":3444:3498  (block.timestamp - vault.lastWithdrawalTime) / 30 days */\n      tag_99\n      swap2\n      swap1\n      tag_100\n      jump\t// in\n    tag_99:\n        /* \"contracts/TrustVault.sol\":3418:3498  uint256 monthsSinceLast = (block.timestamp - vault.lastWithdrawalTime) / 30 days */\n      swap1\n      pop\n        /* \"contracts/TrustVault.sol\":3536:3537  0 */\n      0x00\n        /* \"contracts/TrustVault.sol\":3517:3532  monthsSinceLast */\n      dup2\n        /* \"contracts/TrustVault.sol\":3517:3537  monthsSinceLast == 0 */\n      sub\n        /* \"contracts/TrustVault.sol\":3513:3611  if (monthsSinceLast == 0) {... */\n      tag_101\n      jumpi\n        /* \"contracts/TrustVault.sol\":3558:3595  revert(\"Already withdrew this month\") */\n      mload(0x40)\n      0x08c379a000000000000000000000000000000000000000000000000000000000\n      dup2\n      mstore\n      0x04\n      add\n      tag_102\n      swap1\n      tag_103\n      jump\t// in\n    tag_102:\n      mload(0x40)\n      dup1\n      swap2\n      sub\n      swap1\n      revert\n        /* \"contracts/TrustVault.sol\":3513:3611  if (monthsSinceLast == 0) {... */\n    tag_101:\n        /* \"contracts/TrustVault.sol\":3214:3622  {... */\n      pop\n        /* \"contracts/TrustVault.sol\":3175:3622  if (block.timestamp < vault.lockUntil) {... */\n    tag_93:\n        /* \"contracts/TrustVault.sol\":3683:3689  amount */\n      dup2\n        /* \"contracts/TrustVault.sol\":3659:3664  vault */\n      dup2\n        /* \"contracts/TrustVault.sol\":3659:3679  vault.totalDeposited */\n      0x00\n      add\n      0x00\n        /* \"contracts/TrustVault.sol\":3659:3689  vault.totalDeposited -= amount */\n      dup3\n      dup3\n      sload\n      tag_104\n      swap2\n      swap1\n      tag_98\n      jump\t// in\n    tag_104:\n      swap3\n      pop\n      pop\n      dup2\n      swap1\n      sstore\n      pop\n        /* \"contracts/TrustVault.sol\":3727:3742  block.timestamp */\n      timestamp\n        /* \"contracts/TrustVault.sol\":3700:3705  vault */\n      dup2\n        /* \"contracts/TrustVault.sol\":3700:3724  vault.lastWithdrawalTime */\n      0x03\n      add\n        /* \"contracts/TrustVault.sol\":3700:3742  vault.lastWithdrawalTime = block.timestamp */\n      dup2\n      swap1\n      sstore\n      pop\n        /* \"contracts/TrustVault.sol\":3787:3839  IERC20(rewardToken).safeTransfer(msg.sender, amount) */\n      tag_105\n        /* \"contracts/TrustVault.sol\":3820:3830  msg.sender */\n      caller\n        /* \"contracts/TrustVault.sol\":3832:3838  amount */\n      dup4\n        /* \"contracts/TrustVault.sol\":3794:3805  rewardToken */\n      immutable(\"0x523002c9adf4540d1913fbcc02308745afe7fe46bf4736ab566dafa3acaa32ea\")\n        /* \"contracts/TrustVault.sol\":3787:3819  IERC20(rewardToken).safeTransfer */\n      0xffffffffffffffffffffffffffffffffffffffff\n      and\n      tag_106\n      swap1\n        /* \"contracts/TrustVault.sol\":3787:3839  IERC20(rewardToken).safeTransfer(msg.sender, amount) */\n      swap3\n      swap2\n      swap1\n      0xffffffff\n      and\n      jump\t// in\n    tag_105:\n        /* \"contracts/TrustVault.sol\":3868:3878  msg.sender */\n      caller\n        /* \"contracts/TrustVault.sol\":3857:3887  Withdrawal(msg.sender, amount) */\n      0xffffffffffffffffffffffffffffffffffffffff\n      and\n      0x7fcf532c15f0a6db0bd6d0e038bea71d30d808c7d98cb3bf7268a95bf5081b65\n        /* \"contracts/TrustVault.sol\":3880:3886  amount */\n      dup4\n        /* \"contracts/TrustVault.sol\":3857:3887  Withdrawal(msg.sender, amount) */\n      mload(0x40)\n      tag_107\n      swap2\n      swap1\n      tag_48\n      jump\t// in\n    tag_107:\n      mload(0x40)\n      dup1\n      swap2\n      sub\n      swap1\n      log2\n        /* \"contracts/TrustVault.sol\":3003:3895  {... */\n      pop\n        /* \"@openzeppelin/contracts/security/ReentrancyGuard.sol\":2303:2323  _nonReentrantAfter() */\n      tag_108\n        /* \"@openzeppelin/contracts/security/ReentrancyGuard.sol\":2303:2321  _nonReentrantAfter */\n      tag_78\n        /* \"@openzeppelin/contracts/security/ReentrancyGuard.sol\":2303:2323  _nonReentrantAfter() */\n      jump\t// in\n    tag_108:\n        /* \"contracts/TrustVault.sol\":2947:3895  function withdraw(uint256 amount) external nonReentrant {... */\n      pop\n      jump\t// out\n        /* \"@openzeppelin/contracts/access/Ownable.sol\":2293:2394  function renounceOwnership() public virtual onlyOwner {... */\n    tag_42:\n        /* \"@openzeppelin/contracts/access/Ownable.sol\":1531:1544  _checkOwner() */\n      tag_110\n        /* \"@openzeppelin/contracts/access/Ownable.sol\":1531:1542  _checkOwner */\n      tag_64\n        /* \"@openzeppelin/contracts/access/Ownable.sol\":1531:1544  _checkOwner() */\n      jump\t// in\n    tag_110:\n        /* \"@openzeppelin/contracts/access/Ownable.sol\":2357:2387  _transferOwnership(address(0)) */\n      tag_112\n        /* \"@openzeppelin/contracts/access/Ownable.sol\":2384:2385  0 */\n      0x00\n        /* \"@openzeppelin/contracts/access/Ownable.sol\":2357:2375  _transferOwnership */\n      tag_113\n        /* \"@openzeppelin/contracts/access/Ownable.sol\":2357:2387  _transferOwnership(address(0)) */\n      jump\t// in\n    tag_112:\n        /* \"@openzeppelin/contracts/access/Ownable.sol\":2293:2394  function renounceOwnership() public virtual onlyOwner {... */\n      jump\t// out\n        /* \"contracts/TrustVault.sol\":4889:5010  function enableEmergencyWithdrawal() external onlyOwner {... */\n    tag_44:\n        /* \"@openzeppelin/contracts/access/Ownable.sol\":1531:1544  _checkOwner() */\n      tag_115\n        /* \"@openzeppelin/contracts/access/Ownable.sol\":1531:1542  _checkOwner */\n      tag_64\n        /* \"@openzeppelin/contracts/access/Ownable.sol\":1531:1544  _checkOwner() */\n      jump\t// in\n    tag_115:\n        /* \"contracts/TrustVault.sol\":4998:5002  true */\n      0x01\n        /* \"contracts/TrustVault.sol\":4956:4966  userVaults */\n      0x02\n        /* \"contracts/TrustVault.sol\":4956:4978  userVaults[msg.sender] */\n      0x00\n        /* \"contracts/TrustVault.sol\":4967:4977  msg.sender */\n      caller\n        /* \"contracts/TrustVault.sol\":4956:4978  userVaults[msg.sender] */\n      0xffffffffffffffffffffffffffffffffffffffff\n      and\n      0xffffffffffffffffffffffffffffffffffffffff\n      and\n      dup2\n      mstore\n      0x20\n      add\n      swap1\n      dup2\n      mstore\n      0x20\n      add\n      0x00\n      keccak256\n        /* \"contracts/TrustVault.sol\":4956:4995  userVaults[msg.sender].emergencyEnabled */\n      0x04\n      add\n      0x00\n        /* \"contracts/TrustVault.sol\":4956:5002  userVaults[msg.sender].emergencyEnabled = true */\n      0x0100\n      exp\n      dup2\n      sload\n      dup2\n      0xff\n      mul\n      not\n      and\n      swap1\n      dup4\n      iszero\n      iszero\n      mul\n      or\n      swap1\n      sstore\n      pop\n        /* \"contracts/TrustVault.sol\":4889:5010  function enableEmergencyWithdrawal() external onlyOwner {... */\n      jump\t// out\n        /* \"contracts/TrustVault.sol\":5525:5654  function getTokenBalance() external view returns (uint256) {... */\n    tag_46:\n        /* \"contracts/TrustVault.sol\":5575:5582  uint256 */\n      0x00\n        /* \"contracts/TrustVault.sol\":5609:5620  rewardToken */\n      immutable(\"0x523002c9adf4540d1913fbcc02308745afe7fe46bf4736ab566dafa3acaa32ea\")\n        /* \"contracts/TrustVault.sol\":5602:5631  IERC20(rewardToken).balanceOf */\n      0xffffffffffffffffffffffffffffffffffffffff\n      and\n      0x70a08231\n        /* \"contracts/TrustVault.sol\":5640:5644  this */\n      address\n        /* \"contracts/TrustVault.sol\":5602:5646  IERC20(rewardToken).balanceOf(address(this)) */\n      mload(0x40)\n      dup3\n      0xffffffff\n      and\n      0xe0\n      shl\n      dup2\n      mstore\n      0x04\n      add\n      tag_118\n      swap2\n      swap1\n      tag_52\n      jump\t// in\n    tag_118:\n      0x20\n      mload(0x40)\n      dup1\n      dup4\n      sub\n      dup2\n      dup7\n      gas\n      staticcall\n      iszero\n      dup1\n      iszero\n      tag_120\n      jumpi\n      returndatasize\n      0x00\n      dup1\n      returndatacopy\n      revert(0x00, returndatasize)\n    tag_120:\n      pop\n      pop\n      pop\n      pop\n      mload(0x40)\n      returndatasize\n      not(0x1f)\n      0x1f\n      dup3\n      add\n      and\n      dup3\n      add\n      dup1\n      0x40\n      mstore\n      pop\n      dup2\n      add\n      swap1\n      tag_121\n      swap2\n      swap1\n      tag_122\n      jump\t// in\n    tag_121:\n        /* \"contracts/TrustVault.sol\":5595:5646  return IERC20(rewardToken).balanceOf(address(this)) */\n      swap1\n      pop\n        /* \"contracts/TrustVault.sol\":5525:5654  function getTokenBalance() external view returns (uint256) {... */\n      swap1\n      jump\t// out\n        /* \"@openzeppelin/contracts/access/Ownable.sol\":1638:1723  function owner() public view virtual returns (address) {... */\n    tag_50:\n        /* \"@openzeppelin/contracts/access/Ownable.sol\":1684:1691  address */\n      0x00\n        /* \"@openzeppelin/contracts/access/Ownable.sol\":1710:1716  _owner */\n      dup1\n      0x00\n      swap1\n      sload\n      swap1\n      0x0100\n      exp\n      swap1\n      div\n      0xffffffffffffffffffffffffffffffffffffffff\n      and\n        /* \"@openzeppelin/contracts/access/Ownable.sol\":1703:1716  return _owner */\n      swap1\n      pop\n        /* \"@openzeppelin/contracts/access/Ownable.sol\":1638:1723  function owner() public view virtual returns (address) {... */\n      swap1\n      jump\t// out\n        /* \"contracts/TrustVault.sol\":4011:4462  function emergencyWithdraw() external onlyIfEmergencyEnabled nonReentrant {... */\n    tag_54:\n        /* \"contracts/TrustVault.sol\":1754:1764  userVaults */\n      0x02\n        /* \"contracts/TrustVault.sol\":1754:1776  userVaults[msg.sender] */\n      0x00\n        /* \"contracts/TrustVault.sol\":1765:1775  msg.sender */\n      caller\n        /* \"contracts/TrustVault.sol\":1754:1776  userVaults[msg.sender] */\n      0xffffffffffffffffffffffffffffffffffffffff\n      and\n      0xffffffffffffffffffffffffffffffffffffffff\n      and\n      dup2\n      mstore\n      0x20\n      add\n      swap1\n      dup2\n      mstore\n      0x20\n      add\n      0x00\n      keccak256\n        /* \"contracts/TrustVault.sol\":1754:1793  userVaults[msg.sender].emergencyEnabled */\n      0x04\n      add\n      0x00\n      swap1\n      sload\n      swap1\n      0x0100\n      exp\n      swap1\n      div\n      0xff\n      and\n        /* \"contracts/TrustVault.sol\":1746:1819  require(userVaults[msg.sender].emergencyEnabled, \"Emergency not enabled\") */\n      tag_125\n      jumpi\n      mload(0x40)\n      0x08c379a000000000000000000000000000000000000000000000000000000000\n      dup2\n      mstore\n      0x04\n      add\n      tag_126\n      swap1\n      tag_127\n      jump\t// in\n    tag_126:\n      mload(0x40)\n      dup1\n      swap2\n      sub\n      swap1\n      revert\n    tag_125:\n        /* \"@openzeppelin/contracts/security/ReentrancyGuard.sol\":2261:2282  _nonReentrantBefore() */\n      tag_129\n        /* \"@openzeppelin/contracts/security/ReentrancyGuard.sol\":2261:2280  _nonReentrantBefore */\n      tag_67\n        /* \"@openzeppelin/contracts/security/ReentrancyGuard.sol\":2261:2282  _nonReentrantBefore() */\n      jump\t// in\n    tag_129:\n        /* \"contracts/TrustVault.sol\":4096:4115  Vault storage vault */\n      0x00\n        /* \"contracts/TrustVault.sol\":4118:4128  userVaults */\n      0x02\n        /* \"contracts/TrustVault.sol\":4118:4140  userVaults[msg.sender] */\n      0x00\n        /* \"contracts/TrustVault.sol\":4129:4139  msg.sender */\n      caller\n        /* \"contracts/TrustVault.sol\":4118:4140  userVaults[msg.sender] */\n      0xffffffffffffffffffffffffffffffffffffffff\n      and\n      0xffffffffffffffffffffffffffffffffffffffff\n      and\n      dup2\n      mstore\n      0x20\n      add\n      swap1\n      dup2\n      mstore\n      0x20\n      add\n      0x00\n      keccak256\n        /* \"contracts/TrustVault.sol\":4096:4140  Vault storage vault = userVaults[msg.sender] */\n      swap1\n      pop\n        /* \"contracts/TrustVault.sol\":4151:4165  uint256 amount */\n      0x00\n        /* \"contracts/TrustVault.sol\":4168:4173  vault */\n      dup2\n        /* \"contracts/TrustVault.sol\":4168:4188  vault.totalDeposited */\n      0x00\n      add\n      sload\n        /* \"contracts/TrustVault.sol\":4151:4188  uint256 amount = vault.totalDeposited */\n      swap1\n      pop\n        /* \"contracts/TrustVault.sol\":4216:4217  0 */\n      0x00\n        /* \"contracts/TrustVault.sol\":4207:4213  amount */\n      dup2\n        /* \"contracts/TrustVault.sol\":4207:4217  amount > 0 */\n      gt\n        /* \"contracts/TrustVault.sol\":4199:4242  require(amount > 0, \"No funds to withdraw\") */\n      tag_131\n      jumpi\n      mload(0x40)\n      0x08c379a000000000000000000000000000000000000000000000000000000000\n      dup2\n      mstore\n      0x04\n      add\n      tag_132\n      swap1\n      tag_133\n      jump\t// in\n    tag_132:\n      mload(0x40)\n      dup1\n      swap2\n      sub\n      swap1\n      revert\n    tag_131:\n        /* \"contracts/TrustVault.sol\":4278:4279  0 */\n      0x00\n        /* \"contracts/TrustVault.sol\":4255:4260  vault */\n      dup3\n        /* \"contracts/TrustVault.sol\":4255:4275  vault.totalDeposited */\n      0x00\n      add\n        /* \"contracts/TrustVault.sol\":4255:4279  vault.totalDeposited = 0 */\n      dup2\n      swap1\n      sstore\n      pop\n        /* \"contracts/TrustVault.sol\":4317:4332  block.timestamp */\n      timestamp\n        /* \"contracts/TrustVault.sol\":4290:4295  vault */\n      dup3\n        /* \"contracts/TrustVault.sol\":4290:4314  vault.lastWithdrawalTime */\n      0x03\n      add\n        /* \"contracts/TrustVault.sol\":4290:4332  vault.lastWithdrawalTime = block.timestamp */\n      dup2\n      swap1\n      sstore\n      pop\n        /* \"contracts/TrustVault.sol\":4345:4397  IERC20(rewardToken).safeTransfer(msg.sender, amount) */\n      tag_134\n        /* \"contracts/TrustVault.sol\":4378:4388  msg.sender */\n      caller\n        /* \"contracts/TrustVault.sol\":4390:4396  amount */\n      dup3\n        /* \"contracts/TrustVault.sol\":4352:4363  rewardToken */\n      immutable(\"0x523002c9adf4540d1913fbcc02308745afe7fe46bf4736ab566dafa3acaa32ea\")\n        /* \"contracts/TrustVault.sol\":4345:4377  IERC20(rewardToken).safeTransfer */\n      0xffffffffffffffffffffffffffffffffffffffff\n      and\n      tag_106\n      swap1\n        /* \"contracts/TrustVault.sol\":4345:4397  IERC20(rewardToken).safeTransfer(msg.sender, amount) */\n      swap3\n      swap2\n      swap1\n      0xffffffff\n      and\n      jump\t// in\n    tag_134:\n        /* \"contracts/TrustVault.sol\":4435:4445  msg.sender */\n      caller\n        /* \"contracts/TrustVault.sol\":4415:4454  EmergencyWithdrawal(msg.sender, amount) */\n      0xffffffffffffffffffffffffffffffffffffffff\n      and\n      0x23d6711a1d031134a36921253c75aa59e967d38e369ac625992824315e204f20\n        /* \"contracts/TrustVault.sol\":4447:4453  amount */\n      dup3\n        /* \"contracts/TrustVault.sol\":4415:4454  EmergencyWithdrawal(msg.sender, amount) */\n      mload(0x40)\n      tag_135\n      swap2\n      swap1\n      tag_48\n      jump\t// in\n    tag_135:\n      mload(0x40)\n      dup1\n      swap2\n      sub\n      swap1\n      log2\n        /* \"contracts/TrustVault.sol\":4085:4462  {... */\n      pop\n      pop\n        /* \"@openzeppelin/contracts/security/ReentrancyGuard.sol\":2303:2323  _nonReentrantAfter() */\n      tag_136\n        /* \"@openzeppelin/contracts/security/ReentrancyGuard.sol\":2303:2321  _nonReentrantAfter */\n      tag_78\n        /* \"@openzeppelin/contracts/security/ReentrancyGuard.sol\":2303:2323  _nonReentrantAfter() */\n      jump\t// in\n    tag_136:\n        /* \"contracts/TrustVault.sol\":4011:4462  function emergencyWithdraw() external onlyIfEmergencyEnabled nonReentrant {... */\n      jump\t// out\n        /* \"@openzeppelin/contracts/access/Ownable.sol\":2543:2758  function transferOwnership(address newOwner) public virtual onlyOwner {... */\n    tag_57:\n        /* \"@openzeppelin/contracts/access/Ownable.sol\":1531:1544  _checkOwner() */\n      tag_138\n        /* \"@openzeppelin/contracts/access/Ownable.sol\":1531:1542  _checkOwner */\n      tag_64\n        /* \"@openzeppelin/contracts/access/Ownable.sol\":1531:1544  _checkOwner() */\n      jump\t// in\n    tag_138:\n        /* \"@openzeppelin/contracts/access/Ownable.sol\":2647:2648  0 */\n      0x00\n        /* \"@openzeppelin/contracts/access/Ownable.sol\":2627:2649  newOwner == address(0) */\n      0xffffffffffffffffffffffffffffffffffffffff\n      and\n        /* \"@openzeppelin/contracts/access/Ownable.sol\":2627:2635  newOwner */\n      dup2\n        /* \"@openzeppelin/contracts/access/Ownable.sol\":2627:2649  newOwner == address(0) */\n      0xffffffffffffffffffffffffffffffffffffffff\n      and\n      sub\n        /* \"@openzeppelin/contracts/access/Ownable.sol\":2623:2714  if (newOwner == address(0)) {... */\n      tag_140\n      jumpi\n        /* \"@openzeppelin/contracts/access/Ownable.sol\":2700:2701  0 */\n      0x00\n        /* \"@openzeppelin/contracts/access/Ownable.sol\":2672:2703  OwnableInvalidOwner(address(0)) */\n      mload(0x40)\n      0x1e4fbdf700000000000000000000000000000000000000000000000000000000\n      dup2\n      mstore\n      0x04\n      add\n      tag_141\n      swap2\n      swap1\n      tag_52\n      jump\t// in\n    tag_141:\n      mload(0x40)\n      dup1\n      swap2\n      sub\n      swap1\n      revert\n        /* \"@openzeppelin/contracts/access/Ownable.sol\":2623:2714  if (newOwner == address(0)) {... */\n    tag_140:\n        /* \"@openzeppelin/contracts/access/Ownable.sol\":2723:2751  _transferOwnership(newOwner) */\n      tag_142\n        /* \"@openzeppelin/contracts/access/Ownable.sol\":2742:2750  newOwner */\n      dup2\n        /* \"@openzeppelin/contracts/access/Ownable.sol\":2723:2741  _transferOwnership */\n      tag_113\n        /* \"@openzeppelin/contracts/access/Ownable.sol\":2723:2751  _transferOwnership(newOwner) */\n      jump\t// in\n    tag_142:\n        /* \"@openzeppelin/contracts/access/Ownable.sol\":2543:2758  function transferOwnership(address newOwner) public virtual onlyOwner {... */\n      pop\n      jump\t// out\n        /* \"contracts/TrustVault.sol\":1594:1630  address public immutable rewardToken */\n    tag_59:\n      immutable(\"0x523002c9adf4540d1913fbcc02308745afe7fe46bf4736ab566dafa3acaa32ea\")\n      dup2\n      jump\t// out\n        /* \"@openzeppelin/contracts/access/Ownable.sol\":1796:1958  function _checkOwner() internal view virtual {... */\n    tag_64:\n        /* \"@openzeppelin/contracts/access/Ownable.sol\":1866:1878  _msgSender() */\n      tag_144\n        /* \"@openzeppelin/contracts/access/Ownable.sol\":1866:1876  _msgSender */\n      tag_145\n        /* \"@openzeppelin/contracts/access/Ownable.sol\":1866:1878  _msgSender() */\n      jump\t// in\n    tag_144:\n        /* \"@openzeppelin/contracts/access/Ownable.sol\":1855:1878  owner() != _msgSender() */\n      0xffffffffffffffffffffffffffffffffffffffff\n      and\n        /* \"@openzeppelin/contracts/access/Ownable.sol\":1855:1862  owner() */\n      tag_146\n        /* \"@openzeppelin/contracts/access/Ownable.sol\":1855:1860  owner */\n      tag_50\n        /* \"@openzeppelin/contracts/access/Ownable.sol\":1855:1862  owner() */\n      jump\t// in\n    tag_146:\n        /* \"@openzeppelin/contracts/access/Ownable.sol\":1855:1878  owner() != _msgSender() */\n      0xffffffffffffffffffffffffffffffffffffffff\n      and\n      eq\n        /* \"@openzeppelin/contracts/access/Ownable.sol\":1851:1952  if (owner() != _msgSender()) {... */\n      tag_147\n      jumpi\n        /* \"@openzeppelin/contracts/access/Ownable.sol\":1928:1940  _msgSender() */\n      tag_148\n        /* \"@openzeppelin/contracts/access/Ownable.sol\":1928:1938  _msgSender */\n      tag_145\n        /* \"@openzeppelin/contracts/access/Ownable.sol\":1928:1940  _msgSender() */\n      jump\t// in\n    tag_148:\n        /* \"@openzeppelin/contracts/access/Ownable.sol\":1901:1941  OwnableUnauthorizedAccount(_msgSender()) */\n      mload(0x40)\n      0x118cdaa700000000000000000000000000000000000000000000000000000000\n      dup2\n      mstore\n      0x04\n      add\n      tag_149\n      swap2\n      swap1\n      tag_52\n      jump\t// in\n    tag_149:\n      mload(0x40)\n      dup1\n      swap2\n      sub\n      swap1\n      revert\n        /* \"@openzeppelin/contracts/access/Ownable.sol\":1851:1952  if (owner() != _msgSender()) {... */\n    tag_147:\n        /* \"@openzeppelin/contracts/access/Ownable.sol\":1796:1958  function _checkOwner() internal view virtual {... */\n      jump\t// out\n        /* \"@openzeppelin/contracts/security/ReentrancyGuard.sol\":2336:2623  function _nonReentrantBefore() private {... */\n    tag_67:\n        /* \"@openzeppelin/contracts/security/ReentrancyGuard.sol\":1759:1760  2 */\n      0x02\n        /* \"@openzeppelin/contracts/security/ReentrancyGuard.sol\":2468:2475  _status */\n      sload(0x01)\n        /* \"@openzeppelin/contracts/security/ReentrancyGuard.sol\":2468:2487  _status != _ENTERED */\n      sub\n        /* \"@openzeppelin/contracts/security/ReentrancyGuard.sol\":2460:2523  require(_status != _ENTERED, \"ReentrancyGuard: reentrant call\") */\n      tag_151\n      jumpi\n      mload(0x40)\n      0x08c379a000000000000000000000000000000000000000000000000000000000\n      dup2\n      mstore\n      0x04\n      add\n      tag_152\n      swap1\n      tag_153\n      jump\t// in\n    tag_152:\n      mload(0x40)\n      dup1\n      swap2\n      sub\n      swap1\n      revert\n    tag_151:\n        /* \"@openzeppelin/contracts/security/ReentrancyGuard.sol\":1759:1760  2 */\n      0x02\n        /* \"@openzeppelin/contracts/security/ReentrancyGuard.sol\":2598:2605  _status */\n      0x01\n        /* \"@openzeppelin/contracts/security/ReentrancyGuard.sol\":2598:2616  _status = _ENTERED */\n      dup2\n      swap1\n      sstore\n      pop\n        /* \"@openzeppelin/contracts/security/ReentrancyGuard.sol\":2336:2623  function _nonReentrantBefore() private {... */\n      jump\t// out\n        /* \"@openzeppelin/contracts/token/ERC20/utils/SafeERC20.sol\":1618:1806  function safeTransferFrom(IERC20 token, address from, address to, uint256 value) internal {... */\n    tag_75:\n        /* \"@openzeppelin/contracts/token/ERC20/utils/SafeERC20.sol\":1718:1799  _callOptionalReturn(token, abi.encodeCall(token.transferFrom, (from, to, value))) */\n      tag_155\n        /* \"@openzeppelin/contracts/token/ERC20/utils/SafeERC20.sol\":1738:1743  token */\n      dup5\n        /* \"@openzeppelin/contracts/token/ERC20/utils/SafeERC20.sol\":1760:1765  token */\n      dup6\n        /* \"@openzeppelin/contracts/token/ERC20/utils/SafeERC20.sol\":1760:1778  token.transferFrom */\n      0xffffffffffffffffffffffffffffffffffffffff\n      and\n      0x23b872dd\n        /* \"@openzeppelin/contracts/token/ERC20/utils/SafeERC20.sol\":1781:1785  from */\n      dup7\n        /* \"@openzeppelin/contracts/token/ERC20/utils/SafeERC20.sol\":1787:1789  to */\n      dup7\n        /* \"@openzeppelin/contracts/token/ERC20/utils/SafeERC20.sol\":1791:1796  value */\n      dup7\n        /* \"@openzeppelin/contracts/token/ERC20/utils/SafeERC20.sol\":1745:1798  abi.encodeCall(token.transferFrom, (from, to, value)) */\n      add(0x24, mload(0x40))\n      tag_156\n      swap4\n      swap3\n      swap2\n      swap1\n      tag_157\n      jump\t// in\n    tag_156:\n      mload(0x40)\n      0x20\n      dup2\n      dup4\n      sub\n      sub\n      dup2\n      mstore\n      swap1\n      0x40\n      mstore\n      swap2\n      pop\n      0xe0\n      shl\n      0x20\n      dup3\n      add\n      dup1\n      mload\n      0xffffffffffffffffffffffffffffffffffffffffffffffffffffffff\n      dup4\n      dup2\n      dup4\n      and\n      or\n      dup4\n      mstore\n      pop\n      pop\n      pop\n      pop\n        /* \"@openzeppelin/contracts/token/ERC20/utils/SafeERC20.sol\":1718:1737  _callOptionalReturn */\n      tag_158\n        /* \"@openzeppelin/contracts/token/ERC20/utils/SafeERC20.sol\":1718:1799  _callOptionalReturn(token, abi.encodeCall(token.transferFrom, (from, to, value))) */\n      jump\t// in\n    tag_155:\n        /* \"@openzeppelin/contracts/token/ERC20/utils/SafeERC20.sol\":1618:1806  function safeTransferFrom(IERC20 token, address from, address to, uint256 value) internal {... */\n      pop\n      pop\n      pop\n      pop\n      jump\t// out\n        /* \"@openzeppelin/contracts/security/ReentrancyGuard.sol\":2629:2838  function _nonReentrantAfter() private {... */\n    tag_78:\n        /* \"@openzeppelin/contracts/security/ReentrancyGuard.sol\":1716:1717  1 */\n      0x01\n        /* \"@openzeppelin/contracts/security/ReentrancyGuard.sol\":2809:2816  _status */\n      dup1\n        /* \"@openzeppelin/contracts/security/ReentrancyGuard.sol\":2809:2831  _status = _NOT_ENTERED */\n      dup2\n      swap1\n      sstore\n      pop\n        /* \"@openzeppelin/contracts/security/ReentrancyGuard.sol\":2629:2838  function _nonReentrantAfter() private {... */\n      jump\t// out\n        /* \"@openzeppelin/contracts/token/ERC20/utils/SafeERC20.sol\":1219:1379  function safeTransfer(IERC20 token, address to, uint256 value) internal {... */\n    tag_106:\n        /* \"@openzeppelin/contracts/token/ERC20/utils/SafeERC20.sol\":1301:1372  _callOptionalReturn(token, abi.encodeCall(token.transfer, (to, value))) */\n      tag_161\n        /* \"@openzeppelin/contracts/token/ERC20/utils/SafeERC20.sol\":1321:1326  token */\n      dup4\n        /* \"@openzeppelin/contracts/token/ERC20/utils/SafeERC20.sol\":1343:1348  token */\n      dup5\n        /* \"@openzeppelin/contracts/token/ERC20/utils/SafeERC20.sol\":1343:1357  token.transfer */\n      0xffffffffffffffffffffffffffffffffffffffff\n      and\n      0xa9059cbb\n        /* \"@openzeppelin/contracts/token/ERC20/utils/SafeERC20.sol\":1360:1362  to */\n      dup6\n        /* \"@openzeppelin/contracts/token/ERC20/utils/SafeERC20.sol\":1364:1369  value */\n      dup6\n        /* \"@openzeppelin/contracts/token/ERC20/utils/SafeERC20.sol\":1328:1371  abi.encodeCall(token.transfer, (to, value)) */\n      add(0x24, mload(0x40))\n      tag_162\n      swap3\n      swap2\n      swap1\n      tag_163\n      jump\t// in\n    tag_162:\n      mload(0x40)\n      0x20\n      dup2\n      dup4\n      sub\n      sub\n      dup2\n      mstore\n      swap1\n      0x40\n      mstore\n      swap2\n      pop\n      0xe0\n      shl\n      0x20\n      dup3\n      add\n      dup1\n      mload\n      0xffffffffffffffffffffffffffffffffffffffffffffffffffffffff\n      dup4\n      dup2\n      dup4\n      and\n      or\n      dup4\n      mstore\n      pop\n      pop\n      pop\n      pop\n        /* \"@openzeppelin/contracts/token/ERC20/utils/SafeERC20.sol\":1301:1320  _callOptionalReturn */\n      tag_158\n        /* \"@openzeppelin/contracts/token/ERC20/utils/SafeERC20.sol\":1301:1372  _callOptionalReturn(token, abi.encodeCall(token.transfer, (to, value))) */\n      jump\t// in\n    tag_161:\n        /* \"@openzeppelin/contracts/token/ERC20/utils/SafeERC20.sol\":1219:1379  function safeTransfer(IERC20 token, address to, uint256 value) internal {... */\n      pop\n      pop\n      pop\n      jump\t// out\n        /* \"@openzeppelin/contracts/access/Ownable.sol\":2912:3099  function _transferOwnership(address newOwner) internal virtual {... */\n    tag_113:\n        /* \"@openzeppelin/contracts/access/Ownable.sol\":2985:3001  address oldOwner */\n      0x00\n        /* \"@openzeppelin/contracts/access/Ownable.sol\":3004:3010  _owner */\n      dup1\n      0x00\n      swap1\n      sload\n      swap1\n      0x0100\n      exp\n      swap1\n      div\n      0xffffffffffffffffffffffffffffffffffffffff\n      and\n        /* \"@openzeppelin/contracts/access/Ownable.sol\":2985:3010  address oldOwner = _owner */\n      swap1\n      pop\n        /* \"@openzeppelin/contracts/access/Ownable.sol\":3029:3037  newOwner */\n      dup2\n        /* \"@openzeppelin/contracts/access/Ownable.sol\":3020:3026  _owner */\n      0x00\n      dup1\n        /* \"@openzeppelin/contracts/access/Ownable.sol\":3020:3037  _owner = newOwner */\n      0x0100\n      exp\n      dup2\n      sload\n      dup2\n      0xffffffffffffffffffffffffffffffffffffffff\n      mul\n      not\n      and\n      swap1\n      dup4\n      0xffffffffffffffffffffffffffffffffffffffff\n      and\n      mul\n      or\n      swap1\n      sstore\n      pop\n        /* \"@openzeppelin/contracts/access/Ownable.sol\":3083:3091  newOwner */\n      dup2\n        /* \"@openzeppelin/contracts/access/Ownable.sol\":3052:3092  OwnershipTransferred(oldOwner, newOwner) */\n      0xffffffffffffffffffffffffffffffffffffffff\n      and\n        /* \"@openzeppelin/contracts/access/Ownable.sol\":3073:3081  oldOwner */\n      dup2\n        /* \"@openzeppelin/contracts/access/Ownable.sol\":3052:3092  OwnershipTransferred(oldOwner, newOwner) */\n      0xffffffffffffffffffffffffffffffffffffffff\n      and\n      0x8be0079c531659141344cd1fd0a4f28419497f9722a3daafe3b4186f6b6457e0\n      mload(0x40)\n      mload(0x40)\n      dup1\n      swap2\n      sub\n      swap1\n      log3\n        /* \"@openzeppelin/contracts/access/Ownable.sol\":2975:3099  {... */\n      pop\n        /* \"@openzeppelin/contracts/access/Ownable.sol\":2912:3099  function _transferOwnership(address newOwner) internal virtual {... */\n      pop\n      jump\t// out\n        /* \"@openzeppelin/contracts/utils/Context.sol\":656:752  function _msgSender() internal view virtual returns (address) {... */\n    tag_145:\n        /* \"@openzeppelin/contracts/utils/Context.sol\":709:716  address */\n      0x00\n        /* \"@openzeppelin/contracts/utils/Context.sol\":735:745  msg.sender */\n      caller\n        /* \"@openzeppelin/contracts/utils/Context.sol\":728:745  return msg.sender */\n      swap1\n      pop\n        /* \"@openzeppelin/contracts/utils/Context.sol\":656:752  function _msgSender() internal view virtual returns (address) {... */\n      swap1\n      jump\t// out\n        /* \"@openzeppelin/contracts/token/ERC20/utils/SafeERC20.sol\":8370:9090  function _callOptionalReturn(IERC20 token, bytes memory data) private {... */\n    tag_158:\n        /* \"@openzeppelin/contracts/token/ERC20/utils/SafeERC20.sol\":8450:8468  uint256 returnSize */\n      0x00\n        /* \"@openzeppelin/contracts/token/ERC20/utils/SafeERC20.sol\":8478:8497  uint256 returnValue */\n      dup1\n        /* \"@openzeppelin/contracts/token/ERC20/utils/SafeERC20.sol\":8616:8620  0x20 */\n      0x20\n        /* \"@openzeppelin/contracts/token/ERC20/utils/SafeERC20.sol\":8613:8614  0 */\n      0x00\n        /* \"@openzeppelin/contracts/token/ERC20/utils/SafeERC20.sol\":8606:8610  data */\n      dup5\n        /* \"@openzeppelin/contracts/token/ERC20/utils/SafeERC20.sol\":8600:8611  mload(data) */\n      mload\n        /* \"@openzeppelin/contracts/token/ERC20/utils/SafeERC20.sol\":8593:8597  0x20 */\n      0x20\n        /* \"@openzeppelin/contracts/token/ERC20/utils/SafeERC20.sol\":8587:8591  data */\n      dup7\n        /* \"@openzeppelin/contracts/token/ERC20/utils/SafeERC20.sol\":8583:8598  add(data, 0x20) */\n      add\n        /* \"@openzeppelin/contracts/token/ERC20/utils/SafeERC20.sol\":8580:8581  0 */\n      0x00\n        /* \"@openzeppelin/contracts/token/ERC20/utils/SafeERC20.sol\":8573:8578  token */\n      dup9\n        /* \"@openzeppelin/contracts/token/ERC20/utils/SafeERC20.sol\":8566:8571  gas() */\n      gas\n        /* \"@openzeppelin/contracts/token/ERC20/utils/SafeERC20.sol\":8561:8621  call(gas(), token, 0, add(data, 0x20), mload(data), 0, 0x20) */\n      call\n        /* \"@openzeppelin/contracts/token/ERC20/utils/SafeERC20.sol\":8673:8680  success */\n      dup1\n        /* \"@openzeppelin/contracts/token/ERC20/utils/SafeERC20.sol\":8663:8839  if iszero(success) {... */\n      tag_167\n      jumpi\n        /* \"@openzeppelin/contracts/token/ERC20/utils/SafeERC20.sol\":8717:8721  0x40 */\n      0x40\n        /* \"@openzeppelin/contracts/token/ERC20/utils/SafeERC20.sol\":8711:8722  mload(0x40) */\n      mload\n        /* \"@openzeppelin/contracts/token/ERC20/utils/SafeERC20.sol\":8762:8778  returndatasize() */\n      returndatasize\n        /* \"@openzeppelin/contracts/token/ERC20/utils/SafeERC20.sol\":8759:8760  0 */\n      0x00\n        /* \"@openzeppelin/contracts/token/ERC20/utils/SafeERC20.sol\":8754:8757  ptr */\n      dup3\n        /* \"@openzeppelin/contracts/token/ERC20/utils/SafeERC20.sol\":8739:8779  returndatacopy(ptr, 0, returndatasize()) */\n      returndatacopy\n        /* \"@openzeppelin/contracts/token/ERC20/utils/SafeERC20.sol\":8808:8824  returndatasize() */\n      returndatasize\n        /* \"@openzeppelin/contracts/token/ERC20/utils/SafeERC20.sol\":8803:8806  ptr */\n      dup2\n        /* \"@openzeppelin/contracts/token/ERC20/utils/SafeERC20.sol\":8796:8825  revert(ptr, returndatasize()) */\n      revert\n        /* \"@openzeppelin/contracts/token/ERC20/utils/SafeERC20.sol\":8663:8839  if iszero(success) {... */\n    tag_167:\n        /* \"@openzeppelin/contracts/token/ERC20/utils/SafeERC20.sol\":8866:8882  returndatasize() */\n      returndatasize\n        /* \"@openzeppelin/contracts/token/ERC20/utils/SafeERC20.sol\":8852:8882  returnSize := returndatasize() */\n      swap3\n      pop\n        /* \"@openzeppelin/contracts/token/ERC20/utils/SafeERC20.sol\":8916:8917  0 */\n      0x00\n        /* \"@openzeppelin/contracts/token/ERC20/utils/SafeERC20.sol\":8910:8918  mload(0) */\n      mload\n        /* \"@openzeppelin/contracts/token/ERC20/utils/SafeERC20.sol\":8895:8918  returnValue := mload(0) */\n      swap2\n      pop\n        /* \"@openzeppelin/contracts/token/ERC20/utils/SafeERC20.sol\":8532:8928  {... */\n      pop\n        /* \"@openzeppelin/contracts/token/ERC20/utils/SafeERC20.sol\":8956:8957  0 */\n      0x00\n        /* \"@openzeppelin/contracts/token/ERC20/utils/SafeERC20.sol\":8942:8952  returnSize */\n      dup3\n        /* \"@openzeppelin/contracts/token/ERC20/utils/SafeERC20.sol\":8942:8957  returnSize == 0 */\n      eq\n        /* \"@openzeppelin/contracts/token/ERC20/utils/SafeERC20.sol\":8942:9010  returnSize == 0 ? address(token).code.length == 0 : returnValue != 1 */\n      tag_168\n      jumpi\n        /* \"@openzeppelin/contracts/token/ERC20/utils/SafeERC20.sol\":9009:9010  1 */\n      0x01\n        /* \"@openzeppelin/contracts/token/ERC20/utils/SafeERC20.sol\":8994:9005  returnValue */\n      dup2\n        /* \"@openzeppelin/contracts/token/ERC20/utils/SafeERC20.sol\":8994:9010  returnValue != 1 */\n      eq\n      iszero\n        /* \"@openzeppelin/contracts/token/ERC20/utils/SafeERC20.sol\":8942:9010  returnSize == 0 ? address(token).code.length == 0 : returnValue != 1 */\n      jump(tag_169)\n    tag_168:\n        /* \"@openzeppelin/contracts/token/ERC20/utils/SafeERC20.sol\":8990:8991  0 */\n      0x00\n        /* \"@openzeppelin/contracts/token/ERC20/utils/SafeERC20.sol\":8968:8973  token */\n      dup5\n        /* \"@openzeppelin/contracts/token/ERC20/utils/SafeERC20.sol\":8960:8986  address(token).code.length */\n      0xffffffffffffffffffffffffffffffffffffffff\n      and\n      extcodesize\n        /* \"@openzeppelin/contracts/token/ERC20/utils/SafeERC20.sol\":8960:8991  address(token).code.length == 0 */\n      eq\n        /* \"@openzeppelin/contracts/token/ERC20/utils/SafeERC20.sol\":8942:9010  returnSize == 0 ? address(token).code.length == 0 : returnValue != 1 */\n    tag_169:\n        /* \"@openzeppelin/contracts/token/ERC20/utils/SafeERC20.sol\":8938:9084  if (returnSize == 0 ? address(token).code.length == 0 : returnValue != 1) {... */\n      iszero\n      tag_170\n      jumpi\n        /* \"@openzeppelin/contracts/token/ERC20/utils/SafeERC20.sol\":9066:9071  token */\n      dup4\n        /* \"@openzeppelin/contracts/token/ERC20/utils/SafeERC20.sol\":9033:9073  SafeERC20FailedOperation(address(token)) */\n      mload(0x40)\n      0x5274afe700000000000000000000000000000000000000000000000000000000\n      dup2\n      mstore\n      0x04\n      add\n      tag_171\n      swap2\n      swap1\n      tag_52\n      jump\t// in\n    tag_171:\n      mload(0x40)\n      dup1\n      swap2\n      sub\n      swap1\n      revert\n        /* \"@openzeppelin/contracts/token/ERC20/utils/SafeERC20.sol\":8938:9084  if (returnSize == 0 ? address(token).code.length == 0 : returnValue != 1) {... */\n    tag_170:\n        /* \"@openzeppelin/contracts/token/ERC20/utils/SafeERC20.sol\":8440:9090  {... */\n      pop\n      pop\n        /* \"@openzeppelin/contracts/token/ERC20/utils/SafeERC20.sol\":8370:9090  function _callOptionalReturn(IERC20 token, bytes memory data) private {... */\n      pop\n      pop\n      jump\t// out\n        /* \"#utility.yul\":88:205   */\n    tag_173:\n        /* \"#utility.yul\":197:198   */\n      0x00\n        /* \"#utility.yul\":194:195   */\n      dup1\n        /* \"#utility.yul\":187:199   */\n      revert\n        /* \"#utility.yul\":334:460   */\n    tag_175:\n        /* \"#utility.yul\":371:378   */\n      0x00\n        /* \"#utility.yul\":411:453   */\n      0xffffffffffffffffffffffffffffffffffffffff\n        /* \"#utility.yul\":404:409   */\n      dup3\n        /* \"#utility.yul\":400:454   */\n      and\n        /* \"#utility.yul\":389:454   */\n      swap1\n      pop\n        /* \"#utility.yul\":334:460   */\n      swap2\n      swap1\n      pop\n      jump\t// out\n        /* \"#utility.yul\":466:562   */\n    tag_176:\n        /* \"#utility.yul\":503:510   */\n      0x00\n        /* \"#utility.yul\":532:556   */\n      tag_210\n        /* \"#utility.yul\":550:555   */\n      dup3\n        /* \"#utility.yul\":532:556   */\n      tag_175\n      jump\t// in\n    tag_210:\n        /* \"#utility.yul\":521:556   */\n      swap1\n      pop\n        /* \"#utility.yul\":466:562   */\n      swap2\n      swap1\n      pop\n      jump\t// out\n        /* \"#utility.yul\":568:690   */\n    tag_177:\n        /* \"#utility.yul\":641:665   */\n      tag_212\n        /* \"#utility.yul\":659:664   */\n      dup2\n        /* \"#utility.yul\":641:665   */\n      tag_176\n      jump\t// in\n    tag_212:\n        /* \"#utility.yul\":634:639   */\n      dup2\n        /* \"#utility.yul\":631:666   */\n      eq\n        /* \"#utility.yul\":621:684   */\n      tag_213\n      jumpi\n        /* \"#utility.yul\":680:681   */\n      0x00\n        /* \"#utility.yul\":677:678   */\n      dup1\n        /* \"#utility.yul\":670:682   */\n      revert\n        /* \"#utility.yul\":621:684   */\n    tag_213:\n        /* \"#utility.yul\":568:690   */\n      pop\n      jump\t// out\n        /* \"#utility.yul\":696:835   */\n    tag_178:\n        /* \"#utility.yul\":742:747   */\n      0x00\n        /* \"#utility.yul\":780:786   */\n      dup2\n        /* \"#utility.yul\":767:787   */\n      calldataload\n        /* \"#utility.yul\":758:787   */\n      swap1\n      pop\n        /* \"#utility.yul\":796:829   */\n      tag_215\n        /* \"#utility.yul\":823:828   */\n      dup2\n        /* \"#utility.yul\":796:829   */\n      tag_177\n      jump\t// in\n    tag_215:\n        /* \"#utility.yul\":696:835   */\n      swap3\n      swap2\n      pop\n      pop\n      jump\t// out\n        /* \"#utility.yul\":841:1170   */\n    tag_20:\n        /* \"#utility.yul\":900:906   */\n      0x00\n        /* \"#utility.yul\":949:951   */\n      0x20\n        /* \"#utility.yul\":937:946   */\n      dup3\n        /* \"#utility.yul\":928:935   */\n      dup5\n        /* \"#utility.yul\":924:947   */\n      sub\n        /* \"#utility.yul\":920:952   */\n      slt\n        /* \"#utility.yul\":917:1036   */\n      iszero\n      tag_217\n      jumpi\n        /* \"#utility.yul\":955:1034   */\n      tag_218\n      tag_173\n      jump\t// in\n    tag_218:\n        /* \"#utility.yul\":917:1036   */\n    tag_217:\n        /* \"#utility.yul\":1075:1076   */\n      0x00\n        /* \"#utility.yul\":1100:1153   */\n      tag_219\n        /* \"#utility.yul\":1145:1152   */\n      dup5\n        /* \"#utility.yul\":1136:1142   */\n      dup3\n        /* \"#utility.yul\":1125:1134   */\n      dup6\n        /* \"#utility.yul\":1121:1143   */\n      add\n        /* \"#utility.yul\":1100:1153   */\n      tag_178\n      jump\t// in\n    tag_219:\n        /* \"#utility.yul\":1090:1153   */\n      swap2\n      pop\n        /* \"#utility.yul\":1046:1163   */\n      pop\n        /* \"#utility.yul\":841:1170   */\n      swap3\n      swap2\n      pop\n      pop\n      jump\t// out\n        /* \"#utility.yul\":1176:1253   */\n    tag_179:\n        /* \"#utility.yul\":1213:1220   */\n      0x00\n        /* \"#utility.yul\":1242:1247   */\n      dup2\n        /* \"#utility.yul\":1231:1247   */\n      swap1\n      pop\n        /* \"#utility.yul\":1176:1253   */\n      swap2\n      swap1\n      pop\n      jump\t// out\n        /* \"#utility.yul\":1259:1377   */\n    tag_180:\n        /* \"#utility.yul\":1346:1370   */\n      tag_222\n        /* \"#utility.yul\":1364:1369   */\n      dup2\n        /* \"#utility.yul\":1346:1370   */\n      tag_179\n      jump\t// in\n    tag_222:\n        /* \"#utility.yul\":1341:1344   */\n      dup3\n        /* \"#utility.yul\":1334:1371   */\n      mstore\n        /* \"#utility.yul\":1259:1377   */\n      pop\n      pop\n      jump\t// out\n        /* \"#utility.yul\":1383:1473   */\n    tag_181:\n        /* \"#utility.yul\":1417:1424   */\n      0x00\n        /* \"#utility.yul\":1460:1465   */\n      dup2\n        /* \"#utility.yul\":1453:1466   */\n      iszero\n        /* \"#utility.yul\":1446:1467   */\n      iszero\n        /* \"#utility.yul\":1435:1467   */\n      swap1\n      pop\n        /* \"#utility.yul\":1383:1473   */\n      swap2\n      swap1\n      pop\n      jump\t// out\n        /* \"#utility.yul\":1479:1588   */\n    tag_182:\n        /* \"#utility.yul\":1560:1581   */\n      tag_225\n        /* \"#utility.yul\":1575:1580   */\n      dup2\n        /* \"#utility.yul\":1560:1581   */\n      tag_181\n      jump\t// in\n    tag_225:\n        /* \"#utility.yul\":1555:1558   */\n      dup3\n        /* \"#utility.yul\":1548:1582   */\n      mstore\n        /* \"#utility.yul\":1479:1588   */\n      pop\n      pop\n      jump\t// out\n        /* \"#utility.yul\":1594:2246   */\n    tag_23:\n        /* \"#utility.yul\":1793:1797   */\n      0x00\n        /* \"#utility.yul\":1831:1834   */\n      0xa0\n        /* \"#utility.yul\":1820:1829   */\n      dup3\n        /* \"#utility.yul\":1816:1835   */\n      add\n        /* \"#utility.yul\":1808:1835   */\n      swap1\n      pop\n        /* \"#utility.yul\":1845:1916   */\n      tag_227\n        /* \"#utility.yul\":1913:1914   */\n      0x00\n        /* \"#utility.yul\":1902:1911   */\n      dup4\n        /* \"#utility.yul\":1898:1915   */\n      add\n        /* \"#utility.yul\":1889:1895   */\n      dup9\n        /* \"#utility.yul\":1845:1916   */\n      tag_180\n      jump\t// in\n    tag_227:\n        /* \"#utility.yul\":1926:1998   */\n      tag_228\n        /* \"#utility.yul\":1994:1996   */\n      0x20\n        /* \"#utility.yul\":1983:1992   */\n      dup4\n        /* \"#utility.yul\":1979:1997   */\n      add\n        /* \"#utility.yul\":1970:1976   */\n      dup8\n        /* \"#utility.yul\":1926:1998   */\n      tag_180\n      jump\t// in\n    tag_228:\n        /* \"#utility.yul\":2008:2080   */\n      tag_229\n        /* \"#utility.yul\":2076:2078   */\n      0x40\n        /* \"#utility.yul\":2065:2074   */\n      dup4\n        /* \"#utility.yul\":2061:2079   */\n      add\n        /* \"#utility.yul\":2052:2058   */\n      dup7\n        /* \"#utility.yul\":2008:2080   */\n      tag_180\n      jump\t// in\n    tag_229:\n        /* \"#utility.yul\":2090:2162   */\n      tag_230\n        /* \"#utility.yul\":2158:2160   */\n      0x60\n        /* \"#utility.yul\":2147:2156   */\n      dup4\n        /* \"#utility.yul\":2143:2161   */\n      add\n        /* \"#utility.yul\":2134:2140   */\n      dup6\n        /* \"#utility.yul\":2090:2162   */\n      tag_180\n      jump\t// in\n    tag_230:\n        /* \"#utility.yul\":2172:2239   */\n      tag_231\n        /* \"#utility.yul\":2234:2237   */\n      0x80\n        /* \"#utility.yul\":2223:2232   */\n      dup4\n        /* \"#utility.yul\":2219:2238   */\n      add\n        /* \"#utility.yul\":2210:2216   */\n      dup5\n        /* \"#utility.yul\":2172:2239   */\n      tag_182\n      jump\t// in\n    tag_231:\n        /* \"#utility.yul\":1594:2246   */\n      swap7\n      swap6\n      pop\n      pop\n      pop\n      pop\n      pop\n      pop\n      jump\t// out\n        /* \"#utility.yul\":2252:2374   */\n    tag_183:\n        /* \"#utility.yul\":2325:2349   */\n      tag_233\n        /* \"#utility.yul\":2343:2348   */\n      dup2\n        /* \"#utility.yul\":2325:2349   */\n      tag_179\n      jump\t// in\n    tag_233:\n        /* \"#utility.yul\":2318:2323   */\n      dup2\n        /* \"#utility.yul\":2315:2350   */\n      eq\n        /* \"#utility.yul\":2305:2368   */\n      tag_234\n      jumpi\n        /* \"#utility.yul\":2364:2365   */\n      0x00\n        /* \"#utility.yul\":2361:2362   */\n      dup1\n        /* \"#utility.yul\":2354:2366   */\n      revert\n        /* \"#utility.yul\":2305:2368   */\n    tag_234:\n        /* \"#utility.yul\":2252:2374   */\n      pop\n      jump\t// out\n        /* \"#utility.yul\":2380:2519   */\n    tag_184:\n        /* \"#utility.yul\":2426:2431   */\n      0x00\n        /* \"#utility.yul\":2464:2470   */\n      dup2\n        /* \"#utility.yul\":2451:2471   */\n      calldataload\n        /* \"#utility.yul\":2442:2471   */\n      swap1\n      pop\n        /* \"#utility.yul\":2480:2513   */\n      tag_236\n        /* \"#utility.yul\":2507:2512   */\n      dup2\n        /* \"#utility.yul\":2480:2513   */\n      tag_183\n      jump\t// in\n    tag_236:\n        /* \"#utility.yul\":2380:2519   */\n      swap3\n      swap2\n      pop\n      pop\n      jump\t// out\n        /* \"#utility.yul\":2525:2854   */\n    tag_26:\n        /* \"#utility.yul\":2584:2590   */\n      0x00\n        /* \"#utility.yul\":2633:2635   */\n      0x20\n        /* \"#utility.yul\":2621:2630   */\n      dup3\n        /* \"#utility.yul\":2612:2619   */\n      dup5\n        /* \"#utility.yul\":2608:2631   */\n      sub\n        /* \"#utility.yul\":2604:2636   */\n      slt\n        /* \"#utility.yul\":2601:2720   */\n      iszero\n      tag_238\n      jumpi\n        /* \"#utility.yul\":2639:2718   */\n      tag_239\n      tag_173\n      jump\t// in\n    tag_239:\n        /* \"#utility.yul\":2601:2720   */\n    tag_238:\n        /* \"#utility.yul\":2759:2760   */\n      0x00\n        /* \"#utility.yul\":2784:2837   */\n      tag_240\n        /* \"#utility.yul\":2829:2836   */\n      dup5\n        /* \"#utility.yul\":2820:2826   */\n      dup3\n        /* \"#utility.yul\":2809:2818   */\n      dup6\n        /* \"#utility.yul\":2805:2827   */\n      add\n        /* \"#utility.yul\":2784:2837   */\n      tag_184\n      jump\t// in\n    tag_240:\n        /* \"#utility.yul\":2774:2837   */\n      swap2\n      pop\n        /* \"#utility.yul\":2730:2847   */\n      pop\n        /* \"#utility.yul\":2525:2854   */\n      swap3\n      swap2\n      pop\n      pop\n      jump\t// out\n        /* \"#utility.yul\":2860:3082   */\n    tag_48:\n        /* \"#utility.yul\":2953:2957   */\n      0x00\n        /* \"#utility.yul\":2991:2993   */\n      0x20\n        /* \"#utility.yul\":2980:2989   */\n      dup3\n        /* \"#utility.yul\":2976:2994   */\n      add\n        /* \"#utility.yul\":2968:2994   */\n      swap1\n      pop\n        /* \"#utility.yul\":3004:3075   */\n      tag_242\n        /* \"#utility.yul\":3072:3073   */\n      0x00\n        /* \"#utility.yul\":3061:3070   */\n      dup4\n        /* \"#utility.yul\":3057:3074   */\n      add\n        /* \"#utility.yul\":3048:3054   */\n      dup5\n        /* \"#utility.yul\":3004:3075   */\n      tag_180\n      jump\t// in\n    tag_242:\n        /* \"#utility.yul\":2860:3082   */\n      swap3\n      swap2\n      pop\n      pop\n      jump\t// out\n        /* \"#utility.yul\":3088:3206   */\n    tag_185:\n        /* \"#utility.yul\":3175:3199   */\n      tag_244\n        /* \"#utility.yul\":3193:3198   */\n      dup2\n        /* \"#utility.yul\":3175:3199   */\n      tag_176\n      jump\t// in\n    tag_244:\n        /* \"#utility.yul\":3170:3173   */\n      dup3\n        /* \"#utility.yul\":3163:3200   */\n      mstore\n        /* \"#utility.yul\":3088:3206   */\n      pop\n      pop\n      jump\t// out\n        /* \"#utility.yul\":3212:3434   */\n    tag_52:\n        /* \"#utility.yul\":3305:3309   */\n      0x00\n        /* \"#utility.yul\":3343:3345   */\n      0x20\n        /* \"#utility.yul\":3332:3341   */\n      dup3\n        /* \"#utility.yul\":3328:3346   */\n      add\n        /* \"#utility.yul\":3320:3346   */\n      swap1\n      pop\n        /* \"#utility.yul\":3356:3427   */\n      tag_246\n        /* \"#utility.yul\":3424:3425   */\n      0x00\n        /* \"#utility.yul\":3413:3422   */\n      dup4\n        /* \"#utility.yul\":3409:3426   */\n      add\n        /* \"#utility.yul\":3400:3406   */\n      dup5\n        /* \"#utility.yul\":3356:3427   */\n      tag_185\n      jump\t// in\n    tag_246:\n        /* \"#utility.yul\":3212:3434   */\n      swap3\n      swap2\n      pop\n      pop\n      jump\t// out\n        /* \"#utility.yul\":3440:3609   */\n    tag_186:\n        /* \"#utility.yul\":3524:3535   */\n      0x00\n        /* \"#utility.yul\":3558:3564   */\n      dup3\n        /* \"#utility.yul\":3553:3556   */\n      dup3\n        /* \"#utility.yul\":3546:3565   */\n      mstore\n        /* \"#utility.yul\":3598:3602   */\n      0x20\n        /* \"#utility.yul\":3593:3596   */\n      dup3\n        /* \"#utility.yul\":3589:3603   */\n      add\n        /* \"#utility.yul\":3574:3603   */\n      swap1\n      pop\n        /* \"#utility.yul\":3440:3609   */\n      swap3\n      swap2\n      pop\n      pop\n      jump\t// out\n        /* \"#utility.yul\":3615:3783   */\n    tag_187:\n        /* \"#utility.yul\":3755:3775   */\n      0x416d6f756e74206d757374206265203e20300000000000000000000000000000\n        /* \"#utility.yul\":3751:3752   */\n      0x00\n        /* \"#utility.yul\":3743:3749   */\n      dup3\n        /* \"#utility.yul\":3739:3753   */\n      add\n        /* \"#utility.yul\":3732:3776   */\n      mstore\n        /* \"#utility.yul\":3615:3783   */\n      pop\n      jump\t// out\n        /* \"#utility.yul\":3789:4155   */\n    tag_188:\n        /* \"#utility.yul\":3931:3934   */\n      0x00\n        /* \"#utility.yul\":3952:4019   */\n      tag_250\n        /* \"#utility.yul\":4016:4018   */\n      0x12\n        /* \"#utility.yul\":4011:4014   */\n      dup4\n        /* \"#utility.yul\":3952:4019   */\n      tag_186\n      jump\t// in\n    tag_250:\n        /* \"#utility.yul\":3945:4019   */\n      swap2\n      pop\n        /* \"#utility.yul\":4028:4121   */\n      tag_251\n        /* \"#utility.yul\":4117:4120   */\n      dup3\n        /* \"#utility.yul\":4028:4121   */\n      tag_187\n      jump\t// in\n    tag_251:\n        /* \"#utility.yul\":4146:4148   */\n      0x20\n        /* \"#utility.yul\":4141:4144   */\n      dup3\n        /* \"#utility.yul\":4137:4149   */\n      add\n        /* \"#utility.yul\":4130:4149   */\n      swap1\n      pop\n        /* \"#utility.yul\":3789:4155   */\n      swap2\n      swap1\n      pop\n      jump\t// out\n        /* \"#utility.yul\":4161:4580   */\n    tag_71:\n        /* \"#utility.yul\":4327:4331   */\n      0x00\n        /* \"#utility.yul\":4365:4367   */\n      0x20\n        /* \"#utility.yul\":4354:4363   */\n      dup3\n        /* \"#utility.yul\":4350:4368   */\n      add\n        /* \"#utility.yul\":4342:4368   */\n      swap1\n      pop\n        /* \"#utility.yul\":4414:4423   */\n      dup2\n        /* \"#utility.yul\":4408:4412   */\n      dup2\n        /* \"#utility.yul\":4404:4424   */\n      sub\n        /* \"#utility.yul\":4400:4401   */\n      0x00\n        /* \"#utility.yul\":4389:4398   */\n      dup4\n        /* \"#utility.yul\":4385:4402   */\n      add\n        /* \"#utility.yul\":4378:4425   */\n      mstore\n        /* \"#utility.yul\":4442:4573   */\n      tag_253\n        /* \"#utility.yul\":4568:4572   */\n      dup2\n        /* \"#utility.yul\":4442:4573   */\n      tag_188\n      jump\t// in\n    tag_253:\n        /* \"#utility.yul\":4434:4573   */\n      swap1\n      pop\n        /* \"#utility.yul\":4161:4580   */\n      swap2\n      swap1\n      pop\n      jump\t// out\n        /* \"#utility.yul\":4586:4766   */\n    tag_189:\n        /* \"#utility.yul\":4634:4711   */\n      0x4e487b7100000000000000000000000000000000000000000000000000000000\n        /* \"#utility.yul\":4631:4632   */\n      0x00\n        /* \"#utility.yul\":4624:4712   */\n      mstore\n        /* \"#utility.yul\":4731:4735   */\n      0x11\n        /* \"#utility.yul\":4728:4729   */\n      0x04\n        /* \"#utility.yul\":4721:4736   */\n      mstore\n        /* \"#utility.yul\":4755:4759   */\n      0x24\n        /* \"#utility.yul\":4752:4753   */\n      0x00\n        /* \"#utility.yul\":4745:4760   */\n      revert\n        /* \"#utility.yul\":4772:4963   */\n    tag_73:\n        /* \"#utility.yul\":4812:4815   */\n      0x00\n        /* \"#utility.yul\":4831:4851   */\n      tag_256\n        /* \"#utility.yul\":4849:4850   */\n      dup3\n        /* \"#utility.yul\":4831:4851   */\n      tag_179\n      jump\t// in\n    tag_256:\n        /* \"#utility.yul\":4826:4851   */\n      swap2\n      pop\n        /* \"#utility.yul\":4865:4885   */\n      tag_257\n        /* \"#utility.yul\":4883:4884   */\n      dup4\n        /* \"#utility.yul\":4865:4885   */\n      tag_179\n      jump\t// in\n    tag_257:\n        /* \"#utility.yul\":4860:4885   */\n      swap3\n      pop\n        /* \"#utility.yul\":4908:4909   */\n      dup3\n        /* \"#utility.yul\":4905:4906   */\n      dup3\n        /* \"#utility.yul\":4901:4910   */\n      add\n        /* \"#utility.yul\":4894:4910   */\n      swap1\n      pop\n        /* \"#utility.yul\":4929:4932   */\n      dup1\n        /* \"#utility.yul\":4926:4927   */\n      dup3\n        /* \"#utility.yul\":4923:4933   */\n      gt\n        /* \"#utility.yul\":4920:4956   */\n      iszero\n      tag_258\n      jumpi\n        /* \"#utility.yul\":4936:4954   */\n      tag_259\n      tag_189\n      jump\t// in\n    tag_259:\n        /* \"#utility.yul\":4920:4956   */\n    tag_258:\n        /* \"#utility.yul\":4772:4963   */\n      swap3\n      swap2\n      pop\n      pop\n      jump\t// out\n        /* \"#utility.yul\":4969:5139   */\n    tag_190:\n        /* \"#utility.yul\":5109:5131   */\n      0x496e73756666696369656e742062616c616e6365000000000000000000000000\n        /* \"#utility.yul\":5105:5106   */\n      0x00\n        /* \"#utility.yul\":5097:5103   */\n      dup3\n        /* \"#utility.yul\":5093:5107   */\n      add\n        /* \"#utility.yul\":5086:5132   */\n      mstore\n        /* \"#utility.yul\":4969:5139   */\n      pop\n      jump\t// out\n        /* \"#utility.yul\":5145:5511   */\n    tag_191:\n        /* \"#utility.yul\":5287:5290   */\n      0x00\n        /* \"#utility.yul\":5308:5375   */\n      tag_262\n        /* \"#utility.yul\":5372:5374   */\n      0x14\n        /* \"#utility.yul\":5367:5370   */\n      dup4\n        /* \"#utility.yul\":5308:5375   */\n      tag_186\n      jump\t// in\n    tag_262:\n        /* \"#utility.yul\":5301:5375   */\n      swap2\n      pop\n        /* \"#utility.yul\":5384:5477   */\n      tag_263\n        /* \"#utility.yul\":5473:5476   */\n      dup3\n        /* \"#utility.yul\":5384:5477   */\n      tag_190\n      jump\t// in\n    tag_263:\n        /* \"#utility.yul\":5502:5504   */\n      0x20\n        /* \"#utility.yul\":5497:5500   */\n      dup3\n        /* \"#utility.yul\":5493:5505   */\n      add\n        /* \"#utility.yul\":5486:5505   */\n      swap1\n      pop\n        /* \"#utility.yul\":5145:5511   */\n      swap2\n      swap1\n      pop\n      jump\t// out\n        /* \"#utility.yul\":5517:5936   */\n    tag_92:\n        /* \"#utility.yul\":5683:5687   */\n      0x00\n        /* \"#utility.yul\":5721:5723   */\n      0x20\n        /* \"#utility.yul\":5710:5719   */\n      dup3\n        /* \"#utility.yul\":5706:5724   */\n      add\n        /* \"#utility.yul\":5698:5724   */\n      swap1\n      pop\n        /* \"#utility.yul\":5770:5779   */\n      dup2\n        /* \"#utility.yul\":5764:5768   */\n      dup2\n        /* \"#utility.yul\":5760:5780   */\n      sub\n        /* \"#utility.yul\":5756:5757   */\n      0x00\n        /* \"#utility.yul\":5745:5754   */\n      dup4\n        /* \"#utility.yul\":5741:5758   */\n      add\n        /* \"#utility.yul\":5734:5781   */\n      mstore\n        /* \"#utility.yul\":5798:5929   */\n      tag_265\n        /* \"#utility.yul\":5924:5928   */\n      dup2\n        /* \"#utility.yul\":5798:5929   */\n      tag_191\n      jump\t// in\n    tag_265:\n        /* \"#utility.yul\":5790:5929   */\n      swap1\n      pop\n        /* \"#utility.yul\":5517:5936   */\n      swap2\n      swap1\n      pop\n      jump\t// out\n        /* \"#utility.yul\":5942:6121   */\n    tag_192:\n        /* \"#utility.yul\":6082:6113   */\n      0x45786365656473206d6f6e74686c792072656c65617365206c696d6974000000\n        /* \"#utility.yul\":6078:6079   */\n      0x00\n        /* \"#utility.yul\":6070:6076   */\n      dup3\n        /* \"#utility.yul\":6066:6080   */\n      add\n        /* \"#utility.yul\":6059:6114   */\n      mstore\n        /* \"#utility.yul\":5942:6121   */\n      pop\n      jump\t// out\n        /* \"#utility.yul\":6127:6493   */\n    tag_193:\n        /* \"#utility.yul\":6269:6272   */\n      0x00\n        /* \"#utility.yul\":6290:6357   */\n      tag_268\n        /* \"#utility.yul\":6354:6356   */\n      0x1d\n        /* \"#utility.yul\":6349:6352   */\n      dup4\n        /* \"#utility.yul\":6290:6357   */\n      tag_186\n      jump\t// in\n    tag_268:\n        /* \"#utility.yul\":6283:6357   */\n      swap2\n      pop\n        /* \"#utility.yul\":6366:6459   */\n      tag_269\n        /* \"#utility.yul\":6455:6458   */\n      dup3\n        /* \"#utility.yul\":6366:6459   */\n      tag_192\n      jump\t// in\n    tag_269:\n        /* \"#utility.yul\":6484:6486   */\n      0x20\n        /* \"#utility.yul\":6479:6482   */\n      dup3\n        /* \"#utility.yul\":6475:6487   */\n      add\n        /* \"#utility.yul\":6468:6487   */\n      swap1\n      pop\n        /* \"#utility.yul\":6127:6493   */\n      swap2\n      swap1\n      pop\n      jump\t// out\n        /* \"#utility.yul\":6499:6918   */\n    tag_96:\n        /* \"#utility.yul\":6665:6669   */\n      0x00\n        /* \"#utility.yul\":6703:6705   */\n      0x20\n        /* \"#utility.yul\":6692:6701   */\n      dup3\n        /* \"#utility.yul\":6688:6706   */\n      add\n        /* \"#utility.yul\":6680:6706   */\n      swap1\n      pop\n        /* \"#utility.yul\":6752:6761   */\n      dup2\n        /* \"#utility.yul\":6746:6750   */\n      dup2\n        /* \"#utility.yul\":6742:6762   */\n      sub\n        /* \"#utility.yul\":6738:6739   */\n      0x00\n        /* \"#utility.yul\":6727:6736   */\n      dup4\n        /* \"#utility.yul\":6723:6740   */\n      add\n        /* \"#utility.yul\":6716:6763   */\n      mstore\n        /* \"#utility.yul\":6780:6911   */\n      tag_271\n        /* \"#utility.yul\":6906:6910   */\n      dup2\n        /* \"#utility.yul\":6780:6911   */\n      tag_193\n      jump\t// in\n    tag_271:\n        /* \"#utility.yul\":6772:6911   */\n      swap1\n      pop\n        /* \"#utility.yul\":6499:6918   */\n      swap2\n      swap1\n      pop\n      jump\t// out\n        /* \"#utility.yul\":6924:7118   */\n    tag_98:\n        /* \"#utility.yul\":6964:6968   */\n      0x00\n        /* \"#utility.yul\":6984:7004   */\n      tag_273\n        /* \"#utility.yul\":7002:7003   */\n      dup3\n        /* \"#utility.yul\":6984:7004   */\n      tag_179\n      jump\t// in\n    tag_273:\n        /* \"#utility.yul\":6979:7004   */\n      swap2\n      pop\n        /* \"#utility.yul\":7018:7038   */\n      tag_274\n        /* \"#utility.yul\":7036:7037   */\n      dup4\n        /* \"#utility.yul\":7018:7038   */\n      tag_179\n      jump\t// in\n    tag_274:\n        /* \"#utility.yul\":7013:7038   */\n      swap3\n      pop\n        /* \"#utility.yul\":7062:7063   */\n      dup3\n        /* \"#utility.yul\":7059:7060   */\n      dup3\n        /* \"#utility.yul\":7055:7064   */\n      sub\n        /* \"#utility.yul\":7047:7064   */\n      swap1\n      pop\n        /* \"#utility.yul\":7086:7087   */\n      dup2\n        /* \"#utility.yul\":7080:7084   */\n      dup2\n        /* \"#utility.yul\":7077:7088   */\n      gt\n        /* \"#utility.yul\":7074:7111   */\n      iszero\n      tag_275\n      jumpi\n        /* \"#utility.yul\":7091:7109   */\n      tag_276\n      tag_189\n      jump\t// in\n    tag_276:\n        /* \"#utility.yul\":7074:7111   */\n    tag_275:\n        /* \"#utility.yul\":6924:7118   */\n      swap3\n      swap2\n      pop\n      pop\n      jump\t// out\n        /* \"#utility.yul\":7124:7304   */\n    tag_194:\n        /* \"#utility.yul\":7172:7249   */\n      0x4e487b7100000000000000000000000000000000000000000000000000000000\n        /* \"#utility.yul\":7169:7170   */\n      0x00\n        /* \"#utility.yul\":7162:7250   */\n      mstore\n        /* \"#utility.yul\":7269:7273   */\n      0x12\n        /* \"#utility.yul\":7266:7267   */\n      0x04\n        /* \"#utility.yul\":7259:7274   */\n      mstore\n        /* \"#utility.yul\":7293:7297   */\n      0x24\n        /* \"#utility.yul\":7290:7291   */\n      0x00\n        /* \"#utility.yul\":7283:7298   */\n      revert\n        /* \"#utility.yul\":7310:7495   */\n    tag_100:\n        /* \"#utility.yul\":7350:7351   */\n      0x00\n        /* \"#utility.yul\":7367:7387   */\n      tag_279\n        /* \"#utility.yul\":7385:7386   */\n      dup3\n        /* \"#utility.yul\":7367:7387   */\n      tag_179\n      jump\t// in\n    tag_279:\n        /* \"#utility.yul\":7362:7387   */\n      swap2\n      pop\n        /* \"#utility.yul\":7401:7421   */\n      tag_280\n        /* \"#utility.yul\":7419:7420   */\n      dup4\n        /* \"#utility.yul\":7401:7421   */\n      tag_179\n      jump\t// in\n    tag_280:\n        /* \"#utility.yul\":7396:7421   */\n      swap3\n      pop\n        /* \"#utility.yul\":7440:7441   */\n      dup3\n        /* \"#utility.yul\":7430:7465   */\n      tag_281\n      jumpi\n        /* \"#utility.yul\":7445:7463   */\n      tag_282\n      tag_194\n      jump\t// in\n    tag_282:\n        /* \"#utility.yul\":7430:7465   */\n    tag_281:\n        /* \"#utility.yul\":7487:7488   */\n      dup3\n        /* \"#utility.yul\":7484:7485   */\n      dup3\n        /* \"#utility.yul\":7480:7489   */\n      div\n        /* \"#utility.yul\":7475:7489   */\n      swap1\n      pop\n        /* \"#utility.yul\":7310:7495   */\n      swap3\n      swap2\n      pop\n      pop\n      jump\t// out\n        /* \"#utility.yul\":7501:7678   */\n    tag_195:\n        /* \"#utility.yul\":7641:7670   */\n      0x416c72656164792077697468647265772074686973206d6f6e74680000000000\n        /* \"#utility.yul\":7637:7638   */\n      0x00\n        /* \"#utility.yul\":7629:7635   */\n      dup3\n        /* \"#utility.yul\":7625:7639   */\n      add\n        /* \"#utility.yul\":7618:7671   */\n      mstore\n        /* \"#utility.yul\":7501:7678   */\n      pop\n      jump\t// out\n        /* \"#utility.yul\":7684:8050   */\n    tag_196:\n        /* \"#utility.yul\":7826:7829   */\n      0x00\n        /* \"#utility.yul\":7847:7914   */\n      tag_285\n        /* \"#utility.yul\":7911:7913   */\n      0x1b\n        /* \"#utility.yul\":7906:7909   */\n      dup4\n        /* \"#utility.yul\":7847:7914   */\n      tag_186\n      jump\t// in\n    tag_285:\n        /* \"#utility.yul\":7840:7914   */\n      swap2\n      pop\n        /* \"#utility.yul\":7923:8016   */\n      tag_286\n        /* \"#utility.yul\":8012:8015   */\n      dup3\n        /* \"#utility.yul\":7923:8016   */\n      tag_195\n      jump\t// in\n    tag_286:\n        /* \"#utility.yul\":8041:8043   */\n      0x20\n        /* \"#utility.yul\":8036:8039   */\n      dup3\n        /* \"#utility.yul\":8032:8044   */\n      add\n        /* \"#utility.yul\":8025:8044   */\n      swap1\n      pop\n        /* \"#utility.yul\":7684:8050   */\n      swap2\n      swap1\n      pop\n      jump\t// out\n        /* \"#utility.yul\":8056:8475   */\n    tag_103:\n        /* \"#utility.yul\":8222:8226   */\n      0x00\n        /* \"#utility.yul\":8260:8262   */\n      0x20\n        /* \"#utility.yul\":8249:8258   */\n      dup3\n        /* \"#utility.yul\":8245:8263   */\n      add\n        /* \"#utility.yul\":8237:8263   */\n      swap1\n      pop\n        /* \"#utility.yul\":8309:8318   */\n      dup2\n        /* \"#utility.yul\":8303:8307   */\n      dup2\n        /* \"#utility.yul\":8299:8319   */\n      sub\n        /* \"#utility.yul\":8295:8296   */\n      0x00\n        /* \"#utility.yul\":8284:8293   */\n      dup4\n        /* \"#utility.yul\":8280:8297   */\n      add\n        /* \"#utility.yul\":8273:8320   */\n      mstore\n        /* \"#utility.yul\":8337:8468   */\n      tag_288\n        /* \"#utility.yul\":8463:8467   */\n      dup2\n        /* \"#utility.yul\":8337:8468   */\n      tag_196\n      jump\t// in\n    tag_288:\n        /* \"#utility.yul\":8329:8468   */\n      swap1\n      pop\n        /* \"#utility.yul\":8056:8475   */\n      swap2\n      swap1\n      pop\n      jump\t// out\n        /* \"#utility.yul\":8481:8624   */\n    tag_197:\n        /* \"#utility.yul\":8538:8543   */\n      0x00\n        /* \"#utility.yul\":8569:8575   */\n      dup2\n        /* \"#utility.yul\":8563:8576   */\n      mload\n        /* \"#utility.yul\":8554:8576   */\n      swap1\n      pop\n        /* \"#utility.yul\":8585:8618   */\n      tag_290\n        /* \"#utility.yul\":8612:8617   */\n      dup2\n        /* \"#utility.yul\":8585:8618   */\n      tag_183\n      jump\t// in\n    tag_290:\n        /* \"#utility.yul\":8481:8624   */\n      swap3\n      swap2\n      pop\n      pop\n      jump\t// out\n        /* \"#utility.yul\":8630:8981   */\n    tag_122:\n        /* \"#utility.yul\":8700:8706   */\n      0x00\n        /* \"#utility.yul\":8749:8751   */\n      0x20\n        /* \"#utility.yul\":8737:8746   */\n      dup3\n        /* \"#utility.yul\":8728:8735   */\n      dup5\n        /* \"#utility.yul\":8724:8747   */\n      sub\n        /* \"#utility.yul\":8720:8752   */\n      slt\n        /* \"#utility.yul\":8717:8836   */\n      iszero\n      tag_292\n      jumpi\n        /* \"#utility.yul\":8755:8834   */\n      tag_293\n      tag_173\n      jump\t// in\n    tag_293:\n        /* \"#utility.yul\":8717:8836   */\n    tag_292:\n        /* \"#utility.yul\":8875:8876   */\n      0x00\n        /* \"#utility.yul\":8900:8964   */\n      tag_294\n        /* \"#utility.yul\":8956:8963   */\n      dup5\n        /* \"#utility.yul\":8947:8953   */\n      dup3\n        /* \"#utility.yul\":8936:8945   */\n      dup6\n        /* \"#utility.yul\":8932:8954   */\n      add\n        /* \"#utility.yul\":8900:8964   */\n      tag_197\n      jump\t// in\n    tag_294:\n        /* \"#utility.yul\":8890:8964   */\n      swap2\n      pop\n        /* \"#utility.yul\":8846:8974   */\n      pop\n        /* \"#utility.yul\":8630:8981   */\n      swap3\n      swap2\n      pop\n      pop\n      jump\t// out\n        /* \"#utility.yul\":8987:9158   */\n    tag_198:\n        /* \"#utility.yul\":9127:9150   */\n      0x456d657267656e6379206e6f7420656e61626c65640000000000000000000000\n        /* \"#utility.yul\":9123:9124   */\n      0x00\n        /* \"#utility.yul\":9115:9121   */\n      dup3\n        /* \"#utility.yul\":9111:9125   */\n      add\n        /* \"#utility.yul\":9104:9151   */\n      mstore\n        /* \"#utility.yul\":8987:9158   */\n      pop\n      jump\t// out\n        /* \"#utility.yul\":9164:9530   */\n    tag_199:\n        /* \"#utility.yul\":9306:9309   */\n      0x00\n        /* \"#utility.yul\":9327:9394   */\n      tag_297\n        /* \"#utility.yul\":9391:9393   */\n      0x15\n        /* \"#utility.yul\":9386:9389   */\n      dup4\n        /* \"#utility.yul\":9327:9394   */\n      tag_186\n      jump\t// in\n    tag_297:\n        /* \"#utility.yul\":9320:9394   */\n      swap2\n      pop\n        /* \"#utility.yul\":9403:9496   */\n      tag_298\n        /* \"#utility.yul\":9492:9495   */\n      dup3\n        /* \"#utility.yul\":9403:9496   */\n      tag_198\n      jump\t// in\n    tag_298:\n        /* \"#utility.yul\":9521:9523   */\n      0x20\n        /* \"#utility.yul\":9516:9519   */\n      dup3\n        /* \"#utility.yul\":9512:9524   */\n      add\n        /* \"#utility.yul\":9505:9524   */\n      swap1\n      pop\n        /* \"#utility.yul\":9164:9530   */\n      swap2\n      swap1\n      pop\n      jump\t// out\n        /* \"#utility.yul\":9536:9955   */\n    tag_127:\n        /* \"#utility.yul\":9702:9706   */\n      0x00\n        /* \"#utility.yul\":9740:9742   */\n      0x20\n        /* \"#utility.yul\":9729:9738   */\n      dup3\n        /* \"#utility.yul\":9725:9743   */\n      add\n        /* \"#utility.yul\":9717:9743   */\n      swap1\n      pop\n        /* \"#utility.yul\":9789:9798   */\n      dup2\n        /* \"#utility.yul\":9783:9787   */\n      dup2\n        /* \"#utility.yul\":9779:9799   */\n      sub\n        /* \"#utility.yul\":9775:9776   */\n      0x00\n        /* \"#utility.yul\":9764:9773   */\n      dup4\n        /* \"#utility.yul\":9760:9777   */\n      add\n        /* \"#utility.yul\":9753:9800   */\n      mstore\n        /* \"#utility.yul\":9817:9948   */\n      tag_300\n        /* \"#utility.yul\":9943:9947   */\n      dup2\n        /* \"#utility.yul\":9817:9948   */\n      tag_199\n      jump\t// in\n    tag_300:\n        /* \"#utility.yul\":9809:9948   */\n      swap1\n      pop\n        /* \"#utility.yul\":9536:9955   */\n      swap2\n      swap1\n      pop\n      jump\t// out\n        /* \"#utility.yul\":9961:10131   */\n    tag_200:\n        /* \"#utility.yul\":10101:10123   */\n      0x4e6f2066756e647320746f207769746864726177000000000000000000000000\n        /* \"#utility.yul\":10097:10098   */\n      0x00\n        /* \"#utility.yul\":10089:10095   */\n      dup3\n        /* \"#utility.yul\":10085:10099   */\n      add\n        /* \"#utility.yul\":10078:10124   */\n      mstore\n        /* \"#utility.yul\":9961:10131   */\n      pop\n      jump\t// out\n        /* \"#utility.yul\":10137:10503   */\n    tag_201:\n        /* \"#utility.yul\":10279:10282   */\n      0x00\n        /* \"#utility.yul\":10300:10367   */\n      tag_303\n        /* \"#utility.yul\":10364:10366   */\n      0x14\n        /* \"#utility.yul\":10359:10362   */\n      dup4\n        /* \"#utility.yul\":10300:10367   */\n      tag_186\n      jump\t// in\n    tag_303:\n        /* \"#utility.yul\":10293:10367   */\n      swap2\n      pop\n        /* \"#utility.yul\":10376:10469   */\n      tag_304\n        /* \"#utility.yul\":10465:10468   */\n      dup3\n        /* \"#utility.yul\":10376:10469   */\n      tag_200\n      jump\t// in\n    tag_304:\n        /* \"#utility.yul\":10494:10496   */\n      0x20\n        /* \"#utility.yul\":10489:10492   */\n      dup3\n        /* \"#utility.yul\":10485:10497   */\n      add\n        /* \"#utility.yul\":10478:10497   */\n      swap1\n      pop\n        /* \"#utility.yul\":10137:10503   */\n      swap2\n      swap1\n      pop\n      jump\t// out\n        /* \"#utility.yul\":10509:10928   */\n    tag_133:\n        /* \"#utility.yul\":10675:10679   */\n      0x00\n        /* \"#utility.yul\":10713:10715   */\n      0x20\n        /* \"#utility.yul\":10702:10711   */\n      dup3\n        /* \"#utility.yul\":10698:10716   */\n      add\n        /* \"#utility.yul\":10690:10716   */\n      swap1\n      pop\n        /* \"#utility.yul\":10762:10771   */\n      dup2\n        /* \"#utility.yul\":10756:10760   */\n      dup2\n        /* \"#utility.yul\":10752:10772   */\n      sub\n        /* \"#utility.yul\":10748:10749   */\n      0x00\n        /* \"#utility.yul\":10737:10746   */\n      dup4\n        /* \"#utility.yul\":10733:10750   */\n      add\n        /* \"#utility.yul\":10726:10773   */\n      mstore\n        /* \"#utility.yul\":10790:10921   */\n      tag_306\n        /* \"#utility.yul\":10916:10920   */\n      dup2\n        /* \"#utility.yul\":10790:10921   */\n      tag_201\n      jump\t// in\n    tag_306:\n        /* \"#utility.yul\":10782:10921   */\n      swap1\n      pop\n        /* \"#utility.yul\":10509:10928   */\n      swap2\n      swap1\n      pop\n      jump\t// out\n        /* \"#utility.yul\":10934:11115   */\n    tag_202:\n        /* \"#utility.yul\":11074:11107   */\n      0x5265656e7472616e637947756172643a207265656e7472616e742063616c6c00\n        /* \"#utility.yul\":11070:11071   */\n      0x00\n        /* \"#utility.yul\":11062:11068   */\n      dup3\n        /* \"#utility.yul\":11058:11072   */\n      add\n        /* \"#utility.yul\":11051:11108   */\n      mstore\n        /* \"#utility.yul\":10934:11115   */\n      pop\n      jump\t// out\n        /* \"#utility.yul\":11121:11487   */\n    tag_203:\n        /* \"#utility.yul\":11263:11266   */\n      0x00\n        /* \"#utility.yul\":11284:11351   */\n      tag_309\n        /* \"#utility.yul\":11348:11350   */\n      0x1f\n        /* \"#utility.yul\":11343:11346   */\n      dup4\n        /* \"#utility.yul\":11284:11351   */\n      tag_186\n      jump\t// in\n    tag_309:\n        /* \"#utility.yul\":11277:11351   */\n      swap2\n      pop\n        /* \"#utility.yul\":11360:11453   */\n      tag_310\n        /* \"#utility.yul\":11449:11452   */\n      dup3\n        /* \"#utility.yul\":11360:11453   */\n      tag_202\n      jump\t// in\n    tag_310:\n        /* \"#utility.yul\":11478:11480   */\n      0x20\n        /* \"#utility.yul\":11473:11476   */\n      dup3\n        /* \"#utility.yul\":11469:11481   */\n      add\n        /* \"#utility.yul\":11462:11481   */\n      swap1\n      pop\n        /* \"#utility.yul\":11121:11487   */\n      swap2\n      swap1\n      pop\n      jump\t// out\n        /* \"#utility.yul\":11493:11912   */\n    tag_153:\n        /* \"#utility.yul\":11659:11663   */\n      0x00\n        /* \"#utility.yul\":11697:11699   */\n      0x20\n        /* \"#utility.yul\":11686:11695   */\n      dup3\n        /* \"#utility.yul\":11682:11700   */\n      add\n        /* \"#utility.yul\":11674:11700   */\n      swap1\n      pop\n        /* \"#utility.yul\":11746:11755   */\n      dup2\n        /* \"#utility.yul\":11740:11744   */\n      dup2\n        /* \"#utility.yul\":11736:11756   */\n      sub\n        /* \"#utility.yul\":11732:11733   */\n      0x00\n        /* \"#utility.yul\":11721:11730   */\n      dup4\n        /* \"#utility.yul\":11717:11734   */\n      add\n        /* \"#utility.yul\":11710:11757   */\n      mstore\n        /* \"#utility.yul\":11774:11905   */\n      tag_312\n        /* \"#utility.yul\":11900:11904   */\n      dup2\n        /* \"#utility.yul\":11774:11905   */\n      tag_203\n      jump\t// in\n    tag_312:\n        /* \"#utility.yul\":11766:11905   */\n      swap1\n      pop\n        /* \"#utility.yul\":11493:11912   */\n      swap2\n      swap1\n      pop\n      jump\t// out\n        /* \"#utility.yul\":11918:12360   */\n    tag_157:\n        /* \"#utility.yul\":12067:12071   */\n      0x00\n        /* \"#utility.yul\":12105:12107   */\n      0x60\n        /* \"#utility.yul\":12094:12103   */\n      dup3\n        /* \"#utility.yul\":12090:12108   */\n      add\n        /* \"#utility.yul\":12082:12108   */\n      swap1\n      pop\n        /* \"#utility.yul\":12118:12189   */\n      tag_314\n        /* \"#utility.yul\":12186:12187   */\n      0x00\n        /* \"#utility.yul\":12175:12184   */\n      dup4\n        /* \"#utility.yul\":12171:12188   */\n      add\n        /* \"#utility.yul\":12162:12168   */\n      dup7\n        /* \"#utility.yul\":12118:12189   */\n      tag_185\n      jump\t// in\n    tag_314:\n        /* \"#utility.yul\":12199:12271   */\n      tag_315\n        /* \"#utility.yul\":12267:12269   */\n      0x20\n        /* \"#utility.yul\":12256:12265   */\n      dup4\n        /* \"#utility.yul\":12252:12270   */\n      add\n        /* \"#utility.yul\":12243:12249   */\n      dup6\n        /* \"#utility.yul\":12199:12271   */\n      tag_185\n      jump\t// in\n    tag_315:\n        /* \"#utility.yul\":12281:12353   */\n      tag_316\n        /* \"#utility.yul\":12349:12351   */\n      0x40\n        /* \"#utility.yul\":12338:12347   */\n      dup4\n        /* \"#utility.yul\":12334:12352   */\n      add\n        /* \"#utility.yul\":12325:12331   */\n      dup5\n        /* \"#utility.yul\":12281:12353   */\n      tag_180\n      jump\t// in\n    tag_316:\n        /* \"#utility.yul\":11918:12360   */\n      swap5\n      swap4\n      pop\n      pop\n      pop\n      pop\n      jump\t// out\n        /* \"#utility.yul\":12366:12698   */\n    tag_163:\n        /* \"#utility.yul\":12487:12491   */\n      0x00\n        /* \"#utility.yul\":12525:12527   */\n      0x40\n        /* \"#utility.yul\":12514:12523   */\n      dup3\n        /* \"#utility.yul\":12510:12528   */\n      add\n        /* \"#utility.yul\":12502:12528   */\n      swap1\n      pop\n        /* \"#utility.yul\":12538:12609   */\n      tag_318\n        /* \"#utility.yul\":12606:12607   */\n      0x00\n        /* \"#utility.yul\":12595:12604   */\n      dup4\n        /* \"#utility.yul\":12591:12608   */\n      add\n        /* \"#utility.yul\":12582:12588   */\n      dup6\n        /* \"#utility.yul\":12538:12609   */\n      tag_185\n      jump\t// in\n    tag_318:\n        /* \"#utility.yul\":12619:12691   */\n      tag_319\n        /* \"#utility.yul\":12687:12689   */\n      0x20\n        /* \"#utility.yul\":12676:12685   */\n      dup4\n        /* \"#utility.yul\":12672:12690   */\n      add\n        /* \"#utility.yul\":12663:12669   */\n      dup5\n        /* \"#utility.yul\":12619:12691   */\n      tag_180\n      jump\t// in\n    tag_319:\n        /* \"#utility.yul\":12366:12698   */\n      swap4\n      swap3\n      pop\n      pop\n      pop\n      jump\t// out\n\n    auxdata: 0xa2646970667358221220f6df6cd2528c43417238b8f99b67db84deea45c43fe59f83dee2d56a9840073d64736f6c63430008140033\n}\n",
				"bytecode": {
					"linkReferences": {},
					"object": "60a060405234801562000010575f80fd5b50604051620019ed380380620019ed833981810160405281019062000036919062000307565b805f73ffffffffffffffffffffffffffffffffffffffff168173ffffffffffffffffffffffffffffffffffffffff1603620000aa575f6040517f1e4fbdf7000000000000000000000000000000000000000000000000000000008152600401620000a191906200035d565b60405180910390fd5b620000bb81620001e160201b60201c565b50600180819055505f73ffffffffffffffffffffffffffffffffffffffff168273ffffffffffffffffffffffffffffffffffffffff160362000134576040517f08c379a00000000000000000000000000000000000000000000000000000000081526004016200012b90620003d6565b60405180910390fd5b5f73ffffffffffffffffffffffffffffffffffffffff168173ffffffffffffffffffffffffffffffffffffffff1603620001a5576040517f08c379a00000000000000000000000000000000000000000000000000000000081526004016200019c9062000444565b60405180910390fd5b8173ffffffffffffffffffffffffffffffffffffffff1660808173ffffffffffffffffffffffffffffffffffffffff1681525050505062000464565b5f805f9054906101000a900473ffffffffffffffffffffffffffffffffffffffff169050815f806101000a81548173ffffffffffffffffffffffffffffffffffffffff021916908373ffffffffffffffffffffffffffffffffffffffff1602179055508173ffffffffffffffffffffffffffffffffffffffff168173ffffffffffffffffffffffffffffffffffffffff167f8be0079c531659141344cd1fd0a4f28419497f9722a3daafe3b4186f6b6457e060405160405180910390a35050565b5f80fd5b5f73ffffffffffffffffffffffffffffffffffffffff82169050919050565b5f620002d182620002a6565b9050919050565b620002e381620002c5565b8114620002ee575f80fd5b50565b5f815190506200030181620002d8565b92915050565b5f806040838503121562000320576200031f620002a2565b5b5f6200032f85828601620002f1565b92505060206200034285828601620002f1565b9150509250929050565b6200035781620002c5565b82525050565b5f602082019050620003725f8301846200034c565b92915050565b5f82825260208201905092915050565b7f496e76616c696420746f6b656e000000000000000000000000000000000000005f82015250565b5f620003be600d8362000378565b9150620003cb8262000388565b602082019050919050565b5f6020820190508181035f830152620003ef81620003b0565b9050919050565b7f496e76616c6964206f776e6572000000000000000000000000000000000000005f82015250565b5f6200042c600d8362000378565b91506200043982620003f6565b602082019050919050565b5f6020820190508181035f8301526200045d816200041e565b9050919050565b60805161154d620004a05f395f81816103ad015281816103f40152818161076c0152818161088201528181610a790152610b9d015261154d5ff3fe608060405234801561000f575f80fd5b50600436106100cd575f3560e01c8063715018a61161008a5780638da5cb5b116100645780638da5cb5b146101db578063db2e21bc146101f9578063f2fde38b14610203578063f7c618c11461021f576100cd565b8063715018a6146101a957806374e5407d146101b357806382b2e257146101bd576100cd565b80630eb9af38146100d15780631e2720ff146101055780632494d8b51461012157806325bf67a01461013d5780632958d031146101595780632e1a7d4d1461018d575b5f80fd5b6100eb60048036038101906100e69190610f60565b61023d565b6040516100fc959493929190610fbd565b60405180910390f35b61011f600480360381019061011a9190611038565b6102fa565b005b61013b60048036038101906101369190611038565b610483565b005b61015760048036038101906101529190611038565b610521565b005b610173600480360381019061016e9190610f60565b6105bf565b604051610184959493929190610fbd565b60405180910390f35b6101a760048036038101906101a29190611038565b6105fd565b005b6101b161080a565b005b6101bb61081d565b005b6101c561087f565b6040516101d29190611063565b60405180910390f35b6101e361091d565b6040516101f0919061108b565b60405180910390f35b610201610944565b005b61021d60048036038101906102189190610f60565b610b17565b005b610227610b9b565b604051610234919061108b565b60405180910390f35b5f805f805f8060025f8873ffffffffffffffffffffffffffffffffffffffff1673ffffffffffffffffffffffffffffffffffffffff1681526020019081526020015f206040518060a00160405290815f8201548152602001600182015481526020016002820154815260200160038201548152602001600482015f9054906101000a900460ff1615151515815250509050805f01518160200151826040015183606001518460800151955095509550955095505091939590929450565b610302610bbf565b61030a610c46565b5f811161034c576040517f08c379a0000000000000000000000000000000000000000000000000000000008152600401610343906110fe565b60405180910390fd5b5f60025f3373ffffffffffffffffffffffffffffffffffffffff1673ffffffffffffffffffffffffffffffffffffffff1681526020019081526020015f20905081815f015f82825461039e9190611149565b925050819055506103f23330847f000000000000000000000000000000000000000000000000000000000000000073ffffffffffffffffffffffffffffffffffffffff16610c95909392919063ffffffff16565b7f000000000000000000000000000000000000000000000000000000000000000073ffffffffffffffffffffffffffffffffffffffff163373ffffffffffffffffffffffffffffffffffffffff167f5548c837ab068cf56a2c2479df0882a4922fd203edb7517321831d95078c5f628460405161046f9190611063565b60405180910390a350610480610d17565b50565b61048b610bbf565b8060025f3373ffffffffffffffffffffffffffffffffffffffff1673ffffffffffffffffffffffffffffffffffffffff1681526020019081526020015f20600101819055503373ffffffffffffffffffffffffffffffffffffffff167f3e5fe77580a0a08bdd2fee5ab0afd5488f02bcabb60484a348313c3e8a96dd6e826040516105169190611063565b60405180910390a250565b610529610bbf565b8060025f3373ffffffffffffffffffffffffffffffffffffffff1673ffffffffffffffffffffffffffffffffffffffff1681526020019081526020015f20600201819055503373ffffffffffffffffffffffffffffffffffffffff167f83966b9130cd03be7ce0d6a0210f59b51ed9b5c473202a8e381a48b384804b71826040516105b49190611063565b60405180910390a250565b6002602052805f5260405f205f91509050805f015490806001015490806002015490806003015490806004015f9054906101000a900460ff16905085565b610605610c46565b5f60025f3373ffffffffffffffffffffffffffffffffffffffff1673ffffffffffffffffffffffffffffffffffffffff1681526020019081526020015f20905081815f0154101561068b576040517f08c379a0000000000000000000000000000000000000000000000000000000008152600401610682906111c6565b60405180910390fd5b80600101544210156107435780600201548211156106de576040517f08c379a00000000000000000000000000000000000000000000000000000000081526004016106d59061122e565b60405180910390fd5b5f62278d008260030154426106f3919061124c565b6106fd91906112ac565b90505f8103610741576040517f08c379a000000000000000000000000000000000000000000000000000000000815260040161073890611326565b60405180910390fd5b505b81815f015f828254610755919061124c565b925050819055504281600301819055506107b033837f000000000000000000000000000000000000000000000000000000000000000073ffffffffffffffffffffffffffffffffffffffff16610d209092919063ffffffff16565b3373ffffffffffffffffffffffffffffffffffffffff167f7fcf532c15f0a6db0bd6d0e038bea71d30d808c7d98cb3bf7268a95bf5081b65836040516107f69190611063565b60405180910390a250610807610d17565b50565b610812610bbf565b61081b5f610d9f565b565b610825610bbf565b600160025f3373ffffffffffffffffffffffffffffffffffffffff1673ffffffffffffffffffffffffffffffffffffffff1681526020019081526020015f206004015f6101000a81548160ff021916908315150217905550565b5f7f000000000000000000000000000000000000000000000000000000000000000073ffffffffffffffffffffffffffffffffffffffff166370a08231306040518263ffffffff1660e01b81526004016108d9919061108b565b602060405180830381865afa1580156108f4573d5f803e3d5ffd5b505050506040513d601f19601f820116820180604052508101906109189190611358565b905090565b5f805f9054906101000a900473ffffffffffffffffffffffffffffffffffffffff16905090565b60025f3373ffffffffffffffffffffffffffffffffffffffff1673ffffffffffffffffffffffffffffffffffffffff1681526020019081526020015f206004015f9054906101000a900460ff166109d0576040517f08c379a00000000000000000000000000000000000000000000000000000000081526004016109c7906113cd565b60405180910390fd5b6109d8610c46565b5f60025f3373ffffffffffffffffffffffffffffffffffffffff1673ffffffffffffffffffffffffffffffffffffffff1681526020019081526020015f2090505f815f015490505f8111610a61576040517f08c379a0000000000000000000000000000000000000000000000000000000008152600401610a5890611435565b60405180910390fd5b5f825f0181905550428260030181905550610abd33827f000000000000000000000000000000000000000000000000000000000000000073ffffffffffffffffffffffffffffffffffffffff16610d209092919063ffffffff16565b3373ffffffffffffffffffffffffffffffffffffffff167f23d6711a1d031134a36921253c75aa59e967d38e369ac625992824315e204f2082604051610b039190611063565b60405180910390a25050610b15610d17565b565b610b1f610bbf565b5f73ffffffffffffffffffffffffffffffffffffffff168173ffffffffffffffffffffffffffffffffffffffff1603610b8f575f6040517f1e4fbdf7000000000000000000000000000000000000000000000000000000008152600401610b86919061108b565b60405180910390fd5b610b9881610d9f565b50565b7f000000000000000000000000000000000000000000000000000000000000000081565b610bc7610e60565b73ffffffffffffffffffffffffffffffffffffffff16610be561091d565b73ffffffffffffffffffffffffffffffffffffffff1614610c4457610c08610e60565b6040517f118cdaa7000000000000000000000000000000000000000000000000000000008152600401610c3b919061108b565b60405180910390fd5b565b600260015403610c8b576040517f08c379a0000000000000000000000000000000000000000000000000000000008152600401610c829061149d565b60405180910390fd5b6002600181905550565b610d11848573ffffffffffffffffffffffffffffffffffffffff166323b872dd868686604051602401610cca939291906114bb565b604051602081830303815290604052915060e01b6020820180517bffffffffffffffffffffffffffffffffffffffffffffffffffffffff8381831617835250505050610e67565b50505050565b60018081905550565b610d9a838473ffffffffffffffffffffffffffffffffffffffff1663a9059cbb8585604051602401610d539291906114f0565b604051602081830303815290604052915060e01b6020820180517bffffffffffffffffffffffffffffffffffffffffffffffffffffffff8381831617835250505050610e67565b505050565b5f805f9054906101000a900473ffffffffffffffffffffffffffffffffffffffff169050815f806101000a81548173ffffffffffffffffffffffffffffffffffffffff021916908373ffffffffffffffffffffffffffffffffffffffff1602179055508173ffffffffffffffffffffffffffffffffffffffff168173ffffffffffffffffffffffffffffffffffffffff167f8be0079c531659141344cd1fd0a4f28419497f9722a3daafe3b4186f6b6457e060405160405180910390a35050565b5f33905090565b5f8060205f8451602086015f885af180610e86576040513d5f823e3d81fd5b3d92505f519150505f8214610e9f576001811415610eba565b5f8473ffffffffffffffffffffffffffffffffffffffff163b145b15610efc57836040517f5274afe7000000000000000000000000000000000000000000000000000000008152600401610ef3919061108b565b60405180910390fd5b50505050565b5f80fd5b5f73ffffffffffffffffffffffffffffffffffffffff82169050919050565b5f610f2f82610f06565b9050919050565b610f3f81610f25565b8114610f49575f80fd5b50565b5f81359050610f5a81610f36565b92915050565b5f60208284031215610f7557610f74610f02565b5b5f610f8284828501610f4c565b91505092915050565b5f819050919050565b610f9d81610f8b565b82525050565b5f8115159050919050565b610fb781610fa3565b82525050565b5f60a082019050610fd05f830188610f94565b610fdd6020830187610f94565b610fea6040830186610f94565b610ff76060830185610f94565b6110046080830184610fae565b9695505050505050565b61101781610f8b565b8114611021575f80fd5b50565b5f813590506110328161100e565b92915050565b5f6020828403121561104d5761104c610f02565b5b5f61105a84828501611024565b91505092915050565b5f6020820190506110765f830184610f94565b92915050565b61108581610f25565b82525050565b5f60208201905061109e5f83018461107c565b92915050565b5f82825260208201905092915050565b7f416d6f756e74206d757374206265203e203000000000000000000000000000005f82015250565b5f6110e86012836110a4565b91506110f3826110b4565b602082019050919050565b5f6020820190508181035f830152611115816110dc565b9050919050565b7f4e487b71000000000000000000000000000000000000000000000000000000005f52601160045260245ffd5b5f61115382610f8b565b915061115e83610f8b565b92508282019050808211156111765761117561111c565b5b92915050565b7f496e73756666696369656e742062616c616e63650000000000000000000000005f82015250565b5f6111b06014836110a4565b91506111bb8261117c565b602082019050919050565b5f6020820190508181035f8301526111dd816111a4565b9050919050565b7f45786365656473206d6f6e74686c792072656c65617365206c696d69740000005f82015250565b5f611218601d836110a4565b9150611223826111e4565b602082019050919050565b5f6020820190508181035f8301526112458161120c565b9050919050565b5f61125682610f8b565b915061126183610f8b565b92508282039050818111156112795761127861111c565b5b92915050565b7f4e487b71000000000000000000000000000000000000000000000000000000005f52601260045260245ffd5b5f6112b682610f8b565b91506112c183610f8b565b9250826112d1576112d061127f565b5b828204905092915050565b7f416c72656164792077697468647265772074686973206d6f6e746800000000005f82015250565b5f611310601b836110a4565b915061131b826112dc565b602082019050919050565b5f6020820190508181035f83015261133d81611304565b9050919050565b5f815190506113528161100e565b92915050565b5f6020828403121561136d5761136c610f02565b5b5f61137a84828501611344565b91505092915050565b7f456d657267656e6379206e6f7420656e61626c656400000000000000000000005f82015250565b5f6113b76015836110a4565b91506113c282611383565b602082019050919050565b5f6020820190508181035f8301526113e4816113ab565b9050919050565b7f4e6f2066756e647320746f2077697468647261770000000000000000000000005f82015250565b5f61141f6014836110a4565b915061142a826113eb565b602082019050919050565b5f6020820190508181035f83015261144c81611413565b9050919050565b7f5265656e7472616e637947756172643a207265656e7472616e742063616c6c005f82015250565b5f611487601f836110a4565b915061149282611453565b602082019050919050565b5f6020820190508181035f8301526114b48161147b565b9050919050565b5f6060820190506114ce5f83018661107c565b6114db602083018561107c565b6114e86040830184610f94565b949350505050565b5f6040820190506115035f83018561107c565b6115106020830184610f94565b939250505056fea2646970667358221220f6df6cd2528c43417238b8f99b67db84deea45c43fe59f83dee2d56a9840073d64736f6c63430008140033",
					"opcodes": "PUSH1 0xA0 PUSH1 0x40 MSTORE CALLVALUE DUP1 ISZERO PUSH3 0x10 JUMPI PUSH0 DUP1 REVERT JUMPDEST POP PUSH1 0x40 MLOAD PUSH3 0x19ED CODESIZE SUB DUP1 PUSH3 0x19ED DUP4 CODECOPY DUP2 DUP2 ADD PUSH1 0x40 MSTORE DUP2 ADD SWAP1 PUSH3 0x36 SWAP2 SWAP1 PUSH3 0x307 JUMP JUMPDEST DUP1 PUSH0 PUSH20 0xFFFFFFFFFFFFFFFFFFFFFFFFFFFFFFFFFFFFFFFF AND DUP2 PUSH20 0xFFFFFFFFFFFFFFFFFFFFFFFFFFFFFFFFFFFFFFFF AND SUB PUSH3 0xAA JUMPI PUSH0 PUSH1 0x40 MLOAD PUSH32 0x1E4FBDF700000000000000000000000000000000000000000000000000000000 DUP2 MSTORE PUSH1 0x4 ADD PUSH3 0xA1 SWAP2 SWAP1 PUSH3 0x35D JUMP JUMPDEST PUSH1 0x40 MLOAD DUP1 SWAP2 SUB SWAP1 REVERT JUMPDEST PUSH3 0xBB DUP2 PUSH3 0x1E1 PUSH1 0x20 SHL PUSH1 0x20 SHR JUMP JUMPDEST POP PUSH1 0x1 DUP1 DUP2 SWAP1 SSTORE POP PUSH0 PUSH20 0xFFFFFFFFFFFFFFFFFFFFFFFFFFFFFFFFFFFFFFFF AND DUP3 PUSH20 0xFFFFFFFFFFFFFFFFFFFFFFFFFFFFFFFFFFFFFFFF AND SUB PUSH3 0x134 JUMPI PUSH1 0x40 MLOAD PUSH32 0x8C379A000000000000000000000000000000000000000000000000000000000 DUP2 MSTORE PUSH1 0x4 ADD PUSH3 0x12B SWAP1 PUSH3 0x3D6 JUMP JUMPDEST PUSH1 0x40 MLOAD DUP1 SWAP2 SUB SWAP1 REVERT JUMPDEST PUSH0 PUSH20 0xFFFFFFFFFFFFFFFFFFFFFFFFFFFFFFFFFFFFFFFF AND DUP2 PUSH20 0xFFFFFFFFFFFFFFFFFFFFFFFFFFFFFFFFFFFFFFFF AND SUB PUSH3 0x1A5 JUMPI PUSH1 0x40 MLOAD PUSH32 0x8C379A000000000000000000000000000000000000000000000000000000000 DUP2 MSTORE PUSH1 0x4 ADD PUSH3 0x19C SWAP1 PUSH3 0x444 JUMP JUMPDEST PUSH1 0x40 MLOAD DUP1 SWAP2 SUB SWAP1 REVERT JUMPDEST DUP2 PUSH20 0xFFFFFFFFFFFFFFFFFFFFFFFFFFFFFFFFFFFFFFFF AND PUSH1 0x80 DUP2 PUSH20 0xFFFFFFFFFFFFFFFFFFFFFFFFFFFFFFFFFFFFFFFF AND DUP2 MSTORE POP POP POP POP PUSH3 0x464 JUMP JUMPDEST PUSH0 DUP1 PUSH0 SWAP1 SLOAD SWAP1 PUSH2 0x100 EXP SWAP1 DIV PUSH20 0xFFFFFFFFFFFFFFFFFFFFFFFFFFFFFFFFFFFFFFFF AND SWAP1 POP DUP2 PUSH0 DUP1 PUSH2 0x100 EXP DUP2 SLOAD DUP2 PUSH20 0xFFFFFFFFFFFFFFFFFFFFFFFFFFFFFFFFFFFFFFFF MUL NOT AND SWAP1 DUP4 PUSH20 0xFFFFFFFFFFFFFFFFFFFFFFFFFFFFFFFFFFFFFFFF AND MUL OR SWAP1 SSTORE POP DUP2 PUSH20 0xFFFFFFFFFFFFFFFFFFFFFFFFFFFFFFFFFFFFFFFF AND DUP2 PUSH20 0xFFFFFFFFFFFFFFFFFFFFFFFFFFFFFFFFFFFFFFFF AND PUSH32 0x8BE0079C531659141344CD1FD0A4F28419497F9722A3DAAFE3B4186F6B6457E0 PUSH1 0x40 MLOAD PUSH1 0x40 MLOAD DUP1 SWAP2 SUB SWAP1 LOG3 POP POP JUMP JUMPDEST PUSH0 DUP1 REVERT JUMPDEST PUSH0 PUSH20 0xFFFFFFFFFFFFFFFFFFFFFFFFFFFFFFFFFFFFFFFF DUP3 AND SWAP1 POP SWAP2 SWAP1 POP JUMP JUMPDEST PUSH0 PUSH3 0x2D1 DUP3 PUSH3 0x2A6 JUMP JUMPDEST SWAP1 POP SWAP2 SWAP1 POP JUMP JUMPDEST PUSH3 0x2E3 DUP2 PUSH3 0x2C5 JUMP JUMPDEST DUP2 EQ PUSH3 0x2EE JUMPI PUSH0 DUP1 REVERT JUMPDEST POP JUMP JUMPDEST PUSH0 DUP2 MLOAD SWAP1 POP PUSH3 0x301 DUP2 PUSH3 0x2D8 JUMP JUMPDEST SWAP3 SWAP2 POP POP JUMP JUMPDEST PUSH0 DUP1 PUSH1 0x40 DUP4 DUP6 SUB SLT ISZERO PUSH3 0x320 JUMPI PUSH3 0x31F PUSH3 0x2A2 JUMP JUMPDEST JUMPDEST PUSH0 PUSH3 0x32F DUP6 DUP3 DUP7 ADD PUSH3 0x2F1 JUMP JUMPDEST SWAP3 POP POP PUSH1 0x20 PUSH3 0x342 DUP6 DUP3 DUP7 ADD PUSH3 0x2F1 JUMP JUMPDEST SWAP2 POP POP SWAP3 POP SWAP3 SWAP1 POP JUMP JUMPDEST PUSH3 0x357 DUP2 PUSH3 0x2C5 JUMP JUMPDEST DUP3 MSTORE POP POP JUMP JUMPDEST PUSH0 PUSH1 0x20 DUP3 ADD SWAP1 POP PUSH3 0x372 PUSH0 DUP4 ADD DUP5 PUSH3 0x34C JUMP JUMPDEST SWAP3 SWAP2 POP POP JUMP JUMPDEST PUSH0 DUP3 DUP3 MSTORE PUSH1 0x20 DUP3 ADD SWAP1 POP SWAP3 SWAP2 POP POP JUMP JUMPDEST PUSH32 0x496E76616C696420746F6B656E00000000000000000000000000000000000000 PUSH0 DUP3 ADD MSTORE POP JUMP JUMPDEST PUSH0 PUSH3 0x3BE PUSH1 0xD DUP4 PUSH3 0x378 JUMP JUMPDEST SWAP2 POP PUSH3 0x3CB DUP3 PUSH3 0x388 JUMP JUMPDEST PUSH1 0x20 DUP3 ADD SWAP1 POP SWAP2 SWAP1 POP JUMP JUMPDEST PUSH0 PUSH1 0x20 DUP3 ADD SWAP1 POP DUP2 DUP2 SUB PUSH0 DUP4 ADD MSTORE PUSH3 0x3EF DUP2 PUSH3 0x3B0 JUMP JUMPDEST SWAP1 POP SWAP2 SWAP1 POP JUMP JUMPDEST PUSH32 0x496E76616C6964206F776E657200000000000000000000000000000000000000 PUSH0 DUP3 ADD MSTORE POP JUMP JUMPDEST PUSH0 PUSH3 0x42C PUSH1 0xD DUP4 PUSH3 0x378 JUMP JUMPDEST SWAP2 POP PUSH3 0x439 DUP3 PUSH3 0x3F6 JUMP JUMPDEST PUSH1 0x20 DUP3 ADD SWAP1 POP SWAP2 SWAP1 POP JUMP JUMPDEST PUSH0 PUSH1 0x20 DUP3 ADD SWAP1 POP DUP2 DUP2 SUB PUSH0 DUP4 ADD MSTORE PUSH3 0x45D DUP2 PUSH3 0x41E JUMP JUMPDEST SWAP1 POP SWAP2 SWAP1 POP JUMP JUMPDEST PUSH1 0x80 MLOAD PUSH2 0x154D PUSH3 0x4A0 PUSH0 CODECOPY PUSH0 DUP2 DUP2 PUSH2 0x3AD ADD MSTORE DUP2 DUP2 PUSH2 0x3F4 ADD MSTORE DUP2 DUP2 PUSH2 0x76C ADD MSTORE DUP2 DUP2 PUSH2 0x882 ADD MSTORE DUP2 DUP2 PUSH2 0xA79 ADD MSTORE PUSH2 0xB9D ADD MSTORE PUSH2 0x154D PUSH0 RETURN INVALID PUSH1 0x80 PUSH1 0x40 MSTORE CALLVALUE DUP1 ISZERO PUSH2 0xF JUMPI PUSH0 DUP1 REVERT JUMPDEST POP PUSH1 0x4 CALLDATASIZE LT PUSH2 0xCD JUMPI PUSH0 CALLDATALOAD PUSH1 0xE0 SHR DUP1 PUSH4 0x715018A6 GT PUSH2 0x8A JUMPI DUP1 PUSH4 0x8DA5CB5B GT PUSH2 0x64 JUMPI DUP1 PUSH4 0x8DA5CB5B EQ PUSH2 0x1DB JUMPI DUP1 PUSH4 0xDB2E21BC EQ PUSH2 0x1F9 JUMPI DUP1 PUSH4 0xF2FDE38B EQ PUSH2 0x203 JUMPI DUP1 PUSH4 0xF7C618C1 EQ PUSH2 0x21F JUMPI PUSH2 0xCD JUMP JUMPDEST DUP1 PUSH4 0x715018A6 EQ PUSH2 0x1A9 JUMPI DUP1 PUSH4 0x74E5407D EQ PUSH2 0x1B3 JUMPI DUP1 PUSH4 0x82B2E257 EQ PUSH2 0x1BD JUMPI PUSH2 0xCD JUMP JUMPDEST DUP1 PUSH4 0xEB9AF38 EQ PUSH2 0xD1 JUMPI DUP1 PUSH4 0x1E2720FF EQ PUSH2 0x105 JUMPI DUP1 PUSH4 0x2494D8B5 EQ PUSH2 0x121 JUMPI DUP1 PUSH4 0x25BF67A0 EQ PUSH2 0x13D JUMPI DUP1 PUSH4 0x2958D031 EQ PUSH2 0x159 JUMPI DUP1 PUSH4 0x2E1A7D4D EQ PUSH2 0x18D JUMPI JUMPDEST PUSH0 DUP1 REVERT JUMPDEST PUSH2 0xEB PUSH1 0x4 DUP1 CALLDATASIZE SUB DUP2 ADD SWAP1 PUSH2 0xE6 SWAP2 SWAP1 PUSH2 0xF60 JUMP JUMPDEST PUSH2 0x23D JUMP JUMPDEST PUSH1 0x40 MLOAD PUSH2 0xFC SWAP6 SWAP5 SWAP4 SWAP3 SWAP2 SWAP1 PUSH2 0xFBD JUMP JUMPDEST PUSH1 0x40 MLOAD DUP1 SWAP2 SUB SWAP1 RETURN JUMPDEST PUSH2 0x11F PUSH1 0x4 DUP1 CALLDATASIZE SUB DUP2 ADD SWAP1 PUSH2 0x11A SWAP2 SWAP1 PUSH2 0x1038 JUMP JUMPDEST PUSH2 0x2FA JUMP JUMPDEST STOP JUMPDEST PUSH2 0x13B PUSH1 0x4 DUP1 CALLDATASIZE SUB DUP2 ADD SWAP1 PUSH2 0x136 SWAP2 SWAP1 PUSH2 0x1038 JUMP JUMPDEST PUSH2 0x483 JUMP JUMPDEST STOP JUMPDEST PUSH2 0x157 PUSH1 0x4 DUP1 CALLDATASIZE SUB DUP2 ADD SWAP1 PUSH2 0x152 SWAP2 SWAP1 PUSH2 0x1038 JUMP JUMPDEST PUSH2 0x521 JUMP JUMPDEST STOP JUMPDEST PUSH2 0x173 PUSH1 0x4 DUP1 CALLDATASIZE SUB DUP2 ADD SWAP1 PUSH2 0x16E SWAP2 SWAP1 PUSH2 0xF60 JUMP JUMPDEST PUSH2 0x5BF JUMP JUMPDEST PUSH1 0x40 MLOAD PUSH2 0x184 SWAP6 SWAP5 SWAP4 SWAP3 SWAP2 SWAP1 PUSH2 0xFBD JUMP JUMPDEST PUSH1 0x40 MLOAD DUP1 SWAP2 SUB SWAP1 RETURN JUMPDEST PUSH2 0x1A7 PUSH1 0x4 DUP1 CALLDATASIZE SUB DUP2 ADD SWAP1 PUSH2 0x1A2 SWAP2 SWAP1 PUSH2 0x1038 JUMP JUMPDEST PUSH2 0x5FD JUMP JUMPDEST STOP JUMPDEST PUSH2 0x1B1 PUSH2 0x80A JUMP JUMPDEST STOP JUMPDEST PUSH2 0x1BB PUSH2 0x81D JUMP JUMPDEST STOP JUMPDEST PUSH2 0x1C5 PUSH2 0x87F JUMP JUMPDEST PUSH1 0x40 MLOAD PUSH2 0x1D2 SWAP2 SWAP1 PUSH2 0x1063 JUMP JUMPDEST PUSH1 0x40 MLOAD DUP1 SWAP2 SUB SWAP1 RETURN JUMPDEST PUSH2 0x1E3 PUSH2 0x91D JUMP JUMPDEST PUSH1 0x40 MLOAD PUSH2 0x1F0 SWAP2 SWAP1 PUSH2 0x108B JUMP JUMPDEST PUSH1 0x40 MLOAD DUP1 SWAP2 SUB SWAP1 RETURN JUMPDEST PUSH2 0x201 PUSH2 0x944 JUMP JUMPDEST STOP JUMPDEST PUSH2 0x21D PUSH1 0x4 DUP1 CALLDATASIZE SUB DUP2 ADD SWAP1 PUSH2 0x218 SWAP2 SWAP1 PUSH2 0xF60 JUMP JUMPDEST PUSH2 0xB17 JUMP JUMPDEST STOP JUMPDEST PUSH2 0x227 PUSH2 0xB9B JUMP JUMPDEST PUSH1 0x40 MLOAD PUSH2 0x234 SWAP2 SWAP1 PUSH2 0x108B JUMP JUMPDEST PUSH1 0x40 MLOAD DUP1 SWAP2 SUB SWAP1 RETURN JUMPDEST PUSH0 DUP1 PUSH0 DUP1 PUSH0 DUP1 PUSH1 0x2 PUSH0 DUP9 PUSH20 0xFFFFFFFFFFFFFFFFFFFFFFFFFFFFFFFFFFFFFFFF AND PUSH20 0xFFFFFFFFFFFFFFFFFFFFFFFFFFFFFFFFFFFFFFFF AND DUP2 MSTORE PUSH1 0x20 ADD SWAP1 DUP2 MSTORE PUSH1 0x20 ADD PUSH0 KECCAK256 PUSH1 0x40 MLOAD DUP1 PUSH1 0xA0 ADD PUSH1 0x40 MSTORE SWAP1 DUP2 PUSH0 DUP3 ADD SLOAD DUP2 MSTORE PUSH1 0x20 ADD PUSH1 0x1 DUP3 ADD SLOAD DUP2 MSTORE PUSH1 0x20 ADD PUSH1 0x2 DUP3 ADD SLOAD DUP2 MSTORE PUSH1 0x20 ADD PUSH1 0x3 DUP3 ADD SLOAD DUP2 MSTORE PUSH1 0x20 ADD PUSH1 0x4 DUP3 ADD PUSH0 SWAP1 SLOAD SWAP1 PUSH2 0x100 EXP SWAP1 DIV PUSH1 0xFF AND ISZERO ISZERO ISZERO ISZERO DUP2 MSTORE POP POP SWAP1 POP DUP1 PUSH0 ADD MLOAD DUP2 PUSH1 0x20 ADD MLOAD DUP3 PUSH1 0x40 ADD MLOAD DUP4 PUSH1 0x60 ADD MLOAD DUP5 PUSH1 0x80 ADD MLOAD SWAP6 POP SWAP6 POP SWAP6 POP SWAP6 POP SWAP6 POP POP SWAP2 SWAP4 SWAP6 SWAP1 SWAP3 SWAP5 POP JUMP JUMPDEST PUSH2 0x302 PUSH2 0xBBF JUMP JUMPDEST PUSH2 0x30A PUSH2 0xC46 JUMP JUMPDEST PUSH0 DUP2 GT PUSH2 0x34C JUMPI PUSH1 0x40 MLOAD PUSH32 0x8C379A000000000000000000000000000000000000000000000000000000000 DUP2 MSTORE PUSH1 0x4 ADD PUSH2 0x343 SWAP1 PUSH2 0x10FE JUMP JUMPDEST PUSH1 0x40 MLOAD DUP1 SWAP2 SUB SWAP1 REVERT JUMPDEST PUSH0 PUSH1 0x2 PUSH0 CALLER PUSH20 0xFFFFFFFFFFFFFFFFFFFFFFFFFFFFFFFFFFFFFFFF AND PUSH20 0xFFFFFFFFFFFFFFFFFFFFFFFFFFFFFFFFFFFFFFFF AND DUP2 MSTORE PUSH1 0x20 ADD SWAP1 DUP2 MSTORE PUSH1 0x20 ADD PUSH0 KECCAK256 SWAP1 POP DUP2 DUP2 PUSH0 ADD PUSH0 DUP3 DUP3 SLOAD PUSH2 0x39E SWAP2 SWAP1 PUSH2 0x1149 JUMP JUMPDEST SWAP3 POP POP DUP2 SWAP1 SSTORE POP PUSH2 0x3F2 CALLER ADDRESS DUP5 PUSH32 0x0 PUSH20 0xFFFFFFFFFFFFFFFFFFFFFFFFFFFFFFFFFFFFFFFF AND PUSH2 0xC95 SWAP1 SWAP4 SWAP3 SWAP2 SWAP1 PUSH4 0xFFFFFFFF AND JUMP JUMPDEST PUSH32 0x0 PUSH20 0xFFFFFFFFFFFFFFFFFFFFFFFFFFFFFFFFFFFFFFFF AND CALLER PUSH20 0xFFFFFFFFFFFFFFFFFFFFFFFFFFFFFFFFFFFFFFFF AND PUSH32 0x5548C837AB068CF56A2C2479DF0882A4922FD203EDB7517321831D95078C5F62 DUP5 PUSH1 0x40 MLOAD PUSH2 0x46F SWAP2 SWAP1 PUSH2 0x1063 JUMP JUMPDEST PUSH1 0x40 MLOAD DUP1 SWAP2 SUB SWAP1 LOG3 POP PUSH2 0x480 PUSH2 0xD17 JUMP JUMPDEST POP JUMP JUMPDEST PUSH2 0x48B PUSH2 0xBBF JUMP JUMPDEST DUP1 PUSH1 0x2 PUSH0 CALLER PUSH20 0xFFFFFFFFFFFFFFFFFFFFFFFFFFFFFFFFFFFFFFFF AND PUSH20 0xFFFFFFFFFFFFFFFFFFFFFFFFFFFFFFFFFFFFFFFF AND DUP2 MSTORE PUSH1 0x20 ADD SWAP1 DUP2 MSTORE PUSH1 0x20 ADD PUSH0 KECCAK256 PUSH1 0x1 ADD DUP2 SWAP1 SSTORE POP CALLER PUSH20 0xFFFFFFFFFFFFFFFFFFFFFFFFFFFFFFFFFFFFFFFF AND PUSH32 0x3E5FE77580A0A08BDD2FEE5AB0AFD5488F02BCABB60484A348313C3E8A96DD6E DUP3 PUSH1 0x40 MLOAD PUSH2 0x516 SWAP2 SWAP1 PUSH2 0x1063 JUMP JUMPDEST PUSH1 0x40 MLOAD DUP1 SWAP2 SUB SWAP1 LOG2 POP JUMP JUMPDEST PUSH2 0x529 PUSH2 0xBBF JUMP JUMPDEST DUP1 PUSH1 0x2 PUSH0 CALLER PUSH20 0xFFFFFFFFFFFFFFFFFFFFFFFFFFFFFFFFFFFFFFFF AND PUSH20 0xFFFFFFFFFFFFFFFFFFFFFFFFFFFFFFFFFFFFFFFF AND DUP2 MSTORE PUSH1 0x20 ADD SWAP1 DUP2 MSTORE PUSH1 0x20 ADD PUSH0 KECCAK256 PUSH1 0x2 ADD DUP2 SWAP1 SSTORE POP CALLER PUSH20 0xFFFFFFFFFFFFFFFFFFFFFFFFFFFFFFFFFFFFFFFF AND PUSH32 0x83966B9130CD03BE7CE0D6A0210F59B51ED9B5C473202A8E381A48B384804B71 DUP3 PUSH1 0x40 MLOAD PUSH2 0x5B4 SWAP2 SWAP1 PUSH2 0x1063 JUMP JUMPDEST PUSH1 0x40 MLOAD DUP1 SWAP2 SUB SWAP1 LOG2 POP JUMP JUMPDEST PUSH1 0x2 PUSH1 0x20 MSTORE DUP1 PUSH0 MSTORE PUSH1 0x40 PUSH0 KECCAK256 PUSH0 SWAP2 POP SWAP1 POP DUP1 PUSH0 ADD SLOAD SWAP1 DUP1 PUSH1 0x1 ADD SLOAD SWAP1 DUP1 PUSH1 0x2 ADD SLOAD SWAP1 DUP1 PUSH1 0x3 ADD SLOAD SWAP1 DUP1 PUSH1 0x4 ADD PUSH0 SWAP1 SLOAD SWAP1 PUSH2 0x100 EXP SWAP1 DIV PUSH1 0xFF AND SWAP1 POP DUP6 JUMP JUMPDEST PUSH2 0x605 PUSH2 0xC46 JUMP JUMPDEST PUSH0 PUSH1 0x2 PUSH0 CALLER PUSH20 0xFFFFFFFFFFFFFFFFFFFFFFFFFFFFFFFFFFFFFFFF AND PUSH20 0xFFFFFFFFFFFFFFFFFFFFFFFFFFFFFFFFFFFFFFFF AND DUP2 MSTORE PUSH1 0x20 ADD SWAP1 DUP2 MSTORE PUSH1 0x20 ADD PUSH0 KECCAK256 SWAP1 POP DUP2 DUP2 PUSH0 ADD SLOAD LT ISZERO PUSH2 0x68B JUMPI PUSH1 0x40 MLOAD PUSH32 0x8C379A000000000000000000000000000000000000000000000000000000000 DUP2 MSTORE PUSH1 0x4 ADD PUSH2 0x682 SWAP1 PUSH2 0x11C6 JUMP JUMPDEST PUSH1 0x40 MLOAD DUP1 SWAP2 SUB SWAP1 REVERT JUMPDEST DUP1 PUSH1 0x1 ADD SLOAD TIMESTAMP LT ISZERO PUSH2 0x743 JUMPI DUP1 PUSH1 0x2 ADD SLOAD DUP3 GT ISZERO PUSH2 0x6DE JUMPI PUSH1 0x40 MLOAD PUSH32 0x8C379A000000000000000000000000000000000000000000000000000000000 DUP2 MSTORE PUSH1 0x4 ADD PUSH2 0x6D5 SWAP1 PUSH2 0x122E JUMP JUMPDEST PUSH1 0x40 MLOAD DUP1 SWAP2 SUB SWAP1 REVERT JUMPDEST PUSH0 PUSH3 0x278D00 DUP3 PUSH1 0x3 ADD SLOAD TIMESTAMP PUSH2 0x6F3 SWAP2 SWAP1 PUSH2 0x124C JUMP JUMPDEST PUSH2 0x6FD SWAP2 SWAP1 PUSH2 0x12AC JUMP JUMPDEST SWAP1 POP PUSH0 DUP2 SUB PUSH2 0x741 JUMPI PUSH1 0x40 MLOAD PUSH32 0x8C379A000000000000000000000000000000000000000000000000000000000 DUP2 MSTORE PUSH1 0x4 ADD PUSH2 0x738 SWAP1 PUSH2 0x1326 JUMP JUMPDEST PUSH1 0x40 MLOAD DUP1 SWAP2 SUB SWAP1 REVERT JUMPDEST POP JUMPDEST DUP2 DUP2 PUSH0 ADD PUSH0 DUP3 DUP3 SLOAD PUSH2 0x755 SWAP2 SWAP1 PUSH2 0x124C JUMP JUMPDEST SWAP3 POP POP DUP2 SWAP1 SSTORE POP TIMESTAMP DUP2 PUSH1 0x3 ADD DUP2 SWAP1 SSTORE POP PUSH2 0x7B0 CALLER DUP4 PUSH32 0x0 PUSH20 0xFFFFFFFFFFFFFFFFFFFFFFFFFFFFFFFFFFFFFFFF AND PUSH2 0xD20 SWAP1 SWAP3 SWAP2 SWAP1 PUSH4 0xFFFFFFFF AND JUMP JUMPDEST CALLER PUSH20 0xFFFFFFFFFFFFFFFFFFFFFFFFFFFFFFFFFFFFFFFF AND PUSH32 0x7FCF532C15F0A6DB0BD6D0E038BEA71D30D808C7D98CB3BF7268A95BF5081B65 DUP4 PUSH1 0x40 MLOAD PUSH2 0x7F6 SWAP2 SWAP1 PUSH2 0x1063 JUMP JUMPDEST PUSH1 0x40 MLOAD DUP1 SWAP2 SUB SWAP1 LOG2 POP PUSH2 0x807 PUSH2 0xD17 JUMP JUMPDEST POP JUMP JUMPDEST PUSH2 0x812 PUSH2 0xBBF JUMP JUMPDEST PUSH2 0x81B PUSH0 PUSH2 0xD9F JUMP JUMPDEST JUMP JUMPDEST PUSH2 0x825 PUSH2 0xBBF JUMP JUMPDEST PUSH1 0x1 PUSH1 0x2 PUSH0 CALLER PUSH20 0xFFFFFFFFFFFFFFFFFFFFFFFFFFFFFFFFFFFFFFFF AND PUSH20 0xFFFFFFFFFFFFFFFFFFFFFFFFFFFFFFFFFFFFFFFF AND DUP2 MSTORE PUSH1 0x20 ADD SWAP1 DUP2 MSTORE PUSH1 0x20 ADD PUSH0 KECCAK256 PUSH1 0x4 ADD PUSH0 PUSH2 0x100 EXP DUP2 SLOAD DUP2 PUSH1 0xFF MUL NOT AND SWAP1 DUP4 ISZERO ISZERO MUL OR SWAP1 SSTORE POP JUMP JUMPDEST PUSH0 PUSH32 0x0 PUSH20 0xFFFFFFFFFFFFFFFFFFFFFFFFFFFFFFFFFFFFFFFF AND PUSH4 0x70A08231 ADDRESS PUSH1 0x40 MLOAD DUP3 PUSH4 0xFFFFFFFF AND PUSH1 0xE0 SHL DUP2 MSTORE PUSH1 0x4 ADD PUSH2 0x8D9 SWAP2 SWAP1 PUSH2 0x108B JUMP JUMPDEST PUSH1 0x20 PUSH1 0x40 MLOAD DUP1 DUP4 SUB DUP2 DUP7 GAS STATICCALL ISZERO DUP1 ISZERO PUSH2 0x8F4 JUMPI RETURNDATASIZE PUSH0 DUP1 RETURNDATACOPY RETURNDATASIZE PUSH0 REVERT JUMPDEST POP POP POP POP PUSH1 0x40 MLOAD RETURNDATASIZE PUSH1 0x1F NOT PUSH1 0x1F DUP3 ADD AND DUP3 ADD DUP1 PUSH1 0x40 MSTORE POP DUP2 ADD SWAP1 PUSH2 0x918 SWAP2 SWAP1 PUSH2 0x1358 JUMP JUMPDEST SWAP1 POP SWAP1 JUMP JUMPDEST PUSH0 DUP1 PUSH0 SWAP1 SLOAD SWAP1 PUSH2 0x100 EXP SWAP1 DIV PUSH20 0xFFFFFFFFFFFFFFFFFFFFFFFFFFFFFFFFFFFFFFFF AND SWAP1 POP SWAP1 JUMP JUMPDEST PUSH1 0x2 PUSH0 CALLER PUSH20 0xFFFFFFFFFFFFFFFFFFFFFFFFFFFFFFFFFFFFFFFF AND PUSH20 0xFFFFFFFFFFFFFFFFFFFFFFFFFFFFFFFFFFFFFFFF AND DUP2 MSTORE PUSH1 0x20 ADD SWAP1 DUP2 MSTORE PUSH1 0x20 ADD PUSH0 KECCAK256 PUSH1 0x4 ADD PUSH0 SWAP1 SLOAD SWAP1 PUSH2 0x100 EXP SWAP1 DIV PUSH1 0xFF AND PUSH2 0x9D0 JUMPI PUSH1 0x40 MLOAD PUSH32 0x8C379A000000000000000000000000000000000000000000000000000000000 DUP2 MSTORE PUSH1 0x4 ADD PUSH2 0x9C7 SWAP1 PUSH2 0x13CD JUMP JUMPDEST PUSH1 0x40 MLOAD DUP1 SWAP2 SUB SWAP1 REVERT JUMPDEST PUSH2 0x9D8 PUSH2 0xC46 JUMP JUMPDEST PUSH0 PUSH1 0x2 PUSH0 CALLER PUSH20 0xFFFFFFFFFFFFFFFFFFFFFFFFFFFFFFFFFFFFFFFF AND PUSH20 0xFFFFFFFFFFFFFFFFFFFFFFFFFFFFFFFFFFFFFFFF AND DUP2 MSTORE PUSH1 0x20 ADD SWAP1 DUP2 MSTORE PUSH1 0x20 ADD PUSH0 KECCAK256 SWAP1 POP PUSH0 DUP2 PUSH0 ADD SLOAD SWAP1 POP PUSH0 DUP2 GT PUSH2 0xA61 JUMPI PUSH1 0x40 MLOAD PUSH32 0x8C379A000000000000000000000000000000000000000000000000000000000 DUP2 MSTORE PUSH1 0x4 ADD PUSH2 0xA58 SWAP1 PUSH2 0x1435 JUMP JUMPDEST PUSH1 0x40 MLOAD DUP1 SWAP2 SUB SWAP1 REVERT JUMPDEST PUSH0 DUP3 PUSH0 ADD DUP2 SWAP1 SSTORE POP TIMESTAMP DUP3 PUSH1 0x3 ADD DUP2 SWAP1 SSTORE POP PUSH2 0xABD CALLER DUP3 PUSH32 0x0 PUSH20 0xFFFFFFFFFFFFFFFFFFFFFFFFFFFFFFFFFFFFFFFF AND PUSH2 0xD20 SWAP1 SWAP3 SWAP2 SWAP1 PUSH4 0xFFFFFFFF AND JUMP JUMPDEST CALLER PUSH20 0xFFFFFFFFFFFFFFFFFFFFFFFFFFFFFFFFFFFFFFFF AND PUSH32 0x23D6711A1D031134A36921253C75AA59E967D38E369AC625992824315E204F20 DUP3 PUSH1 0x40 MLOAD PUSH2 0xB03 SWAP2 SWAP1 PUSH2 0x1063 JUMP JUMPDEST PUSH1 0x40 MLOAD DUP1 SWAP2 SUB SWAP1 LOG2 POP POP PUSH2 0xB15 PUSH2 0xD17 JUMP JUMPDEST JUMP JUMPDEST PUSH2 0xB1F PUSH2 0xBBF JUMP JUMPDEST PUSH0 PUSH20 0xFFFFFFFFFFFFFFFFFFFFFFFFFFFFFFFFFFFFFFFF AND DUP2 PUSH20 0xFFFFFFFFFFFFFFFFFFFFFFFFFFFFFFFFFFFFFFFF AND SUB PUSH2 0xB8F JUMPI PUSH0 PUSH1 0x40 MLOAD PUSH32 0x1E4FBDF700000000000000000000000000000000000000000000000000000000 DUP2 MSTORE PUSH1 0x4 ADD PUSH2 0xB86 SWAP2 SWAP1 PUSH2 0x108B JUMP JUMPDEST PUSH1 0x40 MLOAD DUP1 SWAP2 SUB SWAP1 REVERT JUMPDEST PUSH2 0xB98 DUP2 PUSH2 0xD9F JUMP JUMPDEST POP JUMP JUMPDEST PUSH32 0x0 DUP2 JUMP JUMPDEST PUSH2 0xBC7 PUSH2 0xE60 JUMP JUMPDEST PUSH20 0xFFFFFFFFFFFFFFFFFFFFFFFFFFFFFFFFFFFFFFFF AND PUSH2 0xBE5 PUSH2 0x91D JUMP JUMPDEST PUSH20 0xFFFFFFFFFFFFFFFFFFFFFFFFFFFFFFFFFFFFFFFF AND EQ PUSH2 0xC44 JUMPI PUSH2 0xC08 PUSH2 0xE60 JUMP JUMPDEST PUSH1 0x40 MLOAD PUSH32 0x118CDAA700000000000000000000000000000000000000000000000000000000 DUP2 MSTORE PUSH1 0x4 ADD PUSH2 0xC3B SWAP2 SWAP1 PUSH2 0x108B JUMP JUMPDEST PUSH1 0x40 MLOAD DUP1 SWAP2 SUB SWAP1 REVERT JUMPDEST JUMP JUMPDEST PUSH1 0x2 PUSH1 0x1 SLOAD SUB PUSH2 0xC8B JUMPI PUSH1 0x40 MLOAD PUSH32 0x8C379A000000000000000000000000000000000000000000000000000000000 DUP2 MSTORE PUSH1 0x4 ADD PUSH2 0xC82 SWAP1 PUSH2 0x149D JUMP JUMPDEST PUSH1 0x40 MLOAD DUP1 SWAP2 SUB SWAP1 REVERT JUMPDEST PUSH1 0x2 PUSH1 0x1 DUP2 SWAP1 SSTORE POP JUMP JUMPDEST PUSH2 0xD11 DUP5 DUP6 PUSH20 0xFFFFFFFFFFFFFFFFFFFFFFFFFFFFFFFFFFFFFFFF AND PUSH4 0x23B872DD DUP7 DUP7 DUP7 PUSH1 0x40 MLOAD PUSH1 0x24 ADD PUSH2 0xCCA SWAP4 SWAP3 SWAP2 SWAP1 PUSH2 0x14BB JUMP JUMPDEST PUSH1 0x40 MLOAD PUSH1 0x20 DUP2 DUP4 SUB SUB DUP2 MSTORE SWAP1 PUSH1 0x40 MSTORE SWAP2 POP PUSH1 0xE0 SHL PUSH1 0x20 DUP3 ADD DUP1 MLOAD PUSH28 0xFFFFFFFFFFFFFFFFFFFFFFFFFFFFFFFFFFFFFFFFFFFFFFFFFFFFFFFF DUP4 DUP2 DUP4 AND OR DUP4 MSTORE POP POP POP POP PUSH2 0xE67 JUMP JUMPDEST POP POP POP POP JUMP JUMPDEST PUSH1 0x1 DUP1 DUP2 SWAP1 SSTORE POP JUMP JUMPDEST PUSH2 0xD9A DUP4 DUP5 PUSH20 0xFFFFFFFFFFFFFFFFFFFFFFFFFFFFFFFFFFFFFFFF AND PUSH4 0xA9059CBB DUP6 DUP6 PUSH1 0x40 MLOAD PUSH1 0x24 ADD PUSH2 0xD53 SWAP3 SWAP2 SWAP1 PUSH2 0x14F0 JUMP JUMPDEST PUSH1 0x40 MLOAD PUSH1 0x20 DUP2 DUP4 SUB SUB DUP2 MSTORE SWAP1 PUSH1 0x40 MSTORE SWAP2 POP PUSH1 0xE0 SHL PUSH1 0x20 DUP3 ADD DUP1 MLOAD PUSH28 0xFFFFFFFFFFFFFFFFFFFFFFFFFFFFFFFFFFFFFFFFFFFFFFFFFFFFFFFF DUP4 DUP2 DUP4 AND OR DUP4 MSTORE POP POP POP POP PUSH2 0xE67 JUMP JUMPDEST POP POP POP JUMP JUMPDEST PUSH0 DUP1 PUSH0 SWAP1 SLOAD SWAP1 PUSH2 0x100 EXP SWAP1 DIV PUSH20 0xFFFFFFFFFFFFFFFFFFFFFFFFFFFFFFFFFFFFFFFF AND SWAP1 POP DUP2 PUSH0 DUP1 PUSH2 0x100 EXP DUP2 SLOAD DUP2 PUSH20 0xFFFFFFFFFFFFFFFFFFFFFFFFFFFFFFFFFFFFFFFF MUL NOT AND SWAP1 DUP4 PUSH20 0xFFFFFFFFFFFFFFFFFFFFFFFFFFFFFFFFFFFFFFFF AND MUL OR SWAP1 SSTORE POP DUP2 PUSH20 0xFFFFFFFFFFFFFFFFFFFFFFFFFFFFFFFFFFFFFFFF AND DUP2 PUSH20 0xFFFFFFFFFFFFFFFFFFFFFFFFFFFFFFFFFFFFFFFF AND PUSH32 0x8BE0079C531659141344CD1FD0A4F28419497F9722A3DAAFE3B4186F6B6457E0 PUSH1 0x40 MLOAD PUSH1 0x40 MLOAD DUP1 SWAP2 SUB SWAP1 LOG3 POP POP JUMP JUMPDEST PUSH0 CALLER SWAP1 POP SWAP1 JUMP JUMPDEST PUSH0 DUP1 PUSH1 0x20 PUSH0 DUP5 MLOAD PUSH1 0x20 DUP7 ADD PUSH0 DUP9 GAS CALL DUP1 PUSH2 0xE86 JUMPI PUSH1 0x40 MLOAD RETURNDATASIZE PUSH0 DUP3 RETURNDATACOPY RETURNDATASIZE DUP2 REVERT JUMPDEST RETURNDATASIZE SWAP3 POP PUSH0 MLOAD SWAP2 POP POP PUSH0 DUP3 EQ PUSH2 0xE9F JUMPI PUSH1 0x1 DUP2 EQ ISZERO PUSH2 0xEBA JUMP JUMPDEST PUSH0 DUP5 PUSH20 0xFFFFFFFFFFFFFFFFFFFFFFFFFFFFFFFFFFFFFFFF AND EXTCODESIZE EQ JUMPDEST ISZERO PUSH2 0xEFC JUMPI DUP4 PUSH1 0x40 MLOAD PUSH32 0x5274AFE700000000000000000000000000000000000000000000000000000000 DUP2 MSTORE PUSH1 0x4 ADD PUSH2 0xEF3 SWAP2 SWAP1 PUSH2 0x108B JUMP JUMPDEST PUSH1 0x40 MLOAD DUP1 SWAP2 SUB SWAP1 REVERT JUMPDEST POP POP POP POP JUMP JUMPDEST PUSH0 DUP1 REVERT JUMPDEST PUSH0 PUSH20 0xFFFFFFFFFFFFFFFFFFFFFFFFFFFFFFFFFFFFFFFF DUP3 AND SWAP1 POP SWAP2 SWAP1 POP JUMP JUMPDEST PUSH0 PUSH2 0xF2F DUP3 PUSH2 0xF06 JUMP JUMPDEST SWAP1 POP SWAP2 SWAP1 POP JUMP JUMPDEST PUSH2 0xF3F DUP2 PUSH2 0xF25 JUMP JUMPDEST DUP2 EQ PUSH2 0xF49 JUMPI PUSH0 DUP1 REVERT JUMPDEST POP JUMP JUMPDEST PUSH0 DUP2 CALLDATALOAD SWAP1 POP PUSH2 0xF5A DUP2 PUSH2 0xF36 JUMP JUMPDEST SWAP3 SWAP2 POP POP JUMP JUMPDEST PUSH0 PUSH1 0x20 DUP3 DUP5 SUB SLT ISZERO PUSH2 0xF75 JUMPI PUSH2 0xF74 PUSH2 0xF02 JUMP JUMPDEST JUMPDEST PUSH0 PUSH2 0xF82 DUP5 DUP3 DUP6 ADD PUSH2 0xF4C JUMP JUMPDEST SWAP2 POP POP SWAP3 SWAP2 POP POP JUMP JUMPDEST PUSH0 DUP2 SWAP1 POP SWAP2 SWAP1 POP JUMP JUMPDEST PUSH2 0xF9D DUP2 PUSH2 0xF8B JUMP JUMPDEST DUP3 MSTORE POP POP JUMP JUMPDEST PUSH0 DUP2 ISZERO ISZERO SWAP1 POP SWAP2 SWAP1 POP JUMP JUMPDEST PUSH2 0xFB7 DUP2 PUSH2 0xFA3 JUMP JUMPDEST DUP3 MSTORE POP POP JUMP JUMPDEST PUSH0 PUSH1 0xA0 DUP3 ADD SWAP1 POP PUSH2 0xFD0 PUSH0 DUP4 ADD DUP9 PUSH2 0xF94 JUMP JUMPDEST PUSH2 0xFDD PUSH1 0x20 DUP4 ADD DUP8 PUSH2 0xF94 JUMP JUMPDEST PUSH2 0xFEA PUSH1 0x40 DUP4 ADD DUP7 PUSH2 0xF94 JUMP JUMPDEST PUSH2 0xFF7 PUSH1 0x60 DUP4 ADD DUP6 PUSH2 0xF94 JUMP JUMPDEST PUSH2 0x1004 PUSH1 0x80 DUP4 ADD DUP5 PUSH2 0xFAE JUMP JUMPDEST SWAP7 SWAP6 POP POP POP POP POP POP JUMP JUMPDEST PUSH2 0x1017 DUP2 PUSH2 0xF8B JUMP JUMPDEST DUP2 EQ PUSH2 0x1021 JUMPI PUSH0 DUP1 REVERT JUMPDEST POP JUMP JUMPDEST PUSH0 DUP2 CALLDATALOAD SWAP1 POP PUSH2 0x1032 DUP2 PUSH2 0x100E JUMP JUMPDEST SWAP3 SWAP2 POP POP JUMP JUMPDEST PUSH0 PUSH1 0x20 DUP3 DUP5 SUB SLT ISZERO PUSH2 0x104D JUMPI PUSH2 0x104C PUSH2 0xF02 JUMP JUMPDEST JUMPDEST PUSH0 PUSH2 0x105A DUP5 DUP3 DUP6 ADD PUSH2 0x1024 JUMP JUMPDEST SWAP2 POP POP SWAP3 SWAP2 POP POP JUMP JUMPDEST PUSH0 PUSH1 0x20 DUP3 ADD SWAP1 POP PUSH2 0x1076 PUSH0 DUP4 ADD DUP5 PUSH2 0xF94 JUMP JUMPDEST SWAP3 SWAP2 POP POP JUMP JUMPDEST PUSH2 0x1085 DUP2 PUSH2 0xF25 JUMP JUMPDEST DUP3 MSTORE POP POP JUMP JUMPDEST PUSH0 PUSH1 0x20 DUP3 ADD SWAP1 POP PUSH2 0x109E PUSH0 DUP4 ADD DUP5 PUSH2 0x107C JUMP JUMPDEST SWAP3 SWAP2 POP POP JUMP JUMPDEST PUSH0 DUP3 DUP3 MSTORE PUSH1 0x20 DUP3 ADD SWAP1 POP SWAP3 SWAP2 POP POP JUMP JUMPDEST PUSH32 0x416D6F756E74206D757374206265203E20300000000000000000000000000000 PUSH0 DUP3 ADD MSTORE POP JUMP JUMPDEST PUSH0 PUSH2 0x10E8 PUSH1 0x12 DUP4 PUSH2 0x10A4 JUMP JUMPDEST SWAP2 POP PUSH2 0x10F3 DUP3 PUSH2 0x10B4 JUMP JUMPDEST PUSH1 0x20 DUP3 ADD SWAP1 POP SWAP2 SWAP1 POP JUMP JUMPDEST PUSH0 PUSH1 0x20 DUP3 ADD SWAP1 POP DUP2 DUP2 SUB PUSH0 DUP4 ADD MSTORE PUSH2 0x1115 DUP2 PUSH2 0x10DC JUMP JUMPDEST SWAP1 POP SWAP2 SWAP1 POP JUMP JUMPDEST PUSH32 0x4E487B7100000000000000000000000000000000000000000000000000000000 PUSH0 MSTORE PUSH1 0x11 PUSH1 0x4 MSTORE PUSH1 0x24 PUSH0 REVERT JUMPDEST PUSH0 PUSH2 0x1153 DUP3 PUSH2 0xF8B JUMP JUMPDEST SWAP2 POP PUSH2 0x115E DUP4 PUSH2 0xF8B JUMP JUMPDEST SWAP3 POP DUP3 DUP3 ADD SWAP1 POP DUP1 DUP3 GT ISZERO PUSH2 0x1176 JUMPI PUSH2 0x1175 PUSH2 0x111C JUMP JUMPDEST JUMPDEST SWAP3 SWAP2 POP POP JUMP JUMPDEST PUSH32 0x496E73756666696369656E742062616C616E6365000000000000000000000000 PUSH0 DUP3 ADD MSTORE POP JUMP JUMPDEST PUSH0 PUSH2 0x11B0 PUSH1 0x14 DUP4 PUSH2 0x10A4 JUMP JUMPDEST SWAP2 POP PUSH2 0x11BB DUP3 PUSH2 0x117C JUMP JUMPDEST PUSH1 0x20 DUP3 ADD SWAP1 POP SWAP2 SWAP1 POP JUMP JUMPDEST PUSH0 PUSH1 0x20 DUP3 ADD SWAP1 POP DUP2 DUP2 SUB PUSH0 DUP4 ADD MSTORE PUSH2 0x11DD DUP2 PUSH2 0x11A4 JUMP JUMPDEST SWAP1 POP SWAP2 SWAP1 POP JUMP JUMPDEST PUSH32 0x45786365656473206D6F6E74686C792072656C65617365206C696D6974000000 PUSH0 DUP3 ADD MSTORE POP JUMP JUMPDEST PUSH0 PUSH2 0x1218 PUSH1 0x1D DUP4 PUSH2 0x10A4 JUMP JUMPDEST SWAP2 POP PUSH2 0x1223 DUP3 PUSH2 0x11E4 JUMP JUMPDEST PUSH1 0x20 DUP3 ADD SWAP1 POP SWAP2 SWAP1 POP JUMP JUMPDEST PUSH0 PUSH1 0x20 DUP3 ADD SWAP1 POP DUP2 DUP2 SUB PUSH0 DUP4 ADD MSTORE PUSH2 0x1245 DUP2 PUSH2 0x120C JUMP JUMPDEST SWAP1 POP SWAP2 SWAP1 POP JUMP JUMPDEST PUSH0 PUSH2 0x1256 DUP3 PUSH2 0xF8B JUMP JUMPDEST SWAP2 POP PUSH2 0x1261 DUP4 PUSH2 0xF8B JUMP JUMPDEST SWAP3 POP DUP3 DUP3 SUB SWAP1 POP DUP2 DUP2 GT ISZERO PUSH2 0x1279 JUMPI PUSH2 0x1278 PUSH2 0x111C JUMP JUMPDEST JUMPDEST SWAP3 SWAP2 POP POP JUMP JUMPDEST PUSH32 0x4E487B7100000000000000000000000000000000000000000000000000000000 PUSH0 MSTORE PUSH1 0x12 PUSH1 0x4 MSTORE PUSH1 0x24 PUSH0 REVERT JUMPDEST PUSH0 PUSH2 0x12B6 DUP3 PUSH2 0xF8B JUMP JUMPDEST SWAP2 POP PUSH2 0x12C1 DUP4 PUSH2 0xF8B JUMP JUMPDEST SWAP3 POP DUP3 PUSH2 0x12D1 JUMPI PUSH2 0x12D0 PUSH2 0x127F JUMP JUMPDEST JUMPDEST DUP3 DUP3 DIV SWAP1 POP SWAP3 SWAP2 POP POP JUMP JUMPDEST PUSH32 0x416C72656164792077697468647265772074686973206D6F6E74680000000000 PUSH0 DUP3 ADD MSTORE POP JUMP JUMPDEST PUSH0 PUSH2 0x1310 PUSH1 0x1B DUP4 PUSH2 0x10A4 JUMP JUMPDEST SWAP2 POP PUSH2 0x131B DUP3 PUSH2 0x12DC JUMP JUMPDEST PUSH1 0x20 DUP3 ADD SWAP1 POP SWAP2 SWAP1 POP JUMP JUMPDEST PUSH0 PUSH1 0x20 DUP3 ADD SWAP1 POP DUP2 DUP2 SUB PUSH0 DUP4 ADD MSTORE PUSH2 0x133D DUP2 PUSH2 0x1304 JUMP JUMPDEST SWAP1 POP SWAP2 SWAP1 POP JUMP JUMPDEST PUSH0 DUP2 MLOAD SWAP1 POP PUSH2 0x1352 DUP2 PUSH2 0x100E JUMP JUMPDEST SWAP3 SWAP2 POP POP JUMP JUMPDEST PUSH0 PUSH1 0x20 DUP3 DUP5 SUB SLT ISZERO PUSH2 0x136D JUMPI PUSH2 0x136C PUSH2 0xF02 JUMP JUMPDEST JUMPDEST PUSH0 PUSH2 0x137A DUP5 DUP3 DUP6 ADD PUSH2 0x1344 JUMP JUMPDEST SWAP2 POP POP SWAP3 SWAP2 POP POP JUMP JUMPDEST PUSH32 0x456D657267656E6379206E6F7420656E61626C65640000000000000000000000 PUSH0 DUP3 ADD MSTORE POP JUMP JUMPDEST PUSH0 PUSH2 0x13B7 PUSH1 0x15 DUP4 PUSH2 0x10A4 JUMP JUMPDEST SWAP2 POP PUSH2 0x13C2 DUP3 PUSH2 0x1383 JUMP JUMPDEST PUSH1 0x20 DUP3 ADD SWAP1 POP SWAP2 SWAP1 POP JUMP JUMPDEST PUSH0 PUSH1 0x20 DUP3 ADD SWAP1 POP DUP2 DUP2 SUB PUSH0 DUP4 ADD MSTORE PUSH2 0x13E4 DUP2 PUSH2 0x13AB JUMP JUMPDEST SWAP1 POP SWAP2 SWAP1 POP JUMP JUMPDEST PUSH32 0x4E6F2066756E647320746F207769746864726177000000000000000000000000 PUSH0 DUP3 ADD MSTORE POP JUMP JUMPDEST PUSH0 PUSH2 0x141F PUSH1 0x14 DUP4 PUSH2 0x10A4 JUMP JUMPDEST SWAP2 POP PUSH2 0x142A DUP3 PUSH2 0x13EB JUMP JUMPDEST PUSH1 0x20 DUP3 ADD SWAP1 POP SWAP2 SWAP1 POP JUMP JUMPDEST PUSH0 PUSH1 0x20 DUP3 ADD SWAP1 POP DUP2 DUP2 SUB PUSH0 DUP4 ADD MSTORE PUSH2 0x144C DUP2 PUSH2 0x1413 JUMP JUMPDEST SWAP1 POP SWAP2 SWAP1 POP JUMP JUMPDEST PUSH32 0x5265656E7472616E637947756172643A207265656E7472616E742063616C6C00 PUSH0 DUP3 ADD MSTORE POP JUMP JUMPDEST PUSH0 PUSH2 0x1487 PUSH1 0x1F DUP4 PUSH2 0x10A4 JUMP JUMPDEST SWAP2 POP PUSH2 0x1492 DUP3 PUSH2 0x1453 JUMP JUMPDEST PUSH1 0x20 DUP3 ADD SWAP1 POP SWAP2 SWAP1 POP JUMP JUMPDEST PUSH0 PUSH1 0x20 DUP3 ADD SWAP1 POP DUP2 DUP2 SUB PUSH0 DUP4 ADD MSTORE PUSH2 0x14B4 DUP2 PUSH2 0x147B JUMP JUMPDEST SWAP1 POP SWAP2 SWAP1 POP JUMP JUMPDEST PUSH0 PUSH1 0x60 DUP3 ADD SWAP1 POP PUSH2 0x14CE PUSH0 DUP4 ADD DUP7 PUSH2 0x107C JUMP JUMPDEST PUSH2 0x14DB PUSH1 0x20 DUP4 ADD DUP6 PUSH2 0x107C JUMP JUMPDEST PUSH2 0x14E8 PUSH1 0x40 DUP4 ADD DUP5 PUSH2 0xF94 JUMP JUMPDEST SWAP5 SWAP4 POP POP POP POP JUMP JUMPDEST PUSH0 PUSH1 0x40 DUP3 ADD SWAP1 POP PUSH2 0x1503 PUSH0 DUP4 ADD DUP6 PUSH2 0x107C JUMP JUMPDEST PUSH2 0x1510 PUSH1 0x20 DUP4 ADD DUP5 PUSH2 0xF94 JUMP JUMPDEST SWAP4 SWAP3 POP POP POP JUMP INVALID LOG2 PUSH5 0x6970667358 0x22 SLT KECCAK256 0xF6 0xDF PUSH13 0xD2528C43417238B8F99B67DB84 0xDE 0xEA GASLIMIT 0xC4 EXTCODEHASH 0xE5 SWAP16 DUP4 0xDE 0xE2 0xD5 PUSH11 0x9840073D64736F6C634300 ADDMOD EQ STOP CALLER "
				},
				"gasEstimates": {
					"creation": {
						"codeDepositCost": "1090600",
						"executionCost": "infinite",
						"totalCost": "infinite"
					},
					"external": {
						"depositReward(uint256)": "infinite",
						"emergencyWithdraw()": "infinite",
						"enableEmergencyWithdrawal()": "infinite",
						"getTokenBalance()": "infinite",
						"getVault(address)": "infinite",
						"owner()": "2537",
						"renounceOwnership()": "infinite",
						"rewardToken()": "infinite",
						"setLockUntil(uint256)": "infinite",
						"setMonthlyRelease(uint256)": "infinite",
						"transferOwnership(address)": "infinite",
						"userVaults(address)": "infinite",
						"withdraw(uint256)": "infinite"
					}
				},
				"methodIdentifiers": {
					"depositReward(uint256)": "1e2720ff",
					"emergencyWithdraw()": "db2e21bc",
					"enableEmergencyWithdrawal()": "74e5407d",
					"getTokenBalance()": "82b2e257",
					"getVault(address)": "0eb9af38",
					"owner()": "8da5cb5b",
					"renounceOwnership()": "715018a6",
					"rewardToken()": "f7c618c1",
					"setLockUntil(uint256)": "2494d8b5",
					"setMonthlyRelease(uint256)": "25bf67a0",
					"transferOwnership(address)": "f2fde38b",
					"userVaults(address)": "2958d031",
					"withdraw(uint256)": "2e1a7d4d"
				}
			},
			"storageLayout": {
				"storage": [
					{
						"astId": 8,
						"contract": "contracts/TrustVault.sol:TrustVault",
						"label": "_owner",
						"offset": 0,
						"slot": "0",
						"type": "t_address"
					},
					{
						"astId": 248,
						"contract": "contracts/TrustVault.sol:TrustVault",
						"label": "_status",
						"offset": 0,
						"slot": "1",
						"type": "t_uint256"
					},
					{
						"astId": 949,
						"contract": "contracts/TrustVault.sol:TrustVault",
						"label": "userVaults",
						"offset": 0,
						"slot": "2",
						"type": "t_mapping(t_address,t_struct(Vault)944_storage)"
					}
				],
				"types": {
					"t_address": {
						"encoding": "inplace",
						"label": "address",
						"numberOfBytes": "20"
					},
					"t_bool": {
						"encoding": "inplace",
						"label": "bool",
						"numberOfBytes": "1"
					},
					"t_mapping(t_address,t_struct(Vault)944_storage)": {
						"encoding": "mapping",
						"key": "t_address",
						"label": "mapping(address => struct TrustVault.Vault)",
						"numberOfBytes": "32",
						"value": "t_struct(Vault)944_storage"
					},
					"t_struct(Vault)944_storage": {
						"encoding": "inplace",
						"label": "struct TrustVault.Vault",
						"members": [
							{
								"astId": 935,
								"contract": "contracts/TrustVault.sol:TrustVault",
								"label": "totalDeposited",
								"offset": 0,
								"slot": "0",
								"type": "t_uint256"
							},
							{
								"astId": 937,
								"contract": "contracts/TrustVault.sol:TrustVault",
								"label": "lockUntil",
								"offset": 0,
								"slot": "1",
								"type": "t_uint256"
							},
							{
								"astId": 939,
								"contract": "contracts/TrustVault.sol:TrustVault",
								"label": "monthlyRelease",
								"offset": 0,
								"slot": "2",
								"type": "t_uint256"
							},
							{
								"astId": 941,
								"contract": "contracts/TrustVault.sol:TrustVault",
								"label": "lastWithdrawalTime",
								"offset": 0,
								"slot": "3",
								"type": "t_uint256"
							},
							{
								"astId": 943,
								"contract": "contracts/TrustVault.sol:TrustVault",
								"label": "emergencyEnabled",
								"offset": 0,
								"slot": "4",
								"type": "t_bool"
							}
						],
						"numberOfBytes": "160"
					},
					"t_uint256": {
						"encoding": "inplace",
						"label": "uint256",
						"numberOfBytes": "32"
					}
				}
			},
			"userdoc": {
				"kind": "user",
				"methods": {
					"depositReward(uint256)": {
						"notice": "Called by RewardTrust Pay backend AFTER verifying real-world behavior (e.g., tuition paid)"
					},
					"emergencyWithdraw()": {
						"notice": "Emergency withdrawal (e.g., medical crisis) – requires KYC verification"
					},
					"withdraw(uint256)": {
						"notice": "Regular withdrawal (subject to monthly limit and lock period)"
					}
				},
				"version": 1
			}
		}
	}
}